{
	"scripts/medical_ledger.sol": {
		"MedicalRecords": {
			"abi": [
				{
					"anonymous": false,
					"inputs": [
						{
							"indexed": true,
							"internalType": "address",
							"name": "user",
							"type": "address"
						},
						{
							"indexed": false,
							"internalType": "string",
							"name": "data",
							"type": "string"
						}
					],
					"name": "RecordAdded",
					"type": "event"
				},
				{
					"anonymous": false,
					"inputs": [
						{
							"indexed": true,
							"internalType": "address",
							"name": "user",
							"type": "address"
						},
						{
							"indexed": false,
							"internalType": "uint256",
							"name": "index",
							"type": "uint256"
						}
					],
					"name": "RecordRevoked",
					"type": "event"
				},
				{
					"inputs": [
						{
							"internalType": "address",
							"name": "_user",
							"type": "address"
						},
						{
							"internalType": "string",
							"name": "_data",
							"type": "string"
						}
					],
					"name": "addRecord",
					"outputs": [],
					"stateMutability": "nonpayable",
					"type": "function"
				},
				{
					"inputs": [
						{
							"internalType": "address",
							"name": "_user",
							"type": "address"
						},
						{
							"internalType": "uint256",
							"name": "_index",
							"type": "uint256"
						}
					],
					"name": "approveRecord",
					"outputs": [],
					"stateMutability": "nonpayable",
					"type": "function"
				},
				{
					"inputs": [
						{
							"internalType": "address",
							"name": "_user",
							"type": "address"
						},
						{
							"internalType": "enum MedicalRecords.Role",
							"name": "_role",
							"type": "uint8"
						}
					],
					"name": "assignRole",
					"outputs": [],
					"stateMutability": "nonpayable",
					"type": "function"
				},
				{
					"inputs": [
						{
							"internalType": "address",
							"name": "_user",
							"type": "address"
						}
					],
					"name": "getRecords",
					"outputs": [
						{
							"components": [
								{
									"internalType": "string",
									"name": "data",
									"type": "string"
								},
								{
									"internalType": "bool",
									"name": "doctorApproval",
									"type": "bool"
								},
								{
									"internalType": "bool",
									"name": "patientApproval",
									"type": "bool"
								},
								{
									"internalType": "bool",
									"name": "insuranceApproval",
									"type": "bool"
								}
							],
							"internalType": "struct MedicalRecords.Record[]",
							"name": "",
							"type": "tuple[]"
						}
					],
					"stateMutability": "view",
					"type": "function"
				},
				{
					"inputs": [
						{
							"internalType": "address",
							"name": "",
							"type": "address"
						},
						{
							"internalType": "uint256",
							"name": "",
							"type": "uint256"
						}
					],
					"name": "records",
					"outputs": [
						{
							"internalType": "string",
							"name": "data",
							"type": "string"
						},
						{
							"internalType": "bool",
							"name": "doctorApproval",
							"type": "bool"
						},
						{
							"internalType": "bool",
							"name": "patientApproval",
							"type": "bool"
						},
						{
							"internalType": "bool",
							"name": "insuranceApproval",
							"type": "bool"
						}
					],
					"stateMutability": "view",
					"type": "function"
				},
				{
					"inputs": [
						{
							"internalType": "address",
							"name": "_user",
							"type": "address"
						},
						{
							"internalType": "uint256",
							"name": "_index",
							"type": "uint256"
						}
					],
					"name": "revokeRecord",
					"outputs": [],
					"stateMutability": "nonpayable",
					"type": "function"
				},
				{
					"inputs": [
						{
							"internalType": "address",
							"name": "",
							"type": "address"
						}
					],
					"name": "roles",
					"outputs": [
						{
							"internalType": "enum MedicalRecords.Role",
							"name": "",
							"type": "uint8"
						}
					],
					"stateMutability": "view",
					"type": "function"
				}
			],
			"devdoc": {
				"kind": "dev",
				"methods": {},
				"version": 1
			},
			"evm": {
				"assembly": "    /* \"scripts/medical_ledger.sol\":57:1934  contract MedicalRecords {... */\n  mstore(0x40, 0x80)\n  callvalue\n  dup1\n  iszero\n  tag_1\n  jumpi\n  0x00\n  dup1\n  revert\ntag_1:\n  pop\n  dataSize(sub_0)\n  dup1\n  dataOffset(sub_0)\n  0x00\n  codecopy\n  0x00\n  return\nstop\n\nsub_0: assembly {\n        /* \"scripts/medical_ledger.sol\":57:1934  contract MedicalRecords {... */\n      mstore(0x40, 0x80)\n      callvalue\n      dup1\n      iszero\n      tag_1\n      jumpi\n      0x00\n      dup1\n      revert\n    tag_1:\n      pop\n      jumpi(tag_2, lt(calldatasize, 0x04))\n      shr(0xe0, calldataload(0x00))\n      dup1\n      0x82a6c0ac\n      gt\n      tag_10\n      jumpi\n      dup1\n      0x82a6c0ac\n      eq\n      tag_6\n      jumpi\n      dup1\n      0x99374642\n      eq\n      tag_7\n      jumpi\n      dup1\n      0xa0076e84\n      eq\n      tag_8\n      jumpi\n      dup1\n      0xea1020ea\n      eq\n      tag_9\n      jumpi\n      jump(tag_2)\n    tag_10:\n      dup1\n      0x492de2f2\n      eq\n      tag_3\n      jumpi\n      dup1\n      0x630a195b\n      eq\n      tag_4\n      jumpi\n      dup1\n      0x66858ec8\n      eq\n      tag_5\n      jumpi\n    tag_2:\n      0x00\n      dup1\n      revert\n        /* \"scripts/medical_ledger.sol\":930:1435  function approveRecord(address _user, uint _index) public onlyParticipants {... */\n    tag_3:\n      tag_11\n      0x04\n      dup1\n      calldatasize\n      sub\n      dup2\n      add\n      swap1\n      tag_12\n      swap2\n      swap1\n      tag_13\n      jump\t// in\n    tag_12:\n      tag_14\n      jump\t// in\n    tag_11:\n      stop\n        /* \"scripts/medical_ledger.sol\":628:719  function assignRole(address _user, Role _role) public {... */\n    tag_4:\n      tag_15\n      0x04\n      dup1\n      calldatasize\n      sub\n      dup2\n      add\n      swap1\n      tag_16\n      swap2\n      swap1\n      tag_17\n      jump\t// in\n    tag_16:\n      tag_18\n      jump\t// in\n    tag_15:\n      stop\n        /* \"scripts/medical_ledger.sol\":729:920  function addRecord(address _user, string memory _data) public onlyParticipants {... */\n    tag_5:\n      tag_19\n      0x04\n      dup1\n      calldatasize\n      sub\n      dup2\n      add\n      swap1\n      tag_20\n      swap2\n      swap1\n      tag_21\n      jump\t// in\n    tag_20:\n      tag_22\n      jump\t// in\n    tag_19:\n      stop\n        /* \"scripts/medical_ledger.sol\":329:372  mapping(address => Record[]) public records */\n    tag_6:\n      tag_23\n      0x04\n      dup1\n      calldatasize\n      sub\n      dup2\n      add\n      swap1\n      tag_24\n      swap2\n      swap1\n      tag_13\n      jump\t// in\n    tag_24:\n      tag_25\n      jump\t// in\n    tag_23:\n      mload(0x40)\n      tag_26\n      swap5\n      swap4\n      swap3\n      swap2\n      swap1\n      tag_27\n      jump\t// in\n    tag_26:\n      mload(0x40)\n      dup1\n      swap2\n      sub\n      swap1\n      return\n        /* \"scripts/medical_ledger.sol\":286:323  mapping(address => Role) public roles */\n    tag_7:\n      tag_28\n      0x04\n      dup1\n      calldatasize\n      sub\n      dup2\n      add\n      swap1\n      tag_29\n      swap2\n      swap1\n      tag_30\n      jump\t// in\n    tag_29:\n      tag_31\n      jump\t// in\n    tag_28:\n      mload(0x40)\n      tag_32\n      swap2\n      swap1\n      tag_33\n      jump\t// in\n    tag_32:\n      mload(0x40)\n      dup1\n      swap2\n      sub\n      swap1\n      return\n        /* \"scripts/medical_ledger.sol\":1821:1932  function getRecords(address _user) public view returns (Record[] memory) {... */\n    tag_8:\n      tag_34\n      0x04\n      dup1\n      calldatasize\n      sub\n      dup2\n      add\n      swap1\n      tag_35\n      swap2\n      swap1\n      tag_30\n      jump\t// in\n    tag_35:\n      tag_36\n      jump\t// in\n    tag_34:\n      mload(0x40)\n      tag_37\n      swap2\n      swap1\n      tag_38\n      jump\t// in\n    tag_37:\n      mload(0x40)\n      dup1\n      swap2\n      sub\n      swap1\n      return\n        /* \"scripts/medical_ledger.sol\":1445:1811  function revokeRecord(address _user, uint _index) public onlyParticipants {... */\n    tag_9:\n      tag_39\n      0x04\n      dup1\n      calldatasize\n      sub\n      dup2\n      add\n      swap1\n      tag_40\n      swap2\n      swap1\n      tag_13\n      jump\t// in\n    tag_40:\n      tag_41\n      jump\t// in\n    tag_39:\n      stop\n        /* \"scripts/medical_ledger.sol\":930:1435  function approveRecord(address _user, uint _index) public onlyParticipants {... */\n    tag_14:\n        /* \"scripts/medical_ledger.sol\":572:581  Role.None */\n      0x00\n        /* \"scripts/medical_ledger.sol\":551:581  roles[msg.sender] != Role.None */\n      0x03\n      dup2\n      gt\n      iszero\n      tag_43\n      jumpi\n      tag_44\n      tag_45\n      jump\t// in\n    tag_44:\n    tag_43:\n        /* \"scripts/medical_ledger.sol\":551:556  roles */\n      0x00\n        /* \"scripts/medical_ledger.sol\":551:568  roles[msg.sender] */\n      dup1\n        /* \"scripts/medical_ledger.sol\":557:567  msg.sender */\n      caller\n        /* \"scripts/medical_ledger.sol\":551:568  roles[msg.sender] */\n      0xffffffffffffffffffffffffffffffffffffffff\n      and\n      0xffffffffffffffffffffffffffffffffffffffff\n      and\n      dup2\n      mstore\n      0x20\n      add\n      swap1\n      dup2\n      mstore\n      0x20\n      add\n      0x00\n      keccak256\n      0x00\n      swap1\n      sload\n      swap1\n      0x0100\n      exp\n      swap1\n      div\n      0xff\n      and\n        /* \"scripts/medical_ledger.sol\":551:581  roles[msg.sender] != Role.None */\n      0x03\n      dup2\n      gt\n      iszero\n      tag_46\n      jumpi\n      tag_47\n      tag_45\n      jump\t// in\n    tag_47:\n    tag_46:\n      sub\n        /* \"scripts/medical_ledger.sol\":543:600  require(roles[msg.sender] != Role.None, \"Not authorized\") */\n      tag_48\n      jumpi\n      mload(0x40)\n      0x08c379a000000000000000000000000000000000000000000000000000000000\n      dup2\n      mstore\n      0x04\n      add\n      tag_49\n      swap1\n      tag_50\n      jump\t// in\n    tag_49:\n      mload(0x40)\n      dup1\n      swap2\n      sub\n      swap1\n      revert\n    tag_48:\n        /* \"scripts/medical_ledger.sol\":1032:1039  records */\n      0x01\n        /* \"scripts/medical_ledger.sol\":1032:1046  records[_user] */\n      0x00\n        /* \"scripts/medical_ledger.sol\":1040:1045  _user */\n      dup4\n        /* \"scripts/medical_ledger.sol\":1032:1046  records[_user] */\n      0xffffffffffffffffffffffffffffffffffffffff\n      and\n      0xffffffffffffffffffffffffffffffffffffffff\n      and\n      dup2\n      mstore\n      0x20\n      add\n      swap1\n      dup2\n      mstore\n      0x20\n      add\n      0x00\n      keccak256\n        /* \"scripts/medical_ledger.sol\":1032:1053  records[_user].length */\n      dup1\n      sload\n      swap1\n      pop\n        /* \"scripts/medical_ledger.sol\":1023:1029  _index */\n      dup2\n        /* \"scripts/medical_ledger.sol\":1023:1053  _index < records[_user].length */\n      lt\n        /* \"scripts/medical_ledger.sol\":1015:1078  require(_index < records[_user].length, \"Invalid record index\") */\n      tag_52\n      jumpi\n      mload(0x40)\n      0x08c379a000000000000000000000000000000000000000000000000000000000\n      dup2\n      mstore\n      0x04\n      add\n      tag_53\n      swap1\n      tag_54\n      jump\t// in\n    tag_53:\n      mload(0x40)\n      dup1\n      swap2\n      sub\n      swap1\n      revert\n    tag_52:\n        /* \"scripts/medical_ledger.sol\":1113:1125  Role.Patient */\n      0x02\n        /* \"scripts/medical_ledger.sol\":1092:1125  roles[msg.sender] == Role.Patient */\n      0x03\n      dup2\n      gt\n      iszero\n      tag_55\n      jumpi\n      tag_56\n      tag_45\n      jump\t// in\n    tag_56:\n    tag_55:\n        /* \"scripts/medical_ledger.sol\":1092:1097  roles */\n      0x00\n        /* \"scripts/medical_ledger.sol\":1092:1109  roles[msg.sender] */\n      dup1\n        /* \"scripts/medical_ledger.sol\":1098:1108  msg.sender */\n      caller\n        /* \"scripts/medical_ledger.sol\":1092:1109  roles[msg.sender] */\n      0xffffffffffffffffffffffffffffffffffffffff\n      and\n      0xffffffffffffffffffffffffffffffffffffffff\n      and\n      dup2\n      mstore\n      0x20\n      add\n      swap1\n      dup2\n      mstore\n      0x20\n      add\n      0x00\n      keccak256\n      0x00\n      swap1\n      sload\n      swap1\n      0x0100\n      exp\n      swap1\n      div\n      0xff\n      and\n        /* \"scripts/medical_ledger.sol\":1092:1125  roles[msg.sender] == Role.Patient */\n      0x03\n      dup2\n      gt\n      iszero\n      tag_57\n      jumpi\n      tag_58\n      tag_45\n      jump\t// in\n    tag_58:\n    tag_57:\n      sub\n        /* \"scripts/medical_ledger.sol\":1088:1429  if (roles[msg.sender] == Role.Patient) {... */\n      tag_59\n      jumpi\n        /* \"scripts/medical_ledger.sol\":1182:1186  true */\n      0x01\n        /* \"scripts/medical_ledger.sol\":1141:1148  records */\n      dup1\n        /* \"scripts/medical_ledger.sol\":1141:1155  records[_user] */\n      0x00\n        /* \"scripts/medical_ledger.sol\":1149:1154  _user */\n      dup5\n        /* \"scripts/medical_ledger.sol\":1141:1155  records[_user] */\n      0xffffffffffffffffffffffffffffffffffffffff\n      and\n      0xffffffffffffffffffffffffffffffffffffffff\n      and\n      dup2\n      mstore\n      0x20\n      add\n      swap1\n      dup2\n      mstore\n      0x20\n      add\n      0x00\n      keccak256\n        /* \"scripts/medical_ledger.sol\":1156:1162  _index */\n      dup3\n        /* \"scripts/medical_ledger.sol\":1141:1163  records[_user][_index] */\n      dup2\n      sload\n      dup2\n      lt\n      tag_60\n      jumpi\n      tag_61\n      tag_62\n      jump\t// in\n    tag_61:\n    tag_60:\n      swap1\n      0x00\n      mstore\n      keccak256(0x00, 0x20)\n      swap1\n      0x02\n      mul\n      add\n        /* \"scripts/medical_ledger.sol\":1141:1179  records[_user][_index].patientApproval */\n      0x01\n      add\n      0x01\n        /* \"scripts/medical_ledger.sol\":1141:1186  records[_user][_index].patientApproval = true */\n      0x0100\n      exp\n      dup2\n      sload\n      dup2\n      0xff\n      mul\n      not\n      and\n      swap1\n      dup4\n      iszero\n      iszero\n      mul\n      or\n      swap1\n      sstore\n      pop\n        /* \"scripts/medical_ledger.sol\":1088:1429  if (roles[msg.sender] == Role.Patient) {... */\n      jump(tag_64)\n    tag_59:\n        /* \"scripts/medical_ledger.sol\":1228:1239  Role.Doctor */\n      0x01\n        /* \"scripts/medical_ledger.sol\":1207:1239  roles[msg.sender] == Role.Doctor */\n      0x03\n      dup2\n      gt\n      iszero\n      tag_65\n      jumpi\n      tag_66\n      tag_45\n      jump\t// in\n    tag_66:\n    tag_65:\n        /* \"scripts/medical_ledger.sol\":1207:1212  roles */\n      0x00\n        /* \"scripts/medical_ledger.sol\":1207:1224  roles[msg.sender] */\n      dup1\n        /* \"scripts/medical_ledger.sol\":1213:1223  msg.sender */\n      caller\n        /* \"scripts/medical_ledger.sol\":1207:1224  roles[msg.sender] */\n      0xffffffffffffffffffffffffffffffffffffffff\n      and\n      0xffffffffffffffffffffffffffffffffffffffff\n      and\n      dup2\n      mstore\n      0x20\n      add\n      swap1\n      dup2\n      mstore\n      0x20\n      add\n      0x00\n      keccak256\n      0x00\n      swap1\n      sload\n      swap1\n      0x0100\n      exp\n      swap1\n      div\n      0xff\n      and\n        /* \"scripts/medical_ledger.sol\":1207:1239  roles[msg.sender] == Role.Doctor */\n      0x03\n      dup2\n      gt\n      iszero\n      tag_67\n      jumpi\n      tag_68\n      tag_45\n      jump\t// in\n    tag_68:\n    tag_67:\n      sub\n        /* \"scripts/medical_ledger.sol\":1203:1429  if (roles[msg.sender] == Role.Doctor) {... */\n      tag_69\n      jumpi\n        /* \"scripts/medical_ledger.sol\":1295:1299  true */\n      0x01\n        /* \"scripts/medical_ledger.sol\":1255:1262  records */\n      dup1\n        /* \"scripts/medical_ledger.sol\":1255:1269  records[_user] */\n      0x00\n        /* \"scripts/medical_ledger.sol\":1263:1268  _user */\n      dup5\n        /* \"scripts/medical_ledger.sol\":1255:1269  records[_user] */\n      0xffffffffffffffffffffffffffffffffffffffff\n      and\n      0xffffffffffffffffffffffffffffffffffffffff\n      and\n      dup2\n      mstore\n      0x20\n      add\n      swap1\n      dup2\n      mstore\n      0x20\n      add\n      0x00\n      keccak256\n        /* \"scripts/medical_ledger.sol\":1270:1276  _index */\n      dup3\n        /* \"scripts/medical_ledger.sol\":1255:1277  records[_user][_index] */\n      dup2\n      sload\n      dup2\n      lt\n      tag_70\n      jumpi\n      tag_71\n      tag_62\n      jump\t// in\n    tag_71:\n    tag_70:\n      swap1\n      0x00\n      mstore\n      keccak256(0x00, 0x20)\n      swap1\n      0x02\n      mul\n      add\n        /* \"scripts/medical_ledger.sol\":1255:1292  records[_user][_index].doctorApproval */\n      0x01\n      add\n      0x00\n        /* \"scripts/medical_ledger.sol\":1255:1299  records[_user][_index].doctorApproval = true */\n      0x0100\n      exp\n      dup2\n      sload\n      dup2\n      0xff\n      mul\n      not\n      and\n      swap1\n      dup4\n      iszero\n      iszero\n      mul\n      or\n      swap1\n      sstore\n      pop\n        /* \"scripts/medical_ledger.sol\":1203:1429  if (roles[msg.sender] == Role.Doctor) {... */\n      jump(tag_73)\n    tag_69:\n        /* \"scripts/medical_ledger.sol\":1341:1355  Role.Insurance */\n      0x03\n        /* \"scripts/medical_ledger.sol\":1320:1355  roles[msg.sender] == Role.Insurance */\n      dup1\n      dup2\n      gt\n      iszero\n      tag_74\n      jumpi\n      tag_75\n      tag_45\n      jump\t// in\n    tag_75:\n    tag_74:\n        /* \"scripts/medical_ledger.sol\":1320:1325  roles */\n      0x00\n        /* \"scripts/medical_ledger.sol\":1320:1337  roles[msg.sender] */\n      dup1\n        /* \"scripts/medical_ledger.sol\":1326:1336  msg.sender */\n      caller\n        /* \"scripts/medical_ledger.sol\":1320:1337  roles[msg.sender] */\n      0xffffffffffffffffffffffffffffffffffffffff\n      and\n      0xffffffffffffffffffffffffffffffffffffffff\n      and\n      dup2\n      mstore\n      0x20\n      add\n      swap1\n      dup2\n      mstore\n      0x20\n      add\n      0x00\n      keccak256\n      0x00\n      swap1\n      sload\n      swap1\n      0x0100\n      exp\n      swap1\n      div\n      0xff\n      and\n        /* \"scripts/medical_ledger.sol\":1320:1355  roles[msg.sender] == Role.Insurance */\n      0x03\n      dup2\n      gt\n      iszero\n      tag_76\n      jumpi\n      tag_77\n      tag_45\n      jump\t// in\n    tag_77:\n    tag_76:\n      sub\n        /* \"scripts/medical_ledger.sol\":1316:1429  if (roles[msg.sender] == Role.Insurance) {... */\n      tag_78\n      jumpi\n        /* \"scripts/medical_ledger.sol\":1414:1418  true */\n      0x01\n        /* \"scripts/medical_ledger.sol\":1371:1378  records */\n      dup1\n        /* \"scripts/medical_ledger.sol\":1371:1385  records[_user] */\n      0x00\n        /* \"scripts/medical_ledger.sol\":1379:1384  _user */\n      dup5\n        /* \"scripts/medical_ledger.sol\":1371:1385  records[_user] */\n      0xffffffffffffffffffffffffffffffffffffffff\n      and\n      0xffffffffffffffffffffffffffffffffffffffff\n      and\n      dup2\n      mstore\n      0x20\n      add\n      swap1\n      dup2\n      mstore\n      0x20\n      add\n      0x00\n      keccak256\n        /* \"scripts/medical_ledger.sol\":1386:1392  _index */\n      dup3\n        /* \"scripts/medical_ledger.sol\":1371:1393  records[_user][_index] */\n      dup2\n      sload\n      dup2\n      lt\n      tag_79\n      jumpi\n      tag_80\n      tag_62\n      jump\t// in\n    tag_80:\n    tag_79:\n      swap1\n      0x00\n      mstore\n      keccak256(0x00, 0x20)\n      swap1\n      0x02\n      mul\n      add\n        /* \"scripts/medical_ledger.sol\":1371:1411  records[_user][_index].insuranceApproval */\n      0x01\n      add\n      0x02\n        /* \"scripts/medical_ledger.sol\":1371:1418  records[_user][_index].insuranceApproval = true */\n      0x0100\n      exp\n      dup2\n      sload\n      dup2\n      0xff\n      mul\n      not\n      and\n      swap1\n      dup4\n      iszero\n      iszero\n      mul\n      or\n      swap1\n      sstore\n      pop\n        /* \"scripts/medical_ledger.sol\":1316:1429  if (roles[msg.sender] == Role.Insurance) {... */\n    tag_78:\n        /* \"scripts/medical_ledger.sol\":1203:1429  if (roles[msg.sender] == Role.Doctor) {... */\n    tag_73:\n        /* \"scripts/medical_ledger.sol\":1088:1429  if (roles[msg.sender] == Role.Patient) {... */\n    tag_64:\n        /* \"scripts/medical_ledger.sol\":930:1435  function approveRecord(address _user, uint _index) public onlyParticipants {... */\n      pop\n      pop\n      jump\t// out\n        /* \"scripts/medical_ledger.sol\":628:719  function assignRole(address _user, Role _role) public {... */\n    tag_18:\n        /* \"scripts/medical_ledger.sol\":707:712  _role */\n      dup1\n        /* \"scripts/medical_ledger.sol\":692:697  roles */\n      0x00\n        /* \"scripts/medical_ledger.sol\":692:704  roles[_user] */\n      dup1\n        /* \"scripts/medical_ledger.sol\":698:703  _user */\n      dup5\n        /* \"scripts/medical_ledger.sol\":692:704  roles[_user] */\n      0xffffffffffffffffffffffffffffffffffffffff\n      and\n      0xffffffffffffffffffffffffffffffffffffffff\n      and\n      dup2\n      mstore\n      0x20\n      add\n      swap1\n      dup2\n      mstore\n      0x20\n      add\n      0x00\n      keccak256\n      0x00\n        /* \"scripts/medical_ledger.sol\":692:712  roles[_user] = _role */\n      0x0100\n      exp\n      dup2\n      sload\n      dup2\n      0xff\n      mul\n      not\n      and\n      swap1\n      dup4\n      0x03\n      dup2\n      gt\n      iszero\n      tag_83\n      jumpi\n      tag_84\n      tag_45\n      jump\t// in\n    tag_84:\n    tag_83:\n      mul\n      or\n      swap1\n      sstore\n      pop\n        /* \"scripts/medical_ledger.sol\":628:719  function assignRole(address _user, Role _role) public {... */\n      pop\n      pop\n      jump\t// out\n        /* \"scripts/medical_ledger.sol\":729:920  function addRecord(address _user, string memory _data) public onlyParticipants {... */\n    tag_22:\n        /* \"scripts/medical_ledger.sol\":572:581  Role.None */\n      0x00\n        /* \"scripts/medical_ledger.sol\":551:581  roles[msg.sender] != Role.None */\n      0x03\n      dup2\n      gt\n      iszero\n      tag_86\n      jumpi\n      tag_87\n      tag_45\n      jump\t// in\n    tag_87:\n    tag_86:\n        /* \"scripts/medical_ledger.sol\":551:556  roles */\n      0x00\n        /* \"scripts/medical_ledger.sol\":551:568  roles[msg.sender] */\n      dup1\n        /* \"scripts/medical_ledger.sol\":557:567  msg.sender */\n      caller\n        /* \"scripts/medical_ledger.sol\":551:568  roles[msg.sender] */\n      0xffffffffffffffffffffffffffffffffffffffff\n      and\n      0xffffffffffffffffffffffffffffffffffffffff\n      and\n      dup2\n      mstore\n      0x20\n      add\n      swap1\n      dup2\n      mstore\n      0x20\n      add\n      0x00\n      keccak256\n      0x00\n      swap1\n      sload\n      swap1\n      0x0100\n      exp\n      swap1\n      div\n      0xff\n      and\n        /* \"scripts/medical_ledger.sol\":551:581  roles[msg.sender] != Role.None */\n      0x03\n      dup2\n      gt\n      iszero\n      tag_88\n      jumpi\n      tag_89\n      tag_45\n      jump\t// in\n    tag_89:\n    tag_88:\n      sub\n        /* \"scripts/medical_ledger.sol\":543:600  require(roles[msg.sender] != Role.None, \"Not authorized\") */\n      tag_90\n      jumpi\n      mload(0x40)\n      0x08c379a000000000000000000000000000000000000000000000000000000000\n      dup2\n      mstore\n      0x04\n      add\n      tag_91\n      swap1\n      tag_50\n      jump\t// in\n    tag_91:\n      mload(0x40)\n      dup1\n      swap2\n      sub\n      swap1\n      revert\n    tag_90:\n        /* \"scripts/medical_ledger.sol\":818:825  records */\n      0x01\n        /* \"scripts/medical_ledger.sol\":818:832  records[_user] */\n      0x00\n        /* \"scripts/medical_ledger.sol\":826:831  _user */\n      dup4\n        /* \"scripts/medical_ledger.sol\":818:832  records[_user] */\n      0xffffffffffffffffffffffffffffffffffffffff\n      and\n      0xffffffffffffffffffffffffffffffffffffffff\n      and\n      dup2\n      mstore\n      0x20\n      add\n      swap1\n      dup2\n      mstore\n      0x20\n      add\n      0x00\n      keccak256\n        /* \"scripts/medical_ledger.sol\":838:872  Record(_data, false, false, false) */\n      mload(0x40)\n      dup1\n      0x80\n      add\n      0x40\n      mstore\n      dup1\n        /* \"scripts/medical_ledger.sol\":845:850  _data */\n      dup4\n        /* \"scripts/medical_ledger.sol\":838:872  Record(_data, false, false, false) */\n      dup2\n      mstore\n      0x20\n      add\n        /* \"scripts/medical_ledger.sol\":852:857  false */\n      0x00\n        /* \"scripts/medical_ledger.sol\":838:872  Record(_data, false, false, false) */\n      iszero\n      iszero\n      dup2\n      mstore\n      0x20\n      add\n        /* \"scripts/medical_ledger.sol\":859:864  false */\n      0x00\n        /* \"scripts/medical_ledger.sol\":838:872  Record(_data, false, false, false) */\n      iszero\n      iszero\n      dup2\n      mstore\n      0x20\n      add\n        /* \"scripts/medical_ledger.sol\":866:871  false */\n      0x00\n        /* \"scripts/medical_ledger.sol\":838:872  Record(_data, false, false, false) */\n      iszero\n      iszero\n      dup2\n      mstore\n      pop\n        /* \"scripts/medical_ledger.sol\":818:873  records[_user].push(Record(_data, false, false, false)) */\n      swap1\n      dup1\n      0x01\n      dup2\n      sload\n      add\n      dup1\n      dup3\n      sstore\n      dup1\n      swap2\n      pop\n      pop\n      0x01\n      swap1\n      sub\n      swap1\n      0x00\n      mstore\n      keccak256(0x00, 0x20)\n      swap1\n      0x02\n      mul\n      add\n      0x00\n      swap1\n      swap2\n      swap1\n      swap2\n      swap1\n      swap2\n      pop\n      0x00\n      dup3\n      add\n      mload\n      dup2\n      0x00\n      add\n      swap1\n      dup2\n      tag_94\n      swap2\n      swap1\n      tag_95\n      jump\t// in\n    tag_94:\n      pop\n      0x20\n      dup3\n      add\n      mload\n      dup2\n      0x01\n      add\n      exp(0x0100, 0x00)\n      dup2\n      sload\n      dup2\n      0xff\n      mul\n      not\n      and\n      swap1\n      dup4\n      iszero\n      iszero\n      mul\n      or\n      swap1\n      sstore\n      pop\n      0x40\n      dup3\n      add\n      mload\n      dup2\n      0x01\n      add\n      exp(0x0100, 0x01)\n      dup2\n      sload\n      dup2\n      0xff\n      mul\n      not\n      and\n      swap1\n      dup4\n      iszero\n      iszero\n      mul\n      or\n      swap1\n      sstore\n      pop\n      0x60\n      dup3\n      add\n      mload\n      dup2\n      0x01\n      add\n      exp(0x0100, 0x02)\n      dup2\n      sload\n      dup2\n      0xff\n      mul\n      not\n      and\n      swap1\n      dup4\n      iszero\n      iszero\n      mul\n      or\n      swap1\n      sstore\n      pop\n      pop\n      pop\n        /* \"scripts/medical_ledger.sol\":900:905  _user */\n      dup2\n        /* \"scripts/medical_ledger.sol\":888:913  RecordAdded(_user, _data) */\n      0xffffffffffffffffffffffffffffffffffffffff\n      and\n      0x44626cfec8a165f72396cc5e247c6b96279f8c205a8d07c390df7aa5806205fa\n        /* \"scripts/medical_ledger.sol\":907:912  _data */\n      dup3\n        /* \"scripts/medical_ledger.sol\":888:913  RecordAdded(_user, _data) */\n      mload(0x40)\n      tag_96\n      swap2\n      swap1\n      tag_97\n      jump\t// in\n    tag_96:\n      mload(0x40)\n      dup1\n      swap2\n      sub\n      swap1\n      log2\n        /* \"scripts/medical_ledger.sol\":729:920  function addRecord(address _user, string memory _data) public onlyParticipants {... */\n      pop\n      pop\n      jump\t// out\n        /* \"scripts/medical_ledger.sol\":329:372  mapping(address => Record[]) public records */\n    tag_25:\n      mstore(0x20, 0x01)\n      dup2\n      0x00\n      mstore\n      keccak256(0x00, 0x40)\n      dup2\n      dup2\n      sload\n      dup2\n      lt\n      tag_98\n      jumpi\n      0x00\n      dup1\n      revert\n    tag_98:\n      swap1\n      0x00\n      mstore\n      keccak256(0x00, 0x20)\n      swap1\n      0x02\n      mul\n      add\n      0x00\n      swap2\n      pop\n      swap2\n      pop\n      pop\n      dup1\n      0x00\n      add\n      dup1\n      sload\n      tag_100\n      swap1\n      tag_101\n      jump\t// in\n    tag_100:\n      dup1\n      0x1f\n      add\n      0x20\n      dup1\n      swap2\n      div\n      mul\n      0x20\n      add\n      mload(0x40)\n      swap1\n      dup2\n      add\n      0x40\n      mstore\n      dup1\n      swap3\n      swap2\n      swap1\n      dup2\n      dup2\n      mstore\n      0x20\n      add\n      dup3\n      dup1\n      sload\n      tag_102\n      swap1\n      tag_101\n      jump\t// in\n    tag_102:\n      dup1\n      iszero\n      tag_103\n      jumpi\n      dup1\n      0x1f\n      lt\n      tag_104\n      jumpi\n      0x0100\n      dup1\n      dup4\n      sload\n      div\n      mul\n      dup4\n      mstore\n      swap2\n      0x20\n      add\n      swap2\n      jump(tag_103)\n    tag_104:\n      dup3\n      add\n      swap2\n      swap1\n      0x00\n      mstore\n      keccak256(0x00, 0x20)\n      swap1\n    tag_105:\n      dup2\n      sload\n      dup2\n      mstore\n      swap1\n      0x01\n      add\n      swap1\n      0x20\n      add\n      dup1\n      dup4\n      gt\n      tag_105\n      jumpi\n      dup3\n      swap1\n      sub\n      0x1f\n      and\n      dup3\n      add\n      swap2\n    tag_103:\n      pop\n      pop\n      pop\n      pop\n      pop\n      swap1\n      dup1\n      0x01\n      add\n      0x00\n      swap1\n      sload\n      swap1\n      0x0100\n      exp\n      swap1\n      div\n      0xff\n      and\n      swap1\n      dup1\n      0x01\n      add\n      0x01\n      swap1\n      sload\n      swap1\n      0x0100\n      exp\n      swap1\n      div\n      0xff\n      and\n      swap1\n      dup1\n      0x01\n      add\n      0x02\n      swap1\n      sload\n      swap1\n      0x0100\n      exp\n      swap1\n      div\n      0xff\n      and\n      swap1\n      pop\n      dup5\n      jump\t// out\n        /* \"scripts/medical_ledger.sol\":286:323  mapping(address => Role) public roles */\n    tag_31:\n      mstore(0x20, 0x00)\n      dup1\n      0x00\n      mstore\n      keccak256(0x00, 0x40)\n      0x00\n      swap2\n      pop\n      sload\n      swap1\n      0x0100\n      exp\n      swap1\n      div\n      0xff\n      and\n      dup2\n      jump\t// out\n        /* \"scripts/medical_ledger.sol\":1821:1932  function getRecords(address _user) public view returns (Record[] memory) {... */\n    tag_36:\n        /* \"scripts/medical_ledger.sol\":1877:1892  Record[] memory */\n      0x60\n        /* \"scripts/medical_ledger.sol\":1911:1918  records */\n      0x01\n        /* \"scripts/medical_ledger.sol\":1911:1925  records[_user] */\n      0x00\n        /* \"scripts/medical_ledger.sol\":1919:1924  _user */\n      dup4\n        /* \"scripts/medical_ledger.sol\":1911:1925  records[_user] */\n      0xffffffffffffffffffffffffffffffffffffffff\n      and\n      0xffffffffffffffffffffffffffffffffffffffff\n      and\n      dup2\n      mstore\n      0x20\n      add\n      swap1\n      dup2\n      mstore\n      0x20\n      add\n      0x00\n      keccak256\n        /* \"scripts/medical_ledger.sol\":1904:1925  return records[_user] */\n      dup1\n      sload\n      dup1\n      0x20\n      mul\n      0x20\n      add\n      mload(0x40)\n      swap1\n      dup2\n      add\n      0x40\n      mstore\n      dup1\n      swap3\n      swap2\n      swap1\n      dup2\n      dup2\n      mstore\n      0x20\n      add\n      0x00\n      swap1\n    tag_107:\n      dup3\n      dup3\n      lt\n      iszero\n      tag_108\n      jumpi\n      dup4\n      dup3\n      swap1\n      0x00\n      mstore\n      keccak256(0x00, 0x20)\n      swap1\n      0x02\n      mul\n      add\n      mload(0x40)\n      dup1\n      0x80\n      add\n      0x40\n      mstore\n      swap1\n      dup2\n      0x00\n      dup3\n      add\n      dup1\n      sload\n      tag_110\n      swap1\n      tag_101\n      jump\t// in\n    tag_110:\n      dup1\n      0x1f\n      add\n      0x20\n      dup1\n      swap2\n      div\n      mul\n      0x20\n      add\n      mload(0x40)\n      swap1\n      dup2\n      add\n      0x40\n      mstore\n      dup1\n      swap3\n      swap2\n      swap1\n      dup2\n      dup2\n      mstore\n      0x20\n      add\n      dup3\n      dup1\n      sload\n      tag_111\n      swap1\n      tag_101\n      jump\t// in\n    tag_111:\n      dup1\n      iszero\n      tag_112\n      jumpi\n      dup1\n      0x1f\n      lt\n      tag_113\n      jumpi\n      0x0100\n      dup1\n      dup4\n      sload\n      div\n      mul\n      dup4\n      mstore\n      swap2\n      0x20\n      add\n      swap2\n      jump(tag_112)\n    tag_113:\n      dup3\n      add\n      swap2\n      swap1\n      0x00\n      mstore\n      keccak256(0x00, 0x20)\n      swap1\n    tag_114:\n      dup2\n      sload\n      dup2\n      mstore\n      swap1\n      0x01\n      add\n      swap1\n      0x20\n      add\n      dup1\n      dup4\n      gt\n      tag_114\n      jumpi\n      dup3\n      swap1\n      sub\n      0x1f\n      and\n      dup3\n      add\n      swap2\n    tag_112:\n      pop\n      pop\n      pop\n      pop\n      pop\n      dup2\n      mstore\n      0x20\n      add\n      0x01\n      dup3\n      add\n      0x00\n      swap1\n      sload\n      swap1\n      0x0100\n      exp\n      swap1\n      div\n      0xff\n      and\n      iszero\n      iszero\n      iszero\n      iszero\n      dup2\n      mstore\n      0x20\n      add\n      0x01\n      dup3\n      add\n      0x01\n      swap1\n      sload\n      swap1\n      0x0100\n      exp\n      swap1\n      div\n      0xff\n      and\n      iszero\n      iszero\n      iszero\n      iszero\n      dup2\n      mstore\n      0x20\n      add\n      0x01\n      dup3\n      add\n      0x02\n      swap1\n      sload\n      swap1\n      0x0100\n      exp\n      swap1\n      div\n      0xff\n      and\n      iszero\n      iszero\n      iszero\n      iszero\n      dup2\n      mstore\n      pop\n      pop\n      dup2\n      mstore\n      0x20\n      add\n      swap1\n      0x01\n      add\n      swap1\n      jump(tag_107)\n    tag_108:\n      pop\n      pop\n      pop\n      pop\n      swap1\n      pop\n        /* \"scripts/medical_ledger.sol\":1821:1932  function getRecords(address _user) public view returns (Record[] memory) {... */\n      swap2\n      swap1\n      pop\n      jump\t// out\n        /* \"scripts/medical_ledger.sol\":1445:1811  function revokeRecord(address _user, uint _index) public onlyParticipants {... */\n    tag_41:\n        /* \"scripts/medical_ledger.sol\":572:581  Role.None */\n      0x00\n        /* \"scripts/medical_ledger.sol\":551:581  roles[msg.sender] != Role.None */\n      0x03\n      dup2\n      gt\n      iszero\n      tag_116\n      jumpi\n      tag_117\n      tag_45\n      jump\t// in\n    tag_117:\n    tag_116:\n        /* \"scripts/medical_ledger.sol\":551:556  roles */\n      0x00\n        /* \"scripts/medical_ledger.sol\":551:568  roles[msg.sender] */\n      dup1\n        /* \"scripts/medical_ledger.sol\":557:567  msg.sender */\n      caller\n        /* \"scripts/medical_ledger.sol\":551:568  roles[msg.sender] */\n      0xffffffffffffffffffffffffffffffffffffffff\n      and\n      0xffffffffffffffffffffffffffffffffffffffff\n      and\n      dup2\n      mstore\n      0x20\n      add\n      swap1\n      dup2\n      mstore\n      0x20\n      add\n      0x00\n      keccak256\n      0x00\n      swap1\n      sload\n      swap1\n      0x0100\n      exp\n      swap1\n      div\n      0xff\n      and\n        /* \"scripts/medical_ledger.sol\":551:581  roles[msg.sender] != Role.None */\n      0x03\n      dup2\n      gt\n      iszero\n      tag_118\n      jumpi\n      tag_119\n      tag_45\n      jump\t// in\n    tag_119:\n    tag_118:\n      sub\n        /* \"scripts/medical_ledger.sol\":543:600  require(roles[msg.sender] != Role.None, \"Not authorized\") */\n      tag_120\n      jumpi\n      mload(0x40)\n      0x08c379a000000000000000000000000000000000000000000000000000000000\n      dup2\n      mstore\n      0x04\n      add\n      tag_121\n      swap1\n      tag_50\n      jump\t// in\n    tag_121:\n      mload(0x40)\n      dup1\n      swap2\n      sub\n      swap1\n      revert\n    tag_120:\n        /* \"scripts/medical_ledger.sol\":1546:1553  records */\n      0x01\n        /* \"scripts/medical_ledger.sol\":1546:1560  records[_user] */\n      0x00\n        /* \"scripts/medical_ledger.sol\":1554:1559  _user */\n      dup4\n        /* \"scripts/medical_ledger.sol\":1546:1560  records[_user] */\n      0xffffffffffffffffffffffffffffffffffffffff\n      and\n      0xffffffffffffffffffffffffffffffffffffffff\n      and\n      dup2\n      mstore\n      0x20\n      add\n      swap1\n      dup2\n      mstore\n      0x20\n      add\n      0x00\n      keccak256\n        /* \"scripts/medical_ledger.sol\":1546:1567  records[_user].length */\n      dup1\n      sload\n      swap1\n      pop\n        /* \"scripts/medical_ledger.sol\":1537:1543  _index */\n      dup2\n        /* \"scripts/medical_ledger.sol\":1537:1567  _index < records[_user].length */\n      lt\n        /* \"scripts/medical_ledger.sol\":1529:1592  require(_index < records[_user].length, \"Invalid record index\") */\n      tag_123\n      jumpi\n      mload(0x40)\n      0x08c379a000000000000000000000000000000000000000000000000000000000\n      dup2\n      mstore\n      0x04\n      add\n      tag_124\n      swap1\n      tag_54\n      jump\t// in\n    tag_124:\n      mload(0x40)\n      dup1\n      swap2\n      sub\n      swap1\n      revert\n    tag_123:\n        /* \"scripts/medical_ledger.sol\":1642:1647  false */\n      0x00\n        /* \"scripts/medical_ledger.sol\":1602:1609  records */\n      0x01\n        /* \"scripts/medical_ledger.sol\":1602:1616  records[_user] */\n      0x00\n        /* \"scripts/medical_ledger.sol\":1610:1615  _user */\n      dup5\n        /* \"scripts/medical_ledger.sol\":1602:1616  records[_user] */\n      0xffffffffffffffffffffffffffffffffffffffff\n      and\n      0xffffffffffffffffffffffffffffffffffffffff\n      and\n      dup2\n      mstore\n      0x20\n      add\n      swap1\n      dup2\n      mstore\n      0x20\n      add\n      0x00\n      keccak256\n        /* \"scripts/medical_ledger.sol\":1617:1623  _index */\n      dup3\n        /* \"scripts/medical_ledger.sol\":1602:1624  records[_user][_index] */\n      dup2\n      sload\n      dup2\n      lt\n      tag_125\n      jumpi\n      tag_126\n      tag_62\n      jump\t// in\n    tag_126:\n    tag_125:\n      swap1\n      0x00\n      mstore\n      keccak256(0x00, 0x20)\n      swap1\n      0x02\n      mul\n      add\n        /* \"scripts/medical_ledger.sol\":1602:1639  records[_user][_index].doctorApproval */\n      0x01\n      add\n      0x00\n        /* \"scripts/medical_ledger.sol\":1602:1647  records[_user][_index].doctorApproval = false */\n      0x0100\n      exp\n      dup2\n      sload\n      dup2\n      0xff\n      mul\n      not\n      and\n      swap1\n      dup4\n      iszero\n      iszero\n      mul\n      or\n      swap1\n      sstore\n      pop\n        /* \"scripts/medical_ledger.sol\":1698:1703  false */\n      0x00\n        /* \"scripts/medical_ledger.sol\":1657:1664  records */\n      0x01\n        /* \"scripts/medical_ledger.sol\":1657:1671  records[_user] */\n      0x00\n        /* \"scripts/medical_ledger.sol\":1665:1670  _user */\n      dup5\n        /* \"scripts/medical_ledger.sol\":1657:1671  records[_user] */\n      0xffffffffffffffffffffffffffffffffffffffff\n      and\n      0xffffffffffffffffffffffffffffffffffffffff\n      and\n      dup2\n      mstore\n      0x20\n      add\n      swap1\n      dup2\n      mstore\n      0x20\n      add\n      0x00\n      keccak256\n        /* \"scripts/medical_ledger.sol\":1672:1678  _index */\n      dup3\n        /* \"scripts/medical_ledger.sol\":1657:1679  records[_user][_index] */\n      dup2\n      sload\n      dup2\n      lt\n      tag_128\n      jumpi\n      tag_129\n      tag_62\n      jump\t// in\n    tag_129:\n    tag_128:\n      swap1\n      0x00\n      mstore\n      keccak256(0x00, 0x20)\n      swap1\n      0x02\n      mul\n      add\n        /* \"scripts/medical_ledger.sol\":1657:1695  records[_user][_index].patientApproval */\n      0x01\n      add\n      0x01\n        /* \"scripts/medical_ledger.sol\":1657:1703  records[_user][_index].patientApproval = false */\n      0x0100\n      exp\n      dup2\n      sload\n      dup2\n      0xff\n      mul\n      not\n      and\n      swap1\n      dup4\n      iszero\n      iszero\n      mul\n      or\n      swap1\n      sstore\n      pop\n        /* \"scripts/medical_ledger.sol\":1756:1761  false */\n      0x00\n        /* \"scripts/medical_ledger.sol\":1713:1720  records */\n      0x01\n        /* \"scripts/medical_ledger.sol\":1713:1727  records[_user] */\n      0x00\n        /* \"scripts/medical_ledger.sol\":1721:1726  _user */\n      dup5\n        /* \"scripts/medical_ledger.sol\":1713:1727  records[_user] */\n      0xffffffffffffffffffffffffffffffffffffffff\n      and\n      0xffffffffffffffffffffffffffffffffffffffff\n      and\n      dup2\n      mstore\n      0x20\n      add\n      swap1\n      dup2\n      mstore\n      0x20\n      add\n      0x00\n      keccak256\n        /* \"scripts/medical_ledger.sol\":1728:1734  _index */\n      dup3\n        /* \"scripts/medical_ledger.sol\":1713:1735  records[_user][_index] */\n      dup2\n      sload\n      dup2\n      lt\n      tag_131\n      jumpi\n      tag_132\n      tag_62\n      jump\t// in\n    tag_132:\n    tag_131:\n      swap1\n      0x00\n      mstore\n      keccak256(0x00, 0x20)\n      swap1\n      0x02\n      mul\n      add\n        /* \"scripts/medical_ledger.sol\":1713:1753  records[_user][_index].insuranceApproval */\n      0x01\n      add\n      0x02\n        /* \"scripts/medical_ledger.sol\":1713:1761  records[_user][_index].insuranceApproval = false */\n      0x0100\n      exp\n      dup2\n      sload\n      dup2\n      0xff\n      mul\n      not\n      and\n      swap1\n      dup4\n      iszero\n      iszero\n      mul\n      or\n      swap1\n      sstore\n      pop\n        /* \"scripts/medical_ledger.sol\":1790:1795  _user */\n      dup2\n        /* \"scripts/medical_ledger.sol\":1776:1804  RecordRevoked(_user, _index) */\n      0xffffffffffffffffffffffffffffffffffffffff\n      and\n      0x867ee34e7b32b226f87f4418c683b900d2c5b5ca18afd3012ed61824b530662a\n        /* \"scripts/medical_ledger.sol\":1797:1803  _index */\n      dup3\n        /* \"scripts/medical_ledger.sol\":1776:1804  RecordRevoked(_user, _index) */\n      mload(0x40)\n      tag_134\n      swap2\n      swap1\n      tag_135\n      jump\t// in\n    tag_134:\n      mload(0x40)\n      dup1\n      swap2\n      sub\n      swap1\n      log2\n        /* \"scripts/medical_ledger.sol\":1445:1811  function revokeRecord(address _user, uint _index) public onlyParticipants {... */\n      pop\n      pop\n      jump\t// out\n        /* \"#utility.yul\":7:82   */\n    tag_136:\n        /* \"#utility.yul\":40:46   */\n      0x00\n        /* \"#utility.yul\":73:75   */\n      0x40\n        /* \"#utility.yul\":67:76   */\n      mload\n        /* \"#utility.yul\":57:76   */\n      swap1\n      pop\n        /* \"#utility.yul\":7:82   */\n      swap1\n      jump\t// out\n        /* \"#utility.yul\":88:205   */\n    tag_137:\n        /* \"#utility.yul\":197:198   */\n      0x00\n        /* \"#utility.yul\":194:195   */\n      dup1\n        /* \"#utility.yul\":187:199   */\n      revert\n        /* \"#utility.yul\":211:328   */\n    tag_138:\n        /* \"#utility.yul\":320:321   */\n      0x00\n        /* \"#utility.yul\":317:318   */\n      dup1\n        /* \"#utility.yul\":310:322   */\n      revert\n        /* \"#utility.yul\":334:460   */\n    tag_139:\n        /* \"#utility.yul\":371:378   */\n      0x00\n        /* \"#utility.yul\":411:453   */\n      0xffffffffffffffffffffffffffffffffffffffff\n        /* \"#utility.yul\":404:409   */\n      dup3\n        /* \"#utility.yul\":400:454   */\n      and\n        /* \"#utility.yul\":389:454   */\n      swap1\n      pop\n        /* \"#utility.yul\":334:460   */\n      swap2\n      swap1\n      pop\n      jump\t// out\n        /* \"#utility.yul\":466:562   */\n    tag_140:\n        /* \"#utility.yul\":503:510   */\n      0x00\n        /* \"#utility.yul\":532:556   */\n      tag_205\n        /* \"#utility.yul\":550:555   */\n      dup3\n        /* \"#utility.yul\":532:556   */\n      tag_139\n      jump\t// in\n    tag_205:\n        /* \"#utility.yul\":521:556   */\n      swap1\n      pop\n        /* \"#utility.yul\":466:562   */\n      swap2\n      swap1\n      pop\n      jump\t// out\n        /* \"#utility.yul\":568:690   */\n    tag_141:\n        /* \"#utility.yul\":641:665   */\n      tag_207\n        /* \"#utility.yul\":659:664   */\n      dup2\n        /* \"#utility.yul\":641:665   */\n      tag_140\n      jump\t// in\n    tag_207:\n        /* \"#utility.yul\":634:639   */\n      dup2\n        /* \"#utility.yul\":631:666   */\n      eq\n        /* \"#utility.yul\":621:684   */\n      tag_208\n      jumpi\n        /* \"#utility.yul\":680:681   */\n      0x00\n        /* \"#utility.yul\":677:678   */\n      dup1\n        /* \"#utility.yul\":670:682   */\n      revert\n        /* \"#utility.yul\":621:684   */\n    tag_208:\n        /* \"#utility.yul\":568:690   */\n      pop\n      jump\t// out\n        /* \"#utility.yul\":696:835   */\n    tag_142:\n        /* \"#utility.yul\":742:747   */\n      0x00\n        /* \"#utility.yul\":780:786   */\n      dup2\n        /* \"#utility.yul\":767:787   */\n      calldataload\n        /* \"#utility.yul\":758:787   */\n      swap1\n      pop\n        /* \"#utility.yul\":796:829   */\n      tag_210\n        /* \"#utility.yul\":823:828   */\n      dup2\n        /* \"#utility.yul\":796:829   */\n      tag_141\n      jump\t// in\n    tag_210:\n        /* \"#utility.yul\":696:835   */\n      swap3\n      swap2\n      pop\n      pop\n      jump\t// out\n        /* \"#utility.yul\":841:918   */\n    tag_143:\n        /* \"#utility.yul\":878:885   */\n      0x00\n        /* \"#utility.yul\":907:912   */\n      dup2\n        /* \"#utility.yul\":896:912   */\n      swap1\n      pop\n        /* \"#utility.yul\":841:918   */\n      swap2\n      swap1\n      pop\n      jump\t// out\n        /* \"#utility.yul\":924:1046   */\n    tag_144:\n        /* \"#utility.yul\":997:1021   */\n      tag_213\n        /* \"#utility.yul\":1015:1020   */\n      dup2\n        /* \"#utility.yul\":997:1021   */\n      tag_143\n      jump\t// in\n    tag_213:\n        /* \"#utility.yul\":990:995   */\n      dup2\n        /* \"#utility.yul\":987:1022   */\n      eq\n        /* \"#utility.yul\":977:1040   */\n      tag_214\n      jumpi\n        /* \"#utility.yul\":1036:1037   */\n      0x00\n        /* \"#utility.yul\":1033:1034   */\n      dup1\n        /* \"#utility.yul\":1026:1038   */\n      revert\n        /* \"#utility.yul\":977:1040   */\n    tag_214:\n        /* \"#utility.yul\":924:1046   */\n      pop\n      jump\t// out\n        /* \"#utility.yul\":1052:1191   */\n    tag_145:\n        /* \"#utility.yul\":1098:1103   */\n      0x00\n        /* \"#utility.yul\":1136:1142   */\n      dup2\n        /* \"#utility.yul\":1123:1143   */\n      calldataload\n        /* \"#utility.yul\":1114:1143   */\n      swap1\n      pop\n        /* \"#utility.yul\":1152:1185   */\n      tag_216\n        /* \"#utility.yul\":1179:1184   */\n      dup2\n        /* \"#utility.yul\":1152:1185   */\n      tag_144\n      jump\t// in\n    tag_216:\n        /* \"#utility.yul\":1052:1191   */\n      swap3\n      swap2\n      pop\n      pop\n      jump\t// out\n        /* \"#utility.yul\":1197:1671   */\n    tag_13:\n        /* \"#utility.yul\":1265:1271   */\n      0x00\n        /* \"#utility.yul\":1273:1279   */\n      dup1\n        /* \"#utility.yul\":1322:1324   */\n      0x40\n        /* \"#utility.yul\":1310:1319   */\n      dup4\n        /* \"#utility.yul\":1301:1308   */\n      dup6\n        /* \"#utility.yul\":1297:1320   */\n      sub\n        /* \"#utility.yul\":1293:1325   */\n      slt\n        /* \"#utility.yul\":1290:1409   */\n      iszero\n      tag_218\n      jumpi\n        /* \"#utility.yul\":1328:1407   */\n      tag_219\n      tag_137\n      jump\t// in\n    tag_219:\n        /* \"#utility.yul\":1290:1409   */\n    tag_218:\n        /* \"#utility.yul\":1448:1449   */\n      0x00\n        /* \"#utility.yul\":1473:1526   */\n      tag_220\n        /* \"#utility.yul\":1518:1525   */\n      dup6\n        /* \"#utility.yul\":1509:1515   */\n      dup3\n        /* \"#utility.yul\":1498:1507   */\n      dup7\n        /* \"#utility.yul\":1494:1516   */\n      add\n        /* \"#utility.yul\":1473:1526   */\n      tag_142\n      jump\t// in\n    tag_220:\n        /* \"#utility.yul\":1463:1526   */\n      swap3\n      pop\n        /* \"#utility.yul\":1419:1536   */\n      pop\n        /* \"#utility.yul\":1575:1577   */\n      0x20\n        /* \"#utility.yul\":1601:1654   */\n      tag_221\n        /* \"#utility.yul\":1646:1653   */\n      dup6\n        /* \"#utility.yul\":1637:1643   */\n      dup3\n        /* \"#utility.yul\":1626:1635   */\n      dup7\n        /* \"#utility.yul\":1622:1644   */\n      add\n        /* \"#utility.yul\":1601:1654   */\n      tag_145\n      jump\t// in\n    tag_221:\n        /* \"#utility.yul\":1591:1654   */\n      swap2\n      pop\n        /* \"#utility.yul\":1546:1664   */\n      pop\n        /* \"#utility.yul\":1197:1671   */\n      swap3\n      pop\n      swap3\n      swap1\n      pop\n      jump\t// out\n        /* \"#utility.yul\":1677:1782   */\n    tag_146:\n        /* \"#utility.yul\":1756:1757   */\n      0x04\n        /* \"#utility.yul\":1749:1754   */\n      dup2\n        /* \"#utility.yul\":1746:1758   */\n      lt\n        /* \"#utility.yul\":1736:1776   */\n      tag_223\n      jumpi\n        /* \"#utility.yul\":1772:1773   */\n      0x00\n        /* \"#utility.yul\":1769:1770   */\n      dup1\n        /* \"#utility.yul\":1762:1774   */\n      revert\n        /* \"#utility.yul\":1736:1776   */\n    tag_223:\n        /* \"#utility.yul\":1677:1782   */\n      pop\n      jump\t// out\n        /* \"#utility.yul\":1788:1939   */\n    tag_147:\n        /* \"#utility.yul\":1840:1845   */\n      0x00\n        /* \"#utility.yul\":1878:1884   */\n      dup2\n        /* \"#utility.yul\":1865:1885   */\n      calldataload\n        /* \"#utility.yul\":1856:1885   */\n      swap1\n      pop\n        /* \"#utility.yul\":1894:1933   */\n      tag_225\n        /* \"#utility.yul\":1927:1932   */\n      dup2\n        /* \"#utility.yul\":1894:1933   */\n      tag_146\n      jump\t// in\n    tag_225:\n        /* \"#utility.yul\":1788:1939   */\n      swap3\n      swap2\n      pop\n      pop\n      jump\t// out\n        /* \"#utility.yul\":1945:2431   */\n    tag_17:\n        /* \"#utility.yul\":2019:2025   */\n      0x00\n        /* \"#utility.yul\":2027:2033   */\n      dup1\n        /* \"#utility.yul\":2076:2078   */\n      0x40\n        /* \"#utility.yul\":2064:2073   */\n      dup4\n        /* \"#utility.yul\":2055:2062   */\n      dup6\n        /* \"#utility.yul\":2051:2074   */\n      sub\n        /* \"#utility.yul\":2047:2079   */\n      slt\n        /* \"#utility.yul\":2044:2163   */\n      iszero\n      tag_227\n      jumpi\n        /* \"#utility.yul\":2082:2161   */\n      tag_228\n      tag_137\n      jump\t// in\n    tag_228:\n        /* \"#utility.yul\":2044:2163   */\n    tag_227:\n        /* \"#utility.yul\":2202:2203   */\n      0x00\n        /* \"#utility.yul\":2227:2280   */\n      tag_229\n        /* \"#utility.yul\":2272:2279   */\n      dup6\n        /* \"#utility.yul\":2263:2269   */\n      dup3\n        /* \"#utility.yul\":2252:2261   */\n      dup7\n        /* \"#utility.yul\":2248:2270   */\n      add\n        /* \"#utility.yul\":2227:2280   */\n      tag_142\n      jump\t// in\n    tag_229:\n        /* \"#utility.yul\":2217:2280   */\n      swap3\n      pop\n        /* \"#utility.yul\":2173:2290   */\n      pop\n        /* \"#utility.yul\":2329:2331   */\n      0x20\n        /* \"#utility.yul\":2355:2414   */\n      tag_230\n        /* \"#utility.yul\":2406:2413   */\n      dup6\n        /* \"#utility.yul\":2397:2403   */\n      dup3\n        /* \"#utility.yul\":2386:2395   */\n      dup7\n        /* \"#utility.yul\":2382:2404   */\n      add\n        /* \"#utility.yul\":2355:2414   */\n      tag_147\n      jump\t// in\n    tag_230:\n        /* \"#utility.yul\":2345:2414   */\n      swap2\n      pop\n        /* \"#utility.yul\":2300:2424   */\n      pop\n        /* \"#utility.yul\":1945:2431   */\n      swap3\n      pop\n      swap3\n      swap1\n      pop\n      jump\t// out\n        /* \"#utility.yul\":2437:2554   */\n    tag_148:\n        /* \"#utility.yul\":2546:2547   */\n      0x00\n        /* \"#utility.yul\":2543:2544   */\n      dup1\n        /* \"#utility.yul\":2536:2548   */\n      revert\n        /* \"#utility.yul\":2560:2677   */\n    tag_149:\n        /* \"#utility.yul\":2669:2670   */\n      0x00\n        /* \"#utility.yul\":2666:2667   */\n      dup1\n        /* \"#utility.yul\":2659:2671   */\n      revert\n        /* \"#utility.yul\":2683:2785   */\n    tag_150:\n        /* \"#utility.yul\":2724:2730   */\n      0x00\n        /* \"#utility.yul\":2775:2777   */\n      0x1f\n        /* \"#utility.yul\":2771:2778   */\n      not\n        /* \"#utility.yul\":2766:2768   */\n      0x1f\n        /* \"#utility.yul\":2759:2764   */\n      dup4\n        /* \"#utility.yul\":2755:2769   */\n      add\n        /* \"#utility.yul\":2751:2779   */\n      and\n        /* \"#utility.yul\":2741:2779   */\n      swap1\n      pop\n        /* \"#utility.yul\":2683:2785   */\n      swap2\n      swap1\n      pop\n      jump\t// out\n        /* \"#utility.yul\":2791:2971   */\n    tag_151:\n        /* \"#utility.yul\":2839:2916   */\n      0x4e487b7100000000000000000000000000000000000000000000000000000000\n        /* \"#utility.yul\":2836:2837   */\n      0x00\n        /* \"#utility.yul\":2829:2917   */\n      mstore\n        /* \"#utility.yul\":2936:2940   */\n      0x41\n        /* \"#utility.yul\":2933:2934   */\n      0x04\n        /* \"#utility.yul\":2926:2941   */\n      mstore\n        /* \"#utility.yul\":2960:2964   */\n      0x24\n        /* \"#utility.yul\":2957:2958   */\n      0x00\n        /* \"#utility.yul\":2950:2965   */\n      revert\n        /* \"#utility.yul\":2977:3258   */\n    tag_152:\n        /* \"#utility.yul\":3060:3087   */\n      tag_236\n        /* \"#utility.yul\":3082:3086   */\n      dup3\n        /* \"#utility.yul\":3060:3087   */\n      tag_150\n      jump\t// in\n    tag_236:\n        /* \"#utility.yul\":3052:3058   */\n      dup2\n        /* \"#utility.yul\":3048:3088   */\n      add\n        /* \"#utility.yul\":3190:3196   */\n      dup2\n        /* \"#utility.yul\":3178:3188   */\n      dup2\n        /* \"#utility.yul\":3175:3197   */\n      lt\n        /* \"#utility.yul\":3154:3172   */\n      0xffffffffffffffff\n        /* \"#utility.yul\":3142:3152   */\n      dup3\n        /* \"#utility.yul\":3139:3173   */\n      gt\n        /* \"#utility.yul\":3136:3198   */\n      or\n        /* \"#utility.yul\":3133:3221   */\n      iszero\n      tag_237\n      jumpi\n        /* \"#utility.yul\":3201:3219   */\n      tag_238\n      tag_151\n      jump\t// in\n    tag_238:\n        /* \"#utility.yul\":3133:3221   */\n    tag_237:\n        /* \"#utility.yul\":3241:3251   */\n      dup1\n        /* \"#utility.yul\":3237:3239   */\n      0x40\n        /* \"#utility.yul\":3230:3252   */\n      mstore\n        /* \"#utility.yul\":3020:3258   */\n      pop\n        /* \"#utility.yul\":2977:3258   */\n      pop\n      pop\n      jump\t// out\n        /* \"#utility.yul\":3264:3393   */\n    tag_153:\n        /* \"#utility.yul\":3298:3304   */\n      0x00\n        /* \"#utility.yul\":3325:3345   */\n      tag_240\n      tag_136\n      jump\t// in\n    tag_240:\n        /* \"#utility.yul\":3315:3345   */\n      swap1\n      pop\n        /* \"#utility.yul\":3354:3387   */\n      tag_241\n        /* \"#utility.yul\":3382:3386   */\n      dup3\n        /* \"#utility.yul\":3374:3380   */\n      dup3\n        /* \"#utility.yul\":3354:3387   */\n      tag_152\n      jump\t// in\n    tag_241:\n        /* \"#utility.yul\":3264:3393   */\n      swap2\n      swap1\n      pop\n      jump\t// out\n        /* \"#utility.yul\":3399:3707   */\n    tag_154:\n        /* \"#utility.yul\":3461:3465   */\n      0x00\n        /* \"#utility.yul\":3551:3569   */\n      0xffffffffffffffff\n        /* \"#utility.yul\":3543:3549   */\n      dup3\n        /* \"#utility.yul\":3540:3570   */\n      gt\n        /* \"#utility.yul\":3537:3593   */\n      iszero\n      tag_243\n      jumpi\n        /* \"#utility.yul\":3573:3591   */\n      tag_244\n      tag_151\n      jump\t// in\n    tag_244:\n        /* \"#utility.yul\":3537:3593   */\n    tag_243:\n        /* \"#utility.yul\":3611:3640   */\n      tag_245\n        /* \"#utility.yul\":3633:3639   */\n      dup3\n        /* \"#utility.yul\":3611:3640   */\n      tag_150\n      jump\t// in\n    tag_245:\n        /* \"#utility.yul\":3603:3640   */\n      swap1\n      pop\n        /* \"#utility.yul\":3695:3699   */\n      0x20\n        /* \"#utility.yul\":3689:3693   */\n      dup2\n        /* \"#utility.yul\":3685:3700   */\n      add\n        /* \"#utility.yul\":3677:3700   */\n      swap1\n      pop\n        /* \"#utility.yul\":3399:3707   */\n      swap2\n      swap1\n      pop\n      jump\t// out\n        /* \"#utility.yul\":3713:3861   */\n    tag_155:\n        /* \"#utility.yul\":3811:3817   */\n      dup3\n        /* \"#utility.yul\":3806:3809   */\n      dup2\n        /* \"#utility.yul\":3801:3804   */\n      dup4\n        /* \"#utility.yul\":3788:3818   */\n      calldatacopy\n        /* \"#utility.yul\":3852:3853   */\n      0x00\n        /* \"#utility.yul\":3843:3849   */\n      dup4\n        /* \"#utility.yul\":3838:3841   */\n      dup4\n        /* \"#utility.yul\":3834:3850   */\n      add\n        /* \"#utility.yul\":3827:3854   */\n      mstore\n        /* \"#utility.yul\":3713:3861   */\n      pop\n      pop\n      pop\n      jump\t// out\n        /* \"#utility.yul\":3867:4292   */\n    tag_156:\n        /* \"#utility.yul\":3945:3950   */\n      0x00\n        /* \"#utility.yul\":3970:4036   */\n      tag_248\n        /* \"#utility.yul\":3986:4035   */\n      tag_249\n        /* \"#utility.yul\":4028:4034   */\n      dup5\n        /* \"#utility.yul\":3986:4035   */\n      tag_154\n      jump\t// in\n    tag_249:\n        /* \"#utility.yul\":3970:4036   */\n      tag_153\n      jump\t// in\n    tag_248:\n        /* \"#utility.yul\":3961:4036   */\n      swap1\n      pop\n        /* \"#utility.yul\":4059:4065   */\n      dup3\n        /* \"#utility.yul\":4052:4057   */\n      dup2\n        /* \"#utility.yul\":4045:4066   */\n      mstore\n        /* \"#utility.yul\":4097:4101   */\n      0x20\n        /* \"#utility.yul\":4090:4095   */\n      dup2\n        /* \"#utility.yul\":4086:4102   */\n      add\n        /* \"#utility.yul\":4135:4138   */\n      dup5\n        /* \"#utility.yul\":4126:4132   */\n      dup5\n        /* \"#utility.yul\":4121:4124   */\n      dup5\n        /* \"#utility.yul\":4117:4133   */\n      add\n        /* \"#utility.yul\":4114:4139   */\n      gt\n        /* \"#utility.yul\":4111:4223   */\n      iszero\n      tag_250\n      jumpi\n        /* \"#utility.yul\":4142:4221   */\n      tag_251\n      tag_149\n      jump\t// in\n    tag_251:\n        /* \"#utility.yul\":4111:4223   */\n    tag_250:\n        /* \"#utility.yul\":4232:4286   */\n      tag_252\n        /* \"#utility.yul\":4279:4285   */\n      dup5\n        /* \"#utility.yul\":4274:4277   */\n      dup3\n        /* \"#utility.yul\":4269:4272   */\n      dup6\n        /* \"#utility.yul\":4232:4286   */\n      tag_155\n      jump\t// in\n    tag_252:\n        /* \"#utility.yul\":3951:4292   */\n      pop\n        /* \"#utility.yul\":3867:4292   */\n      swap4\n      swap3\n      pop\n      pop\n      pop\n      jump\t// out\n        /* \"#utility.yul\":4312:4652   */\n    tag_157:\n        /* \"#utility.yul\":4368:4373   */\n      0x00\n        /* \"#utility.yul\":4417:4420   */\n      dup3\n        /* \"#utility.yul\":4410:4414   */\n      0x1f\n        /* \"#utility.yul\":4402:4408   */\n      dup4\n        /* \"#utility.yul\":4398:4415   */\n      add\n        /* \"#utility.yul\":4394:4421   */\n      slt\n        /* \"#utility.yul\":4384:4506   */\n      tag_254\n      jumpi\n        /* \"#utility.yul\":4425:4504   */\n      tag_255\n      tag_148\n      jump\t// in\n    tag_255:\n        /* \"#utility.yul\":4384:4506   */\n    tag_254:\n        /* \"#utility.yul\":4542:4548   */\n      dup2\n        /* \"#utility.yul\":4529:4549   */\n      calldataload\n        /* \"#utility.yul\":4567:4646   */\n      tag_256\n        /* \"#utility.yul\":4642:4645   */\n      dup5\n        /* \"#utility.yul\":4634:4640   */\n      dup3\n        /* \"#utility.yul\":4627:4631   */\n      0x20\n        /* \"#utility.yul\":4619:4625   */\n      dup7\n        /* \"#utility.yul\":4615:4632   */\n      add\n        /* \"#utility.yul\":4567:4646   */\n      tag_156\n      jump\t// in\n    tag_256:\n        /* \"#utility.yul\":4558:4646   */\n      swap2\n      pop\n        /* \"#utility.yul\":4374:4652   */\n      pop\n        /* \"#utility.yul\":4312:4652   */\n      swap3\n      swap2\n      pop\n      pop\n      jump\t// out\n        /* \"#utility.yul\":4658:5312   */\n    tag_21:\n        /* \"#utility.yul\":4736:4742   */\n      0x00\n        /* \"#utility.yul\":4744:4750   */\n      dup1\n        /* \"#utility.yul\":4793:4795   */\n      0x40\n        /* \"#utility.yul\":4781:4790   */\n      dup4\n        /* \"#utility.yul\":4772:4779   */\n      dup6\n        /* \"#utility.yul\":4768:4791   */\n      sub\n        /* \"#utility.yul\":4764:4796   */\n      slt\n        /* \"#utility.yul\":4761:4880   */\n      iszero\n      tag_258\n      jumpi\n        /* \"#utility.yul\":4799:4878   */\n      tag_259\n      tag_137\n      jump\t// in\n    tag_259:\n        /* \"#utility.yul\":4761:4880   */\n    tag_258:\n        /* \"#utility.yul\":4919:4920   */\n      0x00\n        /* \"#utility.yul\":4944:4997   */\n      tag_260\n        /* \"#utility.yul\":4989:4996   */\n      dup6\n        /* \"#utility.yul\":4980:4986   */\n      dup3\n        /* \"#utility.yul\":4969:4978   */\n      dup7\n        /* \"#utility.yul\":4965:4987   */\n      add\n        /* \"#utility.yul\":4944:4997   */\n      tag_142\n      jump\t// in\n    tag_260:\n        /* \"#utility.yul\":4934:4997   */\n      swap3\n      pop\n        /* \"#utility.yul\":4890:5007   */\n      pop\n        /* \"#utility.yul\":5074:5076   */\n      0x20\n        /* \"#utility.yul\":5063:5072   */\n      dup4\n        /* \"#utility.yul\":5059:5077   */\n      add\n        /* \"#utility.yul\":5046:5078   */\n      calldataload\n        /* \"#utility.yul\":5105:5123   */\n      0xffffffffffffffff\n        /* \"#utility.yul\":5097:5103   */\n      dup2\n        /* \"#utility.yul\":5094:5124   */\n      gt\n        /* \"#utility.yul\":5091:5208   */\n      iszero\n      tag_261\n      jumpi\n        /* \"#utility.yul\":5127:5206   */\n      tag_262\n      tag_138\n      jump\t// in\n    tag_262:\n        /* \"#utility.yul\":5091:5208   */\n    tag_261:\n        /* \"#utility.yul\":5232:5295   */\n      tag_263\n        /* \"#utility.yul\":5287:5294   */\n      dup6\n        /* \"#utility.yul\":5278:5284   */\n      dup3\n        /* \"#utility.yul\":5267:5276   */\n      dup7\n        /* \"#utility.yul\":5263:5285   */\n      add\n        /* \"#utility.yul\":5232:5295   */\n      tag_157\n      jump\t// in\n    tag_263:\n        /* \"#utility.yul\":5222:5295   */\n      swap2\n      pop\n        /* \"#utility.yul\":5017:5305   */\n      pop\n        /* \"#utility.yul\":4658:5312   */\n      swap3\n      pop\n      swap3\n      swap1\n      pop\n      jump\t// out\n        /* \"#utility.yul\":5318:5417   */\n    tag_158:\n        /* \"#utility.yul\":5370:5376   */\n      0x00\n        /* \"#utility.yul\":5404:5409   */\n      dup2\n        /* \"#utility.yul\":5398:5410   */\n      mload\n        /* \"#utility.yul\":5388:5410   */\n      swap1\n      pop\n        /* \"#utility.yul\":5318:5417   */\n      swap2\n      swap1\n      pop\n      jump\t// out\n        /* \"#utility.yul\":5423:5592   */\n    tag_159:\n        /* \"#utility.yul\":5507:5518   */\n      0x00\n        /* \"#utility.yul\":5541:5547   */\n      dup3\n        /* \"#utility.yul\":5536:5539   */\n      dup3\n        /* \"#utility.yul\":5529:5548   */\n      mstore\n        /* \"#utility.yul\":5581:5585   */\n      0x20\n        /* \"#utility.yul\":5576:5579   */\n      dup3\n        /* \"#utility.yul\":5572:5586   */\n      add\n        /* \"#utility.yul\":5557:5586   */\n      swap1\n      pop\n        /* \"#utility.yul\":5423:5592   */\n      swap3\n      swap2\n      pop\n      pop\n      jump\t// out\n        /* \"#utility.yul\":5598:5737   */\n    tag_160:\n        /* \"#utility.yul\":5687:5693   */\n      dup3\n        /* \"#utility.yul\":5682:5685   */\n      dup2\n        /* \"#utility.yul\":5677:5680   */\n      dup4\n        /* \"#utility.yul\":5671:5694   */\n      mcopy\n        /* \"#utility.yul\":5728:5729   */\n      0x00\n        /* \"#utility.yul\":5719:5725   */\n      dup4\n        /* \"#utility.yul\":5714:5717   */\n      dup4\n        /* \"#utility.yul\":5710:5726   */\n      add\n        /* \"#utility.yul\":5703:5730   */\n      mstore\n        /* \"#utility.yul\":5598:5737   */\n      pop\n      pop\n      pop\n      jump\t// out\n        /* \"#utility.yul\":5743:6120   */\n    tag_161:\n        /* \"#utility.yul\":5831:5834   */\n      0x00\n        /* \"#utility.yul\":5859:5898   */\n      tag_268\n        /* \"#utility.yul\":5892:5897   */\n      dup3\n        /* \"#utility.yul\":5859:5898   */\n      tag_158\n      jump\t// in\n    tag_268:\n        /* \"#utility.yul\":5914:5985   */\n      tag_269\n        /* \"#utility.yul\":5978:5984   */\n      dup2\n        /* \"#utility.yul\":5973:5976   */\n      dup6\n        /* \"#utility.yul\":5914:5985   */\n      tag_159\n      jump\t// in\n    tag_269:\n        /* \"#utility.yul\":5907:5985   */\n      swap4\n      pop\n        /* \"#utility.yul\":5994:6059   */\n      tag_270\n        /* \"#utility.yul\":6052:6058   */\n      dup2\n        /* \"#utility.yul\":6047:6050   */\n      dup6\n        /* \"#utility.yul\":6040:6044   */\n      0x20\n        /* \"#utility.yul\":6033:6038   */\n      dup7\n        /* \"#utility.yul\":6029:6045   */\n      add\n        /* \"#utility.yul\":5994:6059   */\n      tag_160\n      jump\t// in\n    tag_270:\n        /* \"#utility.yul\":6084:6113   */\n      tag_271\n        /* \"#utility.yul\":6106:6112   */\n      dup2\n        /* \"#utility.yul\":6084:6113   */\n      tag_150\n      jump\t// in\n    tag_271:\n        /* \"#utility.yul\":6079:6082   */\n      dup5\n        /* \"#utility.yul\":6075:6114   */\n      add\n        /* \"#utility.yul\":6068:6114   */\n      swap2\n      pop\n        /* \"#utility.yul\":5835:6120   */\n      pop\n        /* \"#utility.yul\":5743:6120   */\n      swap3\n      swap2\n      pop\n      pop\n      jump\t// out\n        /* \"#utility.yul\":6126:6216   */\n    tag_162:\n        /* \"#utility.yul\":6160:6167   */\n      0x00\n        /* \"#utility.yul\":6203:6208   */\n      dup2\n        /* \"#utility.yul\":6196:6209   */\n      iszero\n        /* \"#utility.yul\":6189:6210   */\n      iszero\n        /* \"#utility.yul\":6178:6210   */\n      swap1\n      pop\n        /* \"#utility.yul\":6126:6216   */\n      swap2\n      swap1\n      pop\n      jump\t// out\n        /* \"#utility.yul\":6222:6331   */\n    tag_163:\n        /* \"#utility.yul\":6303:6324   */\n      tag_274\n        /* \"#utility.yul\":6318:6323   */\n      dup2\n        /* \"#utility.yul\":6303:6324   */\n      tag_162\n      jump\t// in\n    tag_274:\n        /* \"#utility.yul\":6298:6301   */\n      dup3\n        /* \"#utility.yul\":6291:6325   */\n      mstore\n        /* \"#utility.yul\":6222:6331   */\n      pop\n      pop\n      jump\t// out\n        /* \"#utility.yul\":6337:6945   */\n    tag_27:\n        /* \"#utility.yul\":6516:6520   */\n      0x00\n        /* \"#utility.yul\":6554:6557   */\n      0x80\n        /* \"#utility.yul\":6543:6552   */\n      dup3\n        /* \"#utility.yul\":6539:6558   */\n      add\n        /* \"#utility.yul\":6531:6558   */\n      swap1\n      pop\n        /* \"#utility.yul\":6604:6613   */\n      dup2\n        /* \"#utility.yul\":6598:6602   */\n      dup2\n        /* \"#utility.yul\":6594:6614   */\n      sub\n        /* \"#utility.yul\":6590:6591   */\n      0x00\n        /* \"#utility.yul\":6579:6588   */\n      dup4\n        /* \"#utility.yul\":6575:6592   */\n      add\n        /* \"#utility.yul\":6568:6615   */\n      mstore\n        /* \"#utility.yul\":6632:6710   */\n      tag_276\n        /* \"#utility.yul\":6705:6709   */\n      dup2\n        /* \"#utility.yul\":6696:6702   */\n      dup8\n        /* \"#utility.yul\":6632:6710   */\n      tag_161\n      jump\t// in\n    tag_276:\n        /* \"#utility.yul\":6624:6710   */\n      swap1\n      pop\n        /* \"#utility.yul\":6720:6786   */\n      tag_277\n        /* \"#utility.yul\":6782:6784   */\n      0x20\n        /* \"#utility.yul\":6771:6780   */\n      dup4\n        /* \"#utility.yul\":6767:6785   */\n      add\n        /* \"#utility.yul\":6758:6764   */\n      dup7\n        /* \"#utility.yul\":6720:6786   */\n      tag_163\n      jump\t// in\n    tag_277:\n        /* \"#utility.yul\":6796:6862   */\n      tag_278\n        /* \"#utility.yul\":6858:6860   */\n      0x40\n        /* \"#utility.yul\":6847:6856   */\n      dup4\n        /* \"#utility.yul\":6843:6861   */\n      add\n        /* \"#utility.yul\":6834:6840   */\n      dup6\n        /* \"#utility.yul\":6796:6862   */\n      tag_163\n      jump\t// in\n    tag_278:\n        /* \"#utility.yul\":6872:6938   */\n      tag_279\n        /* \"#utility.yul\":6934:6936   */\n      0x60\n        /* \"#utility.yul\":6923:6932   */\n      dup4\n        /* \"#utility.yul\":6919:6937   */\n      add\n        /* \"#utility.yul\":6910:6916   */\n      dup5\n        /* \"#utility.yul\":6872:6938   */\n      tag_163\n      jump\t// in\n    tag_279:\n        /* \"#utility.yul\":6337:6945   */\n      swap6\n      swap5\n      pop\n      pop\n      pop\n      pop\n      pop\n      jump\t// out\n        /* \"#utility.yul\":6951:7280   */\n    tag_30:\n        /* \"#utility.yul\":7010:7016   */\n      0x00\n        /* \"#utility.yul\":7059:7061   */\n      0x20\n        /* \"#utility.yul\":7047:7056   */\n      dup3\n        /* \"#utility.yul\":7038:7045   */\n      dup5\n        /* \"#utility.yul\":7034:7057   */\n      sub\n        /* \"#utility.yul\":7030:7062   */\n      slt\n        /* \"#utility.yul\":7027:7146   */\n      iszero\n      tag_281\n      jumpi\n        /* \"#utility.yul\":7065:7144   */\n      tag_282\n      tag_137\n      jump\t// in\n    tag_282:\n        /* \"#utility.yul\":7027:7146   */\n    tag_281:\n        /* \"#utility.yul\":7185:7186   */\n      0x00\n        /* \"#utility.yul\":7210:7263   */\n      tag_283\n        /* \"#utility.yul\":7255:7262   */\n      dup5\n        /* \"#utility.yul\":7246:7252   */\n      dup3\n        /* \"#utility.yul\":7235:7244   */\n      dup6\n        /* \"#utility.yul\":7231:7253   */\n      add\n        /* \"#utility.yul\":7210:7263   */\n      tag_142\n      jump\t// in\n    tag_283:\n        /* \"#utility.yul\":7200:7263   */\n      swap2\n      pop\n        /* \"#utility.yul\":7156:7273   */\n      pop\n        /* \"#utility.yul\":6951:7280   */\n      swap3\n      swap2\n      pop\n      pop\n      jump\t// out\n        /* \"#utility.yul\":7286:7466   */\n    tag_45:\n        /* \"#utility.yul\":7334:7411   */\n      0x4e487b7100000000000000000000000000000000000000000000000000000000\n        /* \"#utility.yul\":7331:7332   */\n      0x00\n        /* \"#utility.yul\":7324:7412   */\n      mstore\n        /* \"#utility.yul\":7431:7435   */\n      0x21\n        /* \"#utility.yul\":7428:7429   */\n      0x04\n        /* \"#utility.yul\":7421:7436   */\n      mstore\n        /* \"#utility.yul\":7455:7459   */\n      0x24\n        /* \"#utility.yul\":7452:7453   */\n      0x00\n        /* \"#utility.yul\":7445:7460   */\n      revert\n        /* \"#utility.yul\":7472:7583   */\n    tag_164:\n        /* \"#utility.yul\":7551:7552   */\n      0x04\n        /* \"#utility.yul\":7544:7549   */\n      dup2\n        /* \"#utility.yul\":7541:7553   */\n      lt\n        /* \"#utility.yul\":7531:7577   */\n      tag_286\n      jumpi\n        /* \"#utility.yul\":7557:7575   */\n      tag_287\n      tag_45\n      jump\t// in\n    tag_287:\n        /* \"#utility.yul\":7531:7577   */\n    tag_286:\n        /* \"#utility.yul\":7472:7583   */\n      pop\n      jump\t// out\n        /* \"#utility.yul\":7589:7712   */\n    tag_165:\n        /* \"#utility.yul\":7632:7639   */\n      0x00\n        /* \"#utility.yul\":7661:7666   */\n      dup2\n        /* \"#utility.yul\":7650:7666   */\n      swap1\n      pop\n        /* \"#utility.yul\":7667:7706   */\n      tag_289\n        /* \"#utility.yul\":7700:7705   */\n      dup3\n        /* \"#utility.yul\":7667:7706   */\n      tag_164\n      jump\t// in\n    tag_289:\n        /* \"#utility.yul\":7589:7712   */\n      swap2\n      swap1\n      pop\n      jump\t// out\n        /* \"#utility.yul\":7718:7841   */\n    tag_166:\n        /* \"#utility.yul\":7772:7781   */\n      0x00\n        /* \"#utility.yul\":7805:7835   */\n      tag_291\n        /* \"#utility.yul\":7829:7834   */\n      dup3\n        /* \"#utility.yul\":7805:7835   */\n      tag_165\n      jump\t// in\n    tag_291:\n        /* \"#utility.yul\":7792:7835   */\n      swap1\n      pop\n        /* \"#utility.yul\":7718:7841   */\n      swap2\n      swap1\n      pop\n      jump\t// out\n        /* \"#utility.yul\":7847:7986   */\n    tag_167:\n        /* \"#utility.yul\":7938:7979   */\n      tag_293\n        /* \"#utility.yul\":7973:7978   */\n      dup2\n        /* \"#utility.yul\":7938:7979   */\n      tag_166\n      jump\t// in\n    tag_293:\n        /* \"#utility.yul\":7933:7936   */\n      dup3\n        /* \"#utility.yul\":7926:7980   */\n      mstore\n        /* \"#utility.yul\":7847:7986   */\n      pop\n      pop\n      jump\t// out\n        /* \"#utility.yul\":7992:8222   */\n    tag_33:\n        /* \"#utility.yul\":8089:8093   */\n      0x00\n        /* \"#utility.yul\":8127:8129   */\n      0x20\n        /* \"#utility.yul\":8116:8125   */\n      dup3\n        /* \"#utility.yul\":8112:8130   */\n      add\n        /* \"#utility.yul\":8104:8130   */\n      swap1\n      pop\n        /* \"#utility.yul\":8140:8215   */\n      tag_295\n        /* \"#utility.yul\":8212:8213   */\n      0x00\n        /* \"#utility.yul\":8201:8210   */\n      dup4\n        /* \"#utility.yul\":8197:8214   */\n      add\n        /* \"#utility.yul\":8188:8194   */\n      dup5\n        /* \"#utility.yul\":8140:8215   */\n      tag_167\n      jump\t// in\n    tag_295:\n        /* \"#utility.yul\":7992:8222   */\n      swap3\n      swap2\n      pop\n      pop\n      jump\t// out\n        /* \"#utility.yul\":8228:8364   */\n    tag_168:\n        /* \"#utility.yul\":8317:8323   */\n      0x00\n        /* \"#utility.yul\":8351:8356   */\n      dup2\n        /* \"#utility.yul\":8345:8357   */\n      mload\n        /* \"#utility.yul\":8335:8357   */\n      swap1\n      pop\n        /* \"#utility.yul\":8228:8364   */\n      swap2\n      swap1\n      pop\n      jump\t// out\n        /* \"#utility.yul\":8370:8576   */\n    tag_169:\n        /* \"#utility.yul\":8491:8502   */\n      0x00\n        /* \"#utility.yul\":8525:8531   */\n      dup3\n        /* \"#utility.yul\":8520:8523   */\n      dup3\n        /* \"#utility.yul\":8513:8532   */\n      mstore\n        /* \"#utility.yul\":8565:8569   */\n      0x20\n        /* \"#utility.yul\":8560:8563   */\n      dup3\n        /* \"#utility.yul\":8556:8570   */\n      add\n        /* \"#utility.yul\":8541:8570   */\n      swap1\n      pop\n        /* \"#utility.yul\":8370:8576   */\n      swap3\n      swap2\n      pop\n      pop\n      jump\t// out\n        /* \"#utility.yul\":8582:8736   */\n    tag_170:\n        /* \"#utility.yul\":8671:8675   */\n      0x00\n        /* \"#utility.yul\":8694:8697   */\n      dup2\n        /* \"#utility.yul\":8686:8697   */\n      swap1\n      pop\n        /* \"#utility.yul\":8724:8728   */\n      0x20\n        /* \"#utility.yul\":8719:8722   */\n      dup3\n        /* \"#utility.yul\":8715:8729   */\n      add\n        /* \"#utility.yul\":8707:8729   */\n      swap1\n      pop\n        /* \"#utility.yul\":8582:8736   */\n      swap2\n      swap1\n      pop\n      jump\t// out\n        /* \"#utility.yul\":8742:8901   */\n    tag_171:\n        /* \"#utility.yul\":8816:8827   */\n      0x00\n        /* \"#utility.yul\":8850:8856   */\n      dup3\n        /* \"#utility.yul\":8845:8848   */\n      dup3\n        /* \"#utility.yul\":8838:8857   */\n      mstore\n        /* \"#utility.yul\":8890:8894   */\n      0x20\n        /* \"#utility.yul\":8885:8888   */\n      dup3\n        /* \"#utility.yul\":8881:8895   */\n      add\n        /* \"#utility.yul\":8866:8895   */\n      swap1\n      pop\n        /* \"#utility.yul\":8742:8901   */\n      swap3\n      swap2\n      pop\n      pop\n      jump\t// out\n        /* \"#utility.yul\":8907:9264   */\n    tag_172:\n        /* \"#utility.yul\":8985:8988   */\n      0x00\n        /* \"#utility.yul\":9013:9052   */\n      tag_301\n        /* \"#utility.yul\":9046:9051   */\n      dup3\n        /* \"#utility.yul\":9013:9052   */\n      tag_158\n      jump\t// in\n    tag_301:\n        /* \"#utility.yul\":9068:9129   */\n      tag_302\n        /* \"#utility.yul\":9122:9128   */\n      dup2\n        /* \"#utility.yul\":9117:9120   */\n      dup6\n        /* \"#utility.yul\":9068:9129   */\n      tag_171\n      jump\t// in\n    tag_302:\n        /* \"#utility.yul\":9061:9129   */\n      swap4\n      pop\n        /* \"#utility.yul\":9138:9203   */\n      tag_303\n        /* \"#utility.yul\":9196:9202   */\n      dup2\n        /* \"#utility.yul\":9191:9194   */\n      dup6\n        /* \"#utility.yul\":9184:9188   */\n      0x20\n        /* \"#utility.yul\":9177:9182   */\n      dup7\n        /* \"#utility.yul\":9173:9189   */\n      add\n        /* \"#utility.yul\":9138:9203   */\n      tag_160\n      jump\t// in\n    tag_303:\n        /* \"#utility.yul\":9228:9257   */\n      tag_304\n        /* \"#utility.yul\":9250:9256   */\n      dup2\n        /* \"#utility.yul\":9228:9257   */\n      tag_150\n      jump\t// in\n    tag_304:\n        /* \"#utility.yul\":9223:9226   */\n      dup5\n        /* \"#utility.yul\":9219:9258   */\n      add\n        /* \"#utility.yul\":9212:9258   */\n      swap2\n      pop\n        /* \"#utility.yul\":8989:9264   */\n      pop\n        /* \"#utility.yul\":8907:9264   */\n      swap3\n      swap2\n      pop\n      pop\n      jump\t// out\n        /* \"#utility.yul\":9270:9369   */\n    tag_173:\n        /* \"#utility.yul\":9341:9362   */\n      tag_306\n        /* \"#utility.yul\":9356:9361   */\n      dup2\n        /* \"#utility.yul\":9341:9362   */\n      tag_162\n      jump\t// in\n    tag_306:\n        /* \"#utility.yul\":9336:9339   */\n      dup3\n        /* \"#utility.yul\":9329:9363   */\n      mstore\n        /* \"#utility.yul\":9270:9369   */\n      pop\n      pop\n      jump\t// out\n        /* \"#utility.yul\":9443:10397   */\n    tag_174:\n        /* \"#utility.yul\":9546:9549   */\n      0x00\n        /* \"#utility.yul\":9582:9586   */\n      0x80\n        /* \"#utility.yul\":9577:9580   */\n      dup4\n        /* \"#utility.yul\":9573:9587   */\n      add\n        /* \"#utility.yul\":9669:9673   */\n      0x00\n        /* \"#utility.yul\":9662:9667   */\n      dup4\n        /* \"#utility.yul\":9658:9674   */\n      add\n        /* \"#utility.yul\":9652:9675   */\n      mload\n        /* \"#utility.yul\":9722:9725   */\n      dup5\n        /* \"#utility.yul\":9716:9720   */\n      dup3\n        /* \"#utility.yul\":9712:9726   */\n      sub\n        /* \"#utility.yul\":9705:9709   */\n      0x00\n        /* \"#utility.yul\":9700:9703   */\n      dup7\n        /* \"#utility.yul\":9696:9710   */\n      add\n        /* \"#utility.yul\":9689:9727   */\n      mstore\n        /* \"#utility.yul\":9748:9821   */\n      tag_308\n        /* \"#utility.yul\":9816:9820   */\n      dup3\n        /* \"#utility.yul\":9802:9814   */\n      dup3\n        /* \"#utility.yul\":9748:9821   */\n      tag_172\n      jump\t// in\n    tag_308:\n        /* \"#utility.yul\":9740:9821   */\n      swap2\n      pop\n        /* \"#utility.yul\":9597:9832   */\n      pop\n        /* \"#utility.yul\":9924:9928   */\n      0x20\n        /* \"#utility.yul\":9917:9922   */\n      dup4\n        /* \"#utility.yul\":9913:9929   */\n      add\n        /* \"#utility.yul\":9907:9930   */\n      mload\n        /* \"#utility.yul\":9943:10000   */\n      tag_309\n        /* \"#utility.yul\":9994:9998   */\n      0x20\n        /* \"#utility.yul\":9989:9992   */\n      dup7\n        /* \"#utility.yul\":9985:9999   */\n      add\n        /* \"#utility.yul\":9971:9983   */\n      dup3\n        /* \"#utility.yul\":9943:10000   */\n      tag_173\n      jump\t// in\n    tag_309:\n        /* \"#utility.yul\":9842:10010   */\n      pop\n        /* \"#utility.yul\":10103:10107   */\n      0x40\n        /* \"#utility.yul\":10096:10101   */\n      dup4\n        /* \"#utility.yul\":10092:10108   */\n      add\n        /* \"#utility.yul\":10086:10109   */\n      mload\n        /* \"#utility.yul\":10122:10179   */\n      tag_310\n        /* \"#utility.yul\":10173:10177   */\n      0x40\n        /* \"#utility.yul\":10168:10171   */\n      dup7\n        /* \"#utility.yul\":10164:10178   */\n      add\n        /* \"#utility.yul\":10150:10162   */\n      dup3\n        /* \"#utility.yul\":10122:10179   */\n      tag_173\n      jump\t// in\n    tag_310:\n        /* \"#utility.yul\":10020:10189   */\n      pop\n        /* \"#utility.yul\":10284:10288   */\n      0x60\n        /* \"#utility.yul\":10277:10282   */\n      dup4\n        /* \"#utility.yul\":10273:10289   */\n      add\n        /* \"#utility.yul\":10267:10290   */\n      mload\n        /* \"#utility.yul\":10303:10360   */\n      tag_311\n        /* \"#utility.yul\":10354:10358   */\n      0x60\n        /* \"#utility.yul\":10349:10352   */\n      dup7\n        /* \"#utility.yul\":10345:10359   */\n      add\n        /* \"#utility.yul\":10331:10343   */\n      dup3\n        /* \"#utility.yul\":10303:10360   */\n      tag_173\n      jump\t// in\n    tag_311:\n        /* \"#utility.yul\":10199:10370   */\n      pop\n        /* \"#utility.yul\":10387:10391   */\n      dup1\n        /* \"#utility.yul\":10380:10391   */\n      swap2\n      pop\n        /* \"#utility.yul\":9551:10397   */\n      pop\n        /* \"#utility.yul\":9443:10397   */\n      swap3\n      swap2\n      pop\n      pop\n      jump\t// out\n        /* \"#utility.yul\":10403:10647   */\n    tag_175:\n        /* \"#utility.yul\":10516:10526   */\n      0x00\n        /* \"#utility.yul\":10551:10641   */\n      tag_313\n        /* \"#utility.yul\":10637:10640   */\n      dup4\n        /* \"#utility.yul\":10629:10635   */\n      dup4\n        /* \"#utility.yul\":10551:10641   */\n      tag_174\n      jump\t// in\n    tag_313:\n        /* \"#utility.yul\":10537:10641   */\n      swap1\n      pop\n        /* \"#utility.yul\":10403:10647   */\n      swap3\n      swap2\n      pop\n      pop\n      jump\t// out\n        /* \"#utility.yul\":10653:10788   */\n    tag_176:\n        /* \"#utility.yul\":10745:10749   */\n      0x00\n        /* \"#utility.yul\":10777:10781   */\n      0x20\n        /* \"#utility.yul\":10772:10775   */\n      dup3\n        /* \"#utility.yul\":10768:10782   */\n      add\n        /* \"#utility.yul\":10760:10782   */\n      swap1\n      pop\n        /* \"#utility.yul\":10653:10788   */\n      swap2\n      swap1\n      pop\n      jump\t// out\n        /* \"#utility.yul\":10866:11953   */\n    tag_177:\n        /* \"#utility.yul\":11029:11032   */\n      0x00\n        /* \"#utility.yul\":11058:11134   */\n      tag_316\n        /* \"#utility.yul\":11128:11133   */\n      dup3\n        /* \"#utility.yul\":11058:11134   */\n      tag_168\n      jump\t// in\n    tag_316:\n        /* \"#utility.yul\":11150:11258   */\n      tag_317\n        /* \"#utility.yul\":11251:11257   */\n      dup2\n        /* \"#utility.yul\":11246:11249   */\n      dup6\n        /* \"#utility.yul\":11150:11258   */\n      tag_169\n      jump\t// in\n    tag_317:\n        /* \"#utility.yul\":11143:11258   */\n      swap4\n      pop\n        /* \"#utility.yul\":11284:11287   */\n      dup4\n        /* \"#utility.yul\":11329:11333   */\n      0x20\n        /* \"#utility.yul\":11321:11327   */\n      dup3\n        /* \"#utility.yul\":11317:11334   */\n      mul\n        /* \"#utility.yul\":11312:11315   */\n      dup6\n        /* \"#utility.yul\":11308:11335   */\n      add\n        /* \"#utility.yul\":11359:11437   */\n      tag_318\n        /* \"#utility.yul\":11431:11436   */\n      dup6\n        /* \"#utility.yul\":11359:11437   */\n      tag_170\n      jump\t// in\n    tag_318:\n        /* \"#utility.yul\":11460:11467   */\n      dup1\n        /* \"#utility.yul\":11491:11492   */\n      0x00\n        /* \"#utility.yul\":11476:11908   */\n    tag_319:\n        /* \"#utility.yul\":11501:11507   */\n      dup6\n        /* \"#utility.yul\":11498:11499   */\n      dup2\n        /* \"#utility.yul\":11495:11508   */\n      lt\n        /* \"#utility.yul\":11476:11908   */\n      iszero\n      tag_321\n      jumpi\n        /* \"#utility.yul\":11572:11581   */\n      dup5\n        /* \"#utility.yul\":11566:11570   */\n      dup5\n        /* \"#utility.yul\":11562:11582   */\n      sub\n        /* \"#utility.yul\":11557:11560   */\n      dup10\n        /* \"#utility.yul\":11550:11583   */\n      mstore\n        /* \"#utility.yul\":11623:11629   */\n      dup2\n        /* \"#utility.yul\":11617:11630   */\n      mload\n        /* \"#utility.yul\":11651:11759   */\n      tag_322\n        /* \"#utility.yul\":11754:11758   */\n      dup6\n        /* \"#utility.yul\":11739:11752   */\n      dup3\n        /* \"#utility.yul\":11651:11759   */\n      tag_175\n      jump\t// in\n    tag_322:\n        /* \"#utility.yul\":11643:11759   */\n      swap5\n      pop\n        /* \"#utility.yul\":11782:11864   */\n      tag_323\n        /* \"#utility.yul\":11857:11863   */\n      dup4\n        /* \"#utility.yul\":11782:11864   */\n      tag_176\n      jump\t// in\n    tag_323:\n        /* \"#utility.yul\":11772:11864   */\n      swap3\n      pop\n        /* \"#utility.yul\":11893:11897   */\n      0x20\n        /* \"#utility.yul\":11888:11891   */\n      dup11\n        /* \"#utility.yul\":11884:11898   */\n      add\n        /* \"#utility.yul\":11877:11898   */\n      swap10\n      pop\n        /* \"#utility.yul\":11536:11908   */\n      pop\n        /* \"#utility.yul\":11523:11524   */\n      0x01\n        /* \"#utility.yul\":11520:11521   */\n      dup2\n        /* \"#utility.yul\":11516:11525   */\n      add\n        /* \"#utility.yul\":11511:11525   */\n      swap1\n      pop\n        /* \"#utility.yul\":11476:11908   */\n      jump(tag_319)\n    tag_321:\n        /* \"#utility.yul\":11480:11494   */\n      pop\n        /* \"#utility.yul\":11924:11928   */\n      dup3\n        /* \"#utility.yul\":11917:11928   */\n      swap8\n      pop\n        /* \"#utility.yul\":11944:11947   */\n      dup8\n        /* \"#utility.yul\":11937:11947   */\n      swap6\n      pop\n        /* \"#utility.yul\":11034:11953   */\n      pop\n      pop\n      pop\n      pop\n      pop\n        /* \"#utility.yul\":10866:11953   */\n      swap3\n      swap2\n      pop\n      pop\n      jump\t// out\n        /* \"#utility.yul\":11959:12420   */\n    tag_38:\n        /* \"#utility.yul\":12146:12150   */\n      0x00\n        /* \"#utility.yul\":12184:12186   */\n      0x20\n        /* \"#utility.yul\":12173:12182   */\n      dup3\n        /* \"#utility.yul\":12169:12187   */\n      add\n        /* \"#utility.yul\":12161:12187   */\n      swap1\n      pop\n        /* \"#utility.yul\":12233:12242   */\n      dup2\n        /* \"#utility.yul\":12227:12231   */\n      dup2\n        /* \"#utility.yul\":12223:12243   */\n      sub\n        /* \"#utility.yul\":12219:12220   */\n      0x00\n        /* \"#utility.yul\":12208:12217   */\n      dup4\n        /* \"#utility.yul\":12204:12221   */\n      add\n        /* \"#utility.yul\":12197:12244   */\n      mstore\n        /* \"#utility.yul\":12261:12413   */\n      tag_325\n        /* \"#utility.yul\":12408:12412   */\n      dup2\n        /* \"#utility.yul\":12399:12405   */\n      dup5\n        /* \"#utility.yul\":12261:12413   */\n      tag_177\n      jump\t// in\n    tag_325:\n        /* \"#utility.yul\":12253:12413   */\n      swap1\n      pop\n        /* \"#utility.yul\":11959:12420   */\n      swap3\n      swap2\n      pop\n      pop\n      jump\t// out\n        /* \"#utility.yul\":12426:12590   */\n    tag_178:\n        /* \"#utility.yul\":12566:12582   */\n      0x4e6f7420617574686f72697a6564000000000000000000000000000000000000\n        /* \"#utility.yul\":12562:12563   */\n      0x00\n        /* \"#utility.yul\":12554:12560   */\n      dup3\n        /* \"#utility.yul\":12550:12564   */\n      add\n        /* \"#utility.yul\":12543:12583   */\n      mstore\n        /* \"#utility.yul\":12426:12590   */\n      pop\n      jump\t// out\n        /* \"#utility.yul\":12596:12962   */\n    tag_179:\n        /* \"#utility.yul\":12738:12741   */\n      0x00\n        /* \"#utility.yul\":12759:12826   */\n      tag_328\n        /* \"#utility.yul\":12823:12825   */\n      0x0e\n        /* \"#utility.yul\":12818:12821   */\n      dup4\n        /* \"#utility.yul\":12759:12826   */\n      tag_159\n      jump\t// in\n    tag_328:\n        /* \"#utility.yul\":12752:12826   */\n      swap2\n      pop\n        /* \"#utility.yul\":12835:12928   */\n      tag_329\n        /* \"#utility.yul\":12924:12927   */\n      dup3\n        /* \"#utility.yul\":12835:12928   */\n      tag_178\n      jump\t// in\n    tag_329:\n        /* \"#utility.yul\":12953:12955   */\n      0x20\n        /* \"#utility.yul\":12948:12951   */\n      dup3\n        /* \"#utility.yul\":12944:12956   */\n      add\n        /* \"#utility.yul\":12937:12956   */\n      swap1\n      pop\n        /* \"#utility.yul\":12596:12962   */\n      swap2\n      swap1\n      pop\n      jump\t// out\n        /* \"#utility.yul\":12968:13387   */\n    tag_50:\n        /* \"#utility.yul\":13134:13138   */\n      0x00\n        /* \"#utility.yul\":13172:13174   */\n      0x20\n        /* \"#utility.yul\":13161:13170   */\n      dup3\n        /* \"#utility.yul\":13157:13175   */\n      add\n        /* \"#utility.yul\":13149:13175   */\n      swap1\n      pop\n        /* \"#utility.yul\":13221:13230   */\n      dup2\n        /* \"#utility.yul\":13215:13219   */\n      dup2\n        /* \"#utility.yul\":13211:13231   */\n      sub\n        /* \"#utility.yul\":13207:13208   */\n      0x00\n        /* \"#utility.yul\":13196:13205   */\n      dup4\n        /* \"#utility.yul\":13192:13209   */\n      add\n        /* \"#utility.yul\":13185:13232   */\n      mstore\n        /* \"#utility.yul\":13249:13380   */\n      tag_331\n        /* \"#utility.yul\":13375:13379   */\n      dup2\n        /* \"#utility.yul\":13249:13380   */\n      tag_179\n      jump\t// in\n    tag_331:\n        /* \"#utility.yul\":13241:13380   */\n      swap1\n      pop\n        /* \"#utility.yul\":12968:13387   */\n      swap2\n      swap1\n      pop\n      jump\t// out\n        /* \"#utility.yul\":13393:13563   */\n    tag_180:\n        /* \"#utility.yul\":13533:13555   */\n      0x496e76616c6964207265636f726420696e646578000000000000000000000000\n        /* \"#utility.yul\":13529:13530   */\n      0x00\n        /* \"#utility.yul\":13521:13527   */\n      dup3\n        /* \"#utility.yul\":13517:13531   */\n      add\n        /* \"#utility.yul\":13510:13556   */\n      mstore\n        /* \"#utility.yul\":13393:13563   */\n      pop\n      jump\t// out\n        /* \"#utility.yul\":13569:13935   */\n    tag_181:\n        /* \"#utility.yul\":13711:13714   */\n      0x00\n        /* \"#utility.yul\":13732:13799   */\n      tag_334\n        /* \"#utility.yul\":13796:13798   */\n      0x14\n        /* \"#utility.yul\":13791:13794   */\n      dup4\n        /* \"#utility.yul\":13732:13799   */\n      tag_159\n      jump\t// in\n    tag_334:\n        /* \"#utility.yul\":13725:13799   */\n      swap2\n      pop\n        /* \"#utility.yul\":13808:13901   */\n      tag_335\n        /* \"#utility.yul\":13897:13900   */\n      dup3\n        /* \"#utility.yul\":13808:13901   */\n      tag_180\n      jump\t// in\n    tag_335:\n        /* \"#utility.yul\":13926:13928   */\n      0x20\n        /* \"#utility.yul\":13921:13924   */\n      dup3\n        /* \"#utility.yul\":13917:13929   */\n      add\n        /* \"#utility.yul\":13910:13929   */\n      swap1\n      pop\n        /* \"#utility.yul\":13569:13935   */\n      swap2\n      swap1\n      pop\n      jump\t// out\n        /* \"#utility.yul\":13941:14360   */\n    tag_54:\n        /* \"#utility.yul\":14107:14111   */\n      0x00\n        /* \"#utility.yul\":14145:14147   */\n      0x20\n        /* \"#utility.yul\":14134:14143   */\n      dup3\n        /* \"#utility.yul\":14130:14148   */\n      add\n        /* \"#utility.yul\":14122:14148   */\n      swap1\n      pop\n        /* \"#utility.yul\":14194:14203   */\n      dup2\n        /* \"#utility.yul\":14188:14192   */\n      dup2\n        /* \"#utility.yul\":14184:14204   */\n      sub\n        /* \"#utility.yul\":14180:14181   */\n      0x00\n        /* \"#utility.yul\":14169:14178   */\n      dup4\n        /* \"#utility.yul\":14165:14182   */\n      add\n        /* \"#utility.yul\":14158:14205   */\n      mstore\n        /* \"#utility.yul\":14222:14353   */\n      tag_337\n        /* \"#utility.yul\":14348:14352   */\n      dup2\n        /* \"#utility.yul\":14222:14353   */\n      tag_181\n      jump\t// in\n    tag_337:\n        /* \"#utility.yul\":14214:14353   */\n      swap1\n      pop\n        /* \"#utility.yul\":13941:14360   */\n      swap2\n      swap1\n      pop\n      jump\t// out\n        /* \"#utility.yul\":14366:14546   */\n    tag_62:\n        /* \"#utility.yul\":14414:14491   */\n      0x4e487b7100000000000000000000000000000000000000000000000000000000\n        /* \"#utility.yul\":14411:14412   */\n      0x00\n        /* \"#utility.yul\":14404:14492   */\n      mstore\n        /* \"#utility.yul\":14511:14515   */\n      0x32\n        /* \"#utility.yul\":14508:14509   */\n      0x04\n        /* \"#utility.yul\":14501:14516   */\n      mstore\n        /* \"#utility.yul\":14535:14539   */\n      0x24\n        /* \"#utility.yul\":14532:14533   */\n      0x00\n        /* \"#utility.yul\":14525:14540   */\n      revert\n        /* \"#utility.yul\":14552:14732   */\n    tag_182:\n        /* \"#utility.yul\":14600:14677   */\n      0x4e487b7100000000000000000000000000000000000000000000000000000000\n        /* \"#utility.yul\":14597:14598   */\n      0x00\n        /* \"#utility.yul\":14590:14678   */\n      mstore\n        /* \"#utility.yul\":14697:14701   */\n      0x22\n        /* \"#utility.yul\":14694:14695   */\n      0x04\n        /* \"#utility.yul\":14687:14702   */\n      mstore\n        /* \"#utility.yul\":14721:14725   */\n      0x24\n        /* \"#utility.yul\":14718:14719   */\n      0x00\n        /* \"#utility.yul\":14711:14726   */\n      revert\n        /* \"#utility.yul\":14738:15058   */\n    tag_101:\n        /* \"#utility.yul\":14782:14788   */\n      0x00\n        /* \"#utility.yul\":14819:14820   */\n      0x02\n        /* \"#utility.yul\":14813:14817   */\n      dup3\n        /* \"#utility.yul\":14809:14821   */\n      div\n        /* \"#utility.yul\":14799:14821   */\n      swap1\n      pop\n        /* \"#utility.yul\":14866:14867   */\n      0x01\n        /* \"#utility.yul\":14860:14864   */\n      dup3\n        /* \"#utility.yul\":14856:14868   */\n      and\n        /* \"#utility.yul\":14887:14905   */\n      dup1\n        /* \"#utility.yul\":14877:14958   */\n      tag_341\n      jumpi\n        /* \"#utility.yul\":14943:14947   */\n      0x7f\n        /* \"#utility.yul\":14935:14941   */\n      dup3\n        /* \"#utility.yul\":14931:14948   */\n      and\n        /* \"#utility.yul\":14921:14948   */\n      swap2\n      pop\n        /* \"#utility.yul\":14877:14958   */\n    tag_341:\n        /* \"#utility.yul\":15005:15007   */\n      0x20\n        /* \"#utility.yul\":14997:15003   */\n      dup3\n        /* \"#utility.yul\":14994:15008   */\n      lt\n        /* \"#utility.yul\":14974:14992   */\n      dup2\n        /* \"#utility.yul\":14971:15009   */\n      sub\n        /* \"#utility.yul\":14968:15052   */\n      tag_342\n      jumpi\n        /* \"#utility.yul\":15024:15042   */\n      tag_343\n      tag_182\n      jump\t// in\n    tag_343:\n        /* \"#utility.yul\":14968:15052   */\n    tag_342:\n        /* \"#utility.yul\":14789:15058   */\n      pop\n        /* \"#utility.yul\":14738:15058   */\n      swap2\n      swap1\n      pop\n      jump\t// out\n        /* \"#utility.yul\":15064:15205   */\n    tag_183:\n        /* \"#utility.yul\":15113:15117   */\n      0x00\n        /* \"#utility.yul\":15136:15139   */\n      dup2\n        /* \"#utility.yul\":15128:15139   */\n      swap1\n      pop\n        /* \"#utility.yul\":15159:15162   */\n      dup2\n        /* \"#utility.yul\":15156:15157   */\n      0x00\n        /* \"#utility.yul\":15149:15163   */\n      mstore\n        /* \"#utility.yul\":15193:15197   */\n      0x20\n        /* \"#utility.yul\":15190:15191   */\n      0x00\n        /* \"#utility.yul\":15180:15198   */\n      keccak256\n        /* \"#utility.yul\":15172:15198   */\n      swap1\n      pop\n        /* \"#utility.yul\":15064:15205   */\n      swap2\n      swap1\n      pop\n      jump\t// out\n        /* \"#utility.yul\":15211:15304   */\n    tag_184:\n        /* \"#utility.yul\":15248:15254   */\n      0x00\n        /* \"#utility.yul\":15295:15297   */\n      0x20\n        /* \"#utility.yul\":15290:15292   */\n      0x1f\n        /* \"#utility.yul\":15283:15288   */\n      dup4\n        /* \"#utility.yul\":15279:15293   */\n      add\n        /* \"#utility.yul\":15275:15298   */\n      div\n        /* \"#utility.yul\":15265:15298   */\n      swap1\n      pop\n        /* \"#utility.yul\":15211:15304   */\n      swap2\n      swap1\n      pop\n      jump\t// out\n        /* \"#utility.yul\":15310:15417   */\n    tag_185:\n        /* \"#utility.yul\":15354:15362   */\n      0x00\n        /* \"#utility.yul\":15404:15409   */\n      dup3\n        /* \"#utility.yul\":15398:15402   */\n      dup3\n        /* \"#utility.yul\":15394:15410   */\n      shl\n        /* \"#utility.yul\":15373:15410   */\n      swap1\n      pop\n        /* \"#utility.yul\":15310:15417   */\n      swap3\n      swap2\n      pop\n      pop\n      jump\t// out\n        /* \"#utility.yul\":15423:15816   */\n    tag_186:\n        /* \"#utility.yul\":15492:15498   */\n      0x00\n        /* \"#utility.yul\":15542:15543   */\n      0x08\n        /* \"#utility.yul\":15530:15540   */\n      dup4\n        /* \"#utility.yul\":15526:15544   */\n      mul\n        /* \"#utility.yul\":15565:15662   */\n      tag_348\n        /* \"#utility.yul\":15595:15661   */\n      0xffffffffffffffffffffffffffffffffffffffffffffffffffffffffffffffff\n        /* \"#utility.yul\":15584:15593   */\n      dup3\n        /* \"#utility.yul\":15565:15662   */\n      tag_185\n      jump\t// in\n    tag_348:\n        /* \"#utility.yul\":15683:15722   */\n      tag_349\n        /* \"#utility.yul\":15713:15721   */\n      dup7\n        /* \"#utility.yul\":15702:15711   */\n      dup4\n        /* \"#utility.yul\":15683:15722   */\n      tag_185\n      jump\t// in\n    tag_349:\n        /* \"#utility.yul\":15671:15722   */\n      swap6\n      pop\n        /* \"#utility.yul\":15755:15759   */\n      dup1\n        /* \"#utility.yul\":15751:15760   */\n      not\n        /* \"#utility.yul\":15744:15749   */\n      dup5\n        /* \"#utility.yul\":15740:15761   */\n      and\n        /* \"#utility.yul\":15731:15761   */\n      swap4\n      pop\n        /* \"#utility.yul\":15804:15808   */\n      dup1\n        /* \"#utility.yul\":15794:15802   */\n      dup7\n        /* \"#utility.yul\":15790:15809   */\n      and\n        /* \"#utility.yul\":15783:15788   */\n      dup5\n        /* \"#utility.yul\":15780:15810   */\n      or\n        /* \"#utility.yul\":15770:15810   */\n      swap3\n      pop\n        /* \"#utility.yul\":15499:15816   */\n      pop\n      pop\n        /* \"#utility.yul\":15423:15816   */\n      swap4\n      swap3\n      pop\n      pop\n      pop\n      jump\t// out\n        /* \"#utility.yul\":15822:15882   */\n    tag_187:\n        /* \"#utility.yul\":15850:15853   */\n      0x00\n        /* \"#utility.yul\":15871:15876   */\n      dup2\n        /* \"#utility.yul\":15864:15876   */\n      swap1\n      pop\n        /* \"#utility.yul\":15822:15882   */\n      swap2\n      swap1\n      pop\n      jump\t// out\n        /* \"#utility.yul\":15888:16030   */\n    tag_188:\n        /* \"#utility.yul\":15938:15947   */\n      0x00\n        /* \"#utility.yul\":15971:16024   */\n      tag_352\n        /* \"#utility.yul\":15989:16023   */\n      tag_353\n        /* \"#utility.yul\":15998:16022   */\n      tag_354\n        /* \"#utility.yul\":16016:16021   */\n      dup5\n        /* \"#utility.yul\":15998:16022   */\n      tag_143\n      jump\t// in\n    tag_354:\n        /* \"#utility.yul\":15989:16023   */\n      tag_187\n      jump\t// in\n    tag_353:\n        /* \"#utility.yul\":15971:16024   */\n      tag_143\n      jump\t// in\n    tag_352:\n        /* \"#utility.yul\":15958:16024   */\n      swap1\n      pop\n        /* \"#utility.yul\":15888:16030   */\n      swap2\n      swap1\n      pop\n      jump\t// out\n        /* \"#utility.yul\":16036:16111   */\n    tag_189:\n        /* \"#utility.yul\":16079:16082   */\n      0x00\n        /* \"#utility.yul\":16100:16105   */\n      dup2\n        /* \"#utility.yul\":16093:16105   */\n      swap1\n      pop\n        /* \"#utility.yul\":16036:16111   */\n      swap2\n      swap1\n      pop\n      jump\t// out\n        /* \"#utility.yul\":16117:16386   */\n    tag_190:\n        /* \"#utility.yul\":16227:16266   */\n      tag_357\n        /* \"#utility.yul\":16258:16265   */\n      dup4\n        /* \"#utility.yul\":16227:16266   */\n      tag_188\n      jump\t// in\n    tag_357:\n        /* \"#utility.yul\":16288:16379   */\n      tag_358\n        /* \"#utility.yul\":16337:16378   */\n      tag_359\n        /* \"#utility.yul\":16361:16377   */\n      dup3\n        /* \"#utility.yul\":16337:16378   */\n      tag_189\n      jump\t// in\n    tag_359:\n        /* \"#utility.yul\":16329:16335   */\n      dup5\n        /* \"#utility.yul\":16322:16326   */\n      dup5\n        /* \"#utility.yul\":16316:16327   */\n      sload\n        /* \"#utility.yul\":16288:16379   */\n      tag_186\n      jump\t// in\n    tag_358:\n        /* \"#utility.yul\":16282:16286   */\n      dup3\n        /* \"#utility.yul\":16275:16380   */\n      sstore\n        /* \"#utility.yul\":16193:16386   */\n      pop\n        /* \"#utility.yul\":16117:16386   */\n      pop\n      pop\n      pop\n      jump\t// out\n        /* \"#utility.yul\":16392:16465   */\n    tag_191:\n        /* \"#utility.yul\":16437:16440   */\n      0x00\n        /* \"#utility.yul\":16392:16465   */\n      swap1\n      jump\t// out\n        /* \"#utility.yul\":16471:16660   */\n    tag_192:\n        /* \"#utility.yul\":16548:16580   */\n      tag_362\n      tag_191\n      jump\t// in\n    tag_362:\n        /* \"#utility.yul\":16589:16654   */\n      tag_363\n        /* \"#utility.yul\":16647:16653   */\n      dup2\n        /* \"#utility.yul\":16639:16645   */\n      dup5\n        /* \"#utility.yul\":16633:16637   */\n      dup5\n        /* \"#utility.yul\":16589:16654   */\n      tag_190\n      jump\t// in\n    tag_363:\n        /* \"#utility.yul\":16524:16660   */\n      pop\n        /* \"#utility.yul\":16471:16660   */\n      pop\n      pop\n      jump\t// out\n        /* \"#utility.yul\":16666:16852   */\n    tag_193:\n        /* \"#utility.yul\":16726:16846   */\n    tag_365:\n        /* \"#utility.yul\":16743:16746   */\n      dup2\n        /* \"#utility.yul\":16736:16741   */\n      dup2\n        /* \"#utility.yul\":16733:16747   */\n      lt\n        /* \"#utility.yul\":16726:16846   */\n      iszero\n      tag_367\n      jumpi\n        /* \"#utility.yul\":16797:16836   */\n      tag_368\n        /* \"#utility.yul\":16834:16835   */\n      0x00\n        /* \"#utility.yul\":16827:16832   */\n      dup3\n        /* \"#utility.yul\":16797:16836   */\n      tag_192\n      jump\t// in\n    tag_368:\n        /* \"#utility.yul\":16770:16771   */\n      0x01\n        /* \"#utility.yul\":16763:16768   */\n      dup2\n        /* \"#utility.yul\":16759:16772   */\n      add\n        /* \"#utility.yul\":16750:16772   */\n      swap1\n      pop\n        /* \"#utility.yul\":16726:16846   */\n      jump(tag_365)\n    tag_367:\n        /* \"#utility.yul\":16666:16852   */\n      pop\n      pop\n      jump\t// out\n        /* \"#utility.yul\":16858:17401   */\n    tag_194:\n        /* \"#utility.yul\":16959:16961   */\n      0x1f\n        /* \"#utility.yul\":16954:16957   */\n      dup3\n        /* \"#utility.yul\":16951:16962   */\n      gt\n        /* \"#utility.yul\":16948:17394   */\n      iszero\n      tag_370\n      jumpi\n        /* \"#utility.yul\":16993:17031   */\n      tag_371\n        /* \"#utility.yul\":17025:17030   */\n      dup2\n        /* \"#utility.yul\":16993:17031   */\n      tag_183\n      jump\t// in\n    tag_371:\n        /* \"#utility.yul\":17077:17106   */\n      tag_372\n        /* \"#utility.yul\":17095:17105   */\n      dup5\n        /* \"#utility.yul\":17077:17106   */\n      tag_184\n      jump\t// in\n    tag_372:\n        /* \"#utility.yul\":17067:17075   */\n      dup2\n        /* \"#utility.yul\":17063:17107   */\n      add\n        /* \"#utility.yul\":17260:17262   */\n      0x20\n        /* \"#utility.yul\":17248:17258   */\n      dup6\n        /* \"#utility.yul\":17245:17263   */\n      lt\n        /* \"#utility.yul\":17242:17291   */\n      iszero\n      tag_373\n      jumpi\n        /* \"#utility.yul\":17281:17289   */\n      dup2\n        /* \"#utility.yul\":17266:17289   */\n      swap1\n      pop\n        /* \"#utility.yul\":17242:17291   */\n    tag_373:\n        /* \"#utility.yul\":17304:17384   */\n      tag_374\n        /* \"#utility.yul\":17360:17382   */\n      tag_375\n        /* \"#utility.yul\":17378:17381   */\n      dup6\n        /* \"#utility.yul\":17360:17382   */\n      tag_184\n      jump\t// in\n    tag_375:\n        /* \"#utility.yul\":17350:17358   */\n      dup4\n        /* \"#utility.yul\":17346:17383   */\n      add\n        /* \"#utility.yul\":17333:17344   */\n      dup3\n        /* \"#utility.yul\":17304:17384   */\n      tag_193\n      jump\t// in\n    tag_374:\n        /* \"#utility.yul\":16963:17394   */\n      pop\n      pop\n        /* \"#utility.yul\":16948:17394   */\n    tag_370:\n        /* \"#utility.yul\":16858:17401   */\n      pop\n      pop\n      pop\n      jump\t// out\n        /* \"#utility.yul\":17407:17524   */\n    tag_195:\n        /* \"#utility.yul\":17461:17469   */\n      0x00\n        /* \"#utility.yul\":17511:17516   */\n      dup3\n        /* \"#utility.yul\":17505:17509   */\n      dup3\n        /* \"#utility.yul\":17501:17517   */\n      shr\n        /* \"#utility.yul\":17480:17517   */\n      swap1\n      pop\n        /* \"#utility.yul\":17407:17524   */\n      swap3\n      swap2\n      pop\n      pop\n      jump\t// out\n        /* \"#utility.yul\":17530:17699   */\n    tag_196:\n        /* \"#utility.yul\":17574:17580   */\n      0x00\n        /* \"#utility.yul\":17607:17658   */\n      tag_378\n        /* \"#utility.yul\":17655:17656   */\n      0x00\n        /* \"#utility.yul\":17651:17657   */\n      not\n        /* \"#utility.yul\":17643:17648   */\n      dup5\n        /* \"#utility.yul\":17640:17641   */\n      0x08\n        /* \"#utility.yul\":17636:17649   */\n      mul\n        /* \"#utility.yul\":17607:17658   */\n      tag_195\n      jump\t// in\n    tag_378:\n        /* \"#utility.yul\":17603:17659   */\n      not\n        /* \"#utility.yul\":17688:17692   */\n      dup1\n        /* \"#utility.yul\":17682:17686   */\n      dup4\n        /* \"#utility.yul\":17678:17693   */\n      and\n        /* \"#utility.yul\":17668:17693   */\n      swap2\n      pop\n        /* \"#utility.yul\":17581:17699   */\n      pop\n        /* \"#utility.yul\":17530:17699   */\n      swap3\n      swap2\n      pop\n      pop\n      jump\t// out\n        /* \"#utility.yul\":17704:17999   */\n    tag_197:\n        /* \"#utility.yul\":17780:17784   */\n      0x00\n        /* \"#utility.yul\":17926:17955   */\n      tag_380\n        /* \"#utility.yul\":17951:17954   */\n      dup4\n        /* \"#utility.yul\":17945:17949   */\n      dup4\n        /* \"#utility.yul\":17926:17955   */\n      tag_196\n      jump\t// in\n    tag_380:\n        /* \"#utility.yul\":17918:17955   */\n      swap2\n      pop\n        /* \"#utility.yul\":17988:17991   */\n      dup3\n        /* \"#utility.yul\":17985:17986   */\n      0x02\n        /* \"#utility.yul\":17981:17992   */\n      mul\n        /* \"#utility.yul\":17975:17979   */\n      dup3\n        /* \"#utility.yul\":17972:17993   */\n      or\n        /* \"#utility.yul\":17964:17993   */\n      swap1\n      pop\n        /* \"#utility.yul\":17704:17999   */\n      swap3\n      swap2\n      pop\n      pop\n      jump\t// out\n        /* \"#utility.yul\":18004:19399   */\n    tag_95:\n        /* \"#utility.yul\":18121:18158   */\n      tag_382\n        /* \"#utility.yul\":18154:18157   */\n      dup3\n        /* \"#utility.yul\":18121:18158   */\n      tag_158\n      jump\t// in\n    tag_382:\n        /* \"#utility.yul\":18223:18241   */\n      0xffffffffffffffff\n        /* \"#utility.yul\":18215:18221   */\n      dup2\n        /* \"#utility.yul\":18212:18242   */\n      gt\n        /* \"#utility.yul\":18209:18265   */\n      iszero\n      tag_383\n      jumpi\n        /* \"#utility.yul\":18245:18263   */\n      tag_384\n      tag_151\n      jump\t// in\n    tag_384:\n        /* \"#utility.yul\":18209:18265   */\n    tag_383:\n        /* \"#utility.yul\":18289:18327   */\n      tag_385\n        /* \"#utility.yul\":18321:18325   */\n      dup3\n        /* \"#utility.yul\":18315:18326   */\n      sload\n        /* \"#utility.yul\":18289:18327   */\n      tag_101\n      jump\t// in\n    tag_385:\n        /* \"#utility.yul\":18374:18441   */\n      tag_386\n        /* \"#utility.yul\":18434:18440   */\n      dup3\n        /* \"#utility.yul\":18426:18432   */\n      dup3\n        /* \"#utility.yul\":18420:18424   */\n      dup6\n        /* \"#utility.yul\":18374:18441   */\n      tag_194\n      jump\t// in\n    tag_386:\n        /* \"#utility.yul\":18468:18469   */\n      0x00\n        /* \"#utility.yul\":18492:18496   */\n      0x20\n        /* \"#utility.yul\":18479:18496   */\n      swap1\n      pop\n        /* \"#utility.yul\":18524:18526   */\n      0x1f\n        /* \"#utility.yul\":18516:18522   */\n      dup4\n        /* \"#utility.yul\":18513:18527   */\n      gt\n        /* \"#utility.yul\":18541:18542   */\n      0x01\n        /* \"#utility.yul\":18536:19154   */\n      dup2\n      eq\n      tag_388\n      jumpi\n        /* \"#utility.yul\":19198:19199   */\n      0x00\n        /* \"#utility.yul\":19215:19221   */\n      dup5\n        /* \"#utility.yul\":19212:19289   */\n      iszero\n      tag_389\n      jumpi\n        /* \"#utility.yul\":19264:19273   */\n      dup3\n        /* \"#utility.yul\":19259:19262   */\n      dup8\n        /* \"#utility.yul\":19255:19274   */\n      add\n        /* \"#utility.yul\":19249:19275   */\n      mload\n        /* \"#utility.yul\":19240:19275   */\n      swap1\n      pop\n        /* \"#utility.yul\":19212:19289   */\n    tag_389:\n        /* \"#utility.yul\":19315:19382   */\n      tag_390\n        /* \"#utility.yul\":19375:19381   */\n      dup6\n        /* \"#utility.yul\":19368:19373   */\n      dup3\n        /* \"#utility.yul\":19315:19382   */\n      tag_197\n      jump\t// in\n    tag_390:\n        /* \"#utility.yul\":19309:19313   */\n      dup7\n        /* \"#utility.yul\":19302:19383   */\n      sstore\n        /* \"#utility.yul\":19171:19393   */\n      pop\n        /* \"#utility.yul\":18506:19393   */\n      jump(tag_387)\n        /* \"#utility.yul\":18536:19154   */\n    tag_388:\n        /* \"#utility.yul\":18588:18592   */\n      0x1f\n        /* \"#utility.yul\":18584:18593   */\n      not\n        /* \"#utility.yul\":18576:18582   */\n      dup5\n        /* \"#utility.yul\":18572:18594   */\n      and\n        /* \"#utility.yul\":18622:18659   */\n      tag_391\n        /* \"#utility.yul\":18654:18658   */\n      dup7\n        /* \"#utility.yul\":18622:18659   */\n      tag_183\n      jump\t// in\n    tag_391:\n        /* \"#utility.yul\":18681:18682   */\n      0x00\n        /* \"#utility.yul\":18695:18903   */\n    tag_392:\n        /* \"#utility.yul\":18709:18716   */\n      dup3\n        /* \"#utility.yul\":18706:18707   */\n      dup2\n        /* \"#utility.yul\":18703:18717   */\n      lt\n        /* \"#utility.yul\":18695:18903   */\n      iszero\n      tag_394\n      jumpi\n        /* \"#utility.yul\":18788:18797   */\n      dup5\n        /* \"#utility.yul\":18783:18786   */\n      dup10\n        /* \"#utility.yul\":18779:18798   */\n      add\n        /* \"#utility.yul\":18773:18799   */\n      mload\n        /* \"#utility.yul\":18765:18771   */\n      dup3\n        /* \"#utility.yul\":18758:18800   */\n      sstore\n        /* \"#utility.yul\":18839:18840   */\n      0x01\n        /* \"#utility.yul\":18831:18837   */\n      dup3\n        /* \"#utility.yul\":18827:18841   */\n      add\n        /* \"#utility.yul\":18817:18841   */\n      swap2\n      pop\n        /* \"#utility.yul\":18886:18888   */\n      0x20\n        /* \"#utility.yul\":18875:18884   */\n      dup6\n        /* \"#utility.yul\":18871:18889   */\n      add\n        /* \"#utility.yul\":18858:18889   */\n      swap5\n      pop\n        /* \"#utility.yul\":18732:18736   */\n      0x20\n        /* \"#utility.yul\":18729:18730   */\n      dup2\n        /* \"#utility.yul\":18725:18737   */\n      add\n        /* \"#utility.yul\":18720:18737   */\n      swap1\n      pop\n        /* \"#utility.yul\":18695:18903   */\n      jump(tag_392)\n    tag_394:\n        /* \"#utility.yul\":18931:18937   */\n      dup7\n        /* \"#utility.yul\":18922:18929   */\n      dup4\n        /* \"#utility.yul\":18919:18938   */\n      lt\n        /* \"#utility.yul\":18916:19095   */\n      iszero\n      tag_395\n      jumpi\n        /* \"#utility.yul\":18989:18998   */\n      dup5\n        /* \"#utility.yul\":18984:18987   */\n      dup10\n        /* \"#utility.yul\":18980:18999   */\n      add\n        /* \"#utility.yul\":18974:19000   */\n      mload\n        /* \"#utility.yul\":19032:19080   */\n      tag_396\n        /* \"#utility.yul\":19074:19078   */\n      0x1f\n        /* \"#utility.yul\":19066:19072   */\n      dup10\n        /* \"#utility.yul\":19062:19079   */\n      and\n        /* \"#utility.yul\":19051:19060   */\n      dup3\n        /* \"#utility.yul\":19032:19080   */\n      tag_196\n      jump\t// in\n    tag_396:\n        /* \"#utility.yul\":19024:19030   */\n      dup4\n        /* \"#utility.yul\":19017:19081   */\n      sstore\n        /* \"#utility.yul\":18939:19095   */\n      pop\n        /* \"#utility.yul\":18916:19095   */\n    tag_395:\n        /* \"#utility.yul\":19141:19142   */\n      0x01\n        /* \"#utility.yul\":19137:19138   */\n      0x02\n        /* \"#utility.yul\":19129:19135   */\n      dup9\n        /* \"#utility.yul\":19125:19139   */\n      mul\n        /* \"#utility.yul\":19121:19143   */\n      add\n        /* \"#utility.yul\":19115:19119   */\n      dup9\n        /* \"#utility.yul\":19108:19144   */\n      sstore\n        /* \"#utility.yul\":18543:19154   */\n      pop\n      pop\n      pop\n        /* \"#utility.yul\":18506:19393   */\n    tag_387:\n      pop\n        /* \"#utility.yul\":18096:19399   */\n      pop\n      pop\n      pop\n        /* \"#utility.yul\":18004:19399   */\n      pop\n      pop\n      jump\t// out\n        /* \"#utility.yul\":19405:19718   */\n    tag_97:\n        /* \"#utility.yul\":19518:19522   */\n      0x00\n        /* \"#utility.yul\":19556:19558   */\n      0x20\n        /* \"#utility.yul\":19545:19554   */\n      dup3\n        /* \"#utility.yul\":19541:19559   */\n      add\n        /* \"#utility.yul\":19533:19559   */\n      swap1\n      pop\n        /* \"#utility.yul\":19605:19614   */\n      dup2\n        /* \"#utility.yul\":19599:19603   */\n      dup2\n        /* \"#utility.yul\":19595:19615   */\n      sub\n        /* \"#utility.yul\":19591:19592   */\n      0x00\n        /* \"#utility.yul\":19580:19589   */\n      dup4\n        /* \"#utility.yul\":19576:19593   */\n      add\n        /* \"#utility.yul\":19569:19616   */\n      mstore\n        /* \"#utility.yul\":19633:19711   */\n      tag_398\n        /* \"#utility.yul\":19706:19710   */\n      dup2\n        /* \"#utility.yul\":19697:19703   */\n      dup5\n        /* \"#utility.yul\":19633:19711   */\n      tag_161\n      jump\t// in\n    tag_398:\n        /* \"#utility.yul\":19625:19711   */\n      swap1\n      pop\n        /* \"#utility.yul\":19405:19718   */\n      swap3\n      swap2\n      pop\n      pop\n      jump\t// out\n        /* \"#utility.yul\":19724:19842   */\n    tag_198:\n        /* \"#utility.yul\":19811:19835   */\n      tag_400\n        /* \"#utility.yul\":19829:19834   */\n      dup2\n        /* \"#utility.yul\":19811:19835   */\n      tag_143\n      jump\t// in\n    tag_400:\n        /* \"#utility.yul\":19806:19809   */\n      dup3\n        /* \"#utility.yul\":19799:19836   */\n      mstore\n        /* \"#utility.yul\":19724:19842   */\n      pop\n      pop\n      jump\t// out\n        /* \"#utility.yul\":19848:20070   */\n    tag_135:\n        /* \"#utility.yul\":19941:19945   */\n      0x00\n        /* \"#utility.yul\":19979:19981   */\n      0x20\n        /* \"#utility.yul\":19968:19977   */\n      dup3\n        /* \"#utility.yul\":19964:19982   */\n      add\n        /* \"#utility.yul\":19956:19982   */\n      swap1\n      pop\n        /* \"#utility.yul\":19992:20063   */\n      tag_402\n        /* \"#utility.yul\":20060:20061   */\n      0x00\n        /* \"#utility.yul\":20049:20058   */\n      dup4\n        /* \"#utility.yul\":20045:20062   */\n      add\n        /* \"#utility.yul\":20036:20042   */\n      dup5\n        /* \"#utility.yul\":19992:20063   */\n      tag_198\n      jump\t// in\n    tag_402:\n        /* \"#utility.yul\":19848:20070   */\n      swap3\n      swap2\n      pop\n      pop\n      jump\t// out\n\n    auxdata: 0xa2646970667358221220b0b353849fe273e48cfa710c3a7c15fd824f14965cdbf196d6e688202e094d4464736f6c634300081a0033\n}\n",
				"bytecode": {
					"linkReferences": {},
					"object": "6080604052348015600e575f80fd5b506117728061001c5f395ff3fe608060405234801561000f575f80fd5b506004361061007b575f3560e01c806382a6c0ac1161005957806382a6c0ac146100d35780639937464214610106578063a0076e8414610136578063ea1020ea146101665761007b565b8063492de2f21461007f578063630a195b1461009b57806366858ec8146100b7575b5f80fd5b61009960048036038101906100949190610dec565b610182565b005b6100b560048036038101906100b09190610e4d565b61057f565b005b6100d160048036038101906100cc9190610fc7565b6105e6565b005b6100ed60048036038101906100e89190610dec565b6107e5565b6040516100fd949392919061109b565b60405180910390f35b610120600480360381019061011b91906110e5565b6108d7565b60405161012d9190611183565b60405180910390f35b610150600480360381019061014b91906110e5565b6108f3565b60405161015d919061130e565b60405180910390f35b610180600480360381019061017b9190610dec565b610a6b565b005b5f600381111561019557610194611110565b5b5f803373ffffffffffffffffffffffffffffffffffffffff1673ffffffffffffffffffffffffffffffffffffffff1681526020019081526020015f205f9054906101000a900460ff1660038111156101f0576101ef611110565b5b03610230576040517f08c379a000000000000000000000000000000000000000000000000000000000815260040161022790611378565b60405180910390fd5b60015f8373ffffffffffffffffffffffffffffffffffffffff1673ffffffffffffffffffffffffffffffffffffffff1681526020019081526020015f208054905081106102b2576040517f08c379a00000000000000000000000000000000000000000000000000000000081526004016102a9906113e0565b60405180910390fd5b600260038111156102c6576102c5611110565b5b5f803373ffffffffffffffffffffffffffffffffffffffff1673ffffffffffffffffffffffffffffffffffffffff1681526020019081526020015f205f9054906101000a900460ff16600381111561032157610320611110565b5b036103a1576001805f8473ffffffffffffffffffffffffffffffffffffffff1673ffffffffffffffffffffffffffffffffffffffff1681526020019081526020015f208281548110610376576103756113fe565b5b905f5260205f20906002020160010160016101000a81548160ff02191690831515021790555061057b565b600160038111156103b5576103b4611110565b5b5f803373ffffffffffffffffffffffffffffffffffffffff1673ffffffffffffffffffffffffffffffffffffffff1681526020019081526020015f205f9054906101000a900460ff1660038111156104105761040f611110565b5b0361048f576001805f8473ffffffffffffffffffffffffffffffffffffffff1673ffffffffffffffffffffffffffffffffffffffff1681526020019081526020015f208281548110610465576104646113fe565b5b905f5260205f2090600202016001015f6101000a81548160ff02191690831515021790555061057a565b6003808111156104a2576104a1611110565b5b5f803373ffffffffffffffffffffffffffffffffffffffff1673ffffffffffffffffffffffffffffffffffffffff1681526020019081526020015f205f9054906101000a900460ff1660038111156104fd576104fc611110565b5b03610579576001805f8473ffffffffffffffffffffffffffffffffffffffff1673ffffffffffffffffffffffffffffffffffffffff1681526020019081526020015f208281548110610552576105516113fe565b5b905f5260205f20906002020160010160026101000a81548160ff0219169083151502179055505b5b5b5050565b805f808473ffffffffffffffffffffffffffffffffffffffff1673ffffffffffffffffffffffffffffffffffffffff1681526020019081526020015f205f6101000a81548160ff021916908360038111156105dd576105dc611110565b5b02179055505050565b5f60038111156105f9576105f8611110565b5b5f803373ffffffffffffffffffffffffffffffffffffffff1673ffffffffffffffffffffffffffffffffffffffff1681526020019081526020015f205f9054906101000a900460ff16600381111561065457610653611110565b5b03610694576040517f08c379a000000000000000000000000000000000000000000000000000000000815260040161068b90611378565b60405180910390fd5b60015f8373ffffffffffffffffffffffffffffffffffffffff1673ffffffffffffffffffffffffffffffffffffffff1681526020019081526020015f2060405180608001604052808381526020015f151581526020015f151581526020015f1515815250908060018154018082558091505060019003905f5260205f2090600202015f909190919091505f820151815f0190816107319190611625565b506020820151816001015f6101000a81548160ff02191690831515021790555060408201518160010160016101000a81548160ff02191690831515021790555060608201518160010160026101000a81548160ff02191690831515021790555050508173ffffffffffffffffffffffffffffffffffffffff167f44626cfec8a165f72396cc5e247c6b96279f8c205a8d07c390df7aa5806205fa826040516107d991906116f4565b60405180910390a25050565b6001602052815f5260405f2081815481106107fe575f80fd5b905f5260205f2090600202015f9150915050805f01805461081e90611458565b80601f016020809104026020016040519081016040528092919081815260200182805461084a90611458565b80156108955780601f1061086c57610100808354040283529160200191610895565b820191905f5260205f20905b81548152906001019060200180831161087857829003601f168201915b505050505090806001015f9054906101000a900460ff16908060010160019054906101000a900460ff16908060010160029054906101000a900460ff16905084565b5f602052805f5260405f205f915054906101000a900460ff1681565b606060015f8373ffffffffffffffffffffffffffffffffffffffff1673ffffffffffffffffffffffffffffffffffffffff1681526020019081526020015f20805480602002602001604051908101604052809291908181526020015f905b82821015610a60578382905f5260205f2090600202016040518060800160405290815f8201805461098190611458565b80601f01602080910402602001604051908101604052809291908181526020018280546109ad90611458565b80156109f85780601f106109cf576101008083540402835291602001916109f8565b820191905f5260205f20905b8154815290600101906020018083116109db57829003601f168201915b50505050508152602001600182015f9054906101000a900460ff161515151581526020016001820160019054906101000a900460ff161515151581526020016001820160029054906101000a900460ff16151515158152505081526020019060010190610951565b505050509050919050565b5f6003811115610a7e57610a7d611110565b5b5f803373ffffffffffffffffffffffffffffffffffffffff1673ffffffffffffffffffffffffffffffffffffffff1681526020019081526020015f205f9054906101000a900460ff166003811115610ad957610ad8611110565b5b03610b19576040517f08c379a0000000000000000000000000000000000000000000000000000000008152600401610b1090611378565b60405180910390fd5b60015f8373ffffffffffffffffffffffffffffffffffffffff1673ffffffffffffffffffffffffffffffffffffffff1681526020019081526020015f20805490508110610b9b576040517f08c379a0000000000000000000000000000000000000000000000000000000008152600401610b92906113e0565b60405180910390fd5b5f60015f8473ffffffffffffffffffffffffffffffffffffffff1673ffffffffffffffffffffffffffffffffffffffff1681526020019081526020015f208281548110610beb57610bea6113fe565b5b905f5260205f2090600202016001015f6101000a81548160ff0219169083151502179055505f60015f8473ffffffffffffffffffffffffffffffffffffffff1673ffffffffffffffffffffffffffffffffffffffff1681526020019081526020015f208281548110610c6057610c5f6113fe565b5b905f5260205f20906002020160010160016101000a81548160ff0219169083151502179055505f60015f8473ffffffffffffffffffffffffffffffffffffffff1673ffffffffffffffffffffffffffffffffffffffff1681526020019081526020015f208281548110610cd657610cd56113fe565b5b905f5260205f20906002020160010160026101000a81548160ff0219169083151502179055508173ffffffffffffffffffffffffffffffffffffffff167f867ee34e7b32b226f87f4418c683b900d2c5b5ca18afd3012ed61824b530662a82604051610d429190611723565b60405180910390a25050565b5f604051905090565b5f80fd5b5f80fd5b5f73ffffffffffffffffffffffffffffffffffffffff82169050919050565b5f610d8882610d5f565b9050919050565b610d9881610d7e565b8114610da2575f80fd5b50565b5f81359050610db381610d8f565b92915050565b5f819050919050565b610dcb81610db9565b8114610dd5575f80fd5b50565b5f81359050610de681610dc2565b92915050565b5f8060408385031215610e0257610e01610d57565b5b5f610e0f85828601610da5565b9250506020610e2085828601610dd8565b9150509250929050565b60048110610e36575f80fd5b50565b5f81359050610e4781610e2a565b92915050565b5f8060408385031215610e6357610e62610d57565b5b5f610e7085828601610da5565b9250506020610e8185828601610e39565b9150509250929050565b5f80fd5b5f80fd5b5f601f19601f8301169050919050565b7f4e487b71000000000000000000000000000000000000000000000000000000005f52604160045260245ffd5b610ed982610e93565b810181811067ffffffffffffffff82111715610ef857610ef7610ea3565b5b80604052505050565b5f610f0a610d4e565b9050610f168282610ed0565b919050565b5f67ffffffffffffffff821115610f3557610f34610ea3565b5b610f3e82610e93565b9050602081019050919050565b828183375f83830152505050565b5f610f6b610f6684610f1b565b610f01565b905082815260208101848484011115610f8757610f86610e8f565b5b610f92848285610f4b565b509392505050565b5f82601f830112610fae57610fad610e8b565b5b8135610fbe848260208601610f59565b91505092915050565b5f8060408385031215610fdd57610fdc610d57565b5b5f610fea85828601610da5565b925050602083013567ffffffffffffffff81111561100b5761100a610d5b565b5b61101785828601610f9a565b9150509250929050565b5f81519050919050565b5f82825260208201905092915050565b8281835e5f83830152505050565b5f61105382611021565b61105d818561102b565b935061106d81856020860161103b565b61107681610e93565b840191505092915050565b5f8115159050919050565b61109581611081565b82525050565b5f6080820190508181035f8301526110b38187611049565b90506110c2602083018661108c565b6110cf604083018561108c565b6110dc606083018461108c565b95945050505050565b5f602082840312156110fa576110f9610d57565b5b5f61110784828501610da5565b91505092915050565b7f4e487b71000000000000000000000000000000000000000000000000000000005f52602160045260245ffd5b6004811061114e5761114d611110565b5b50565b5f81905061115e8261113d565b919050565b5f61116d82611151565b9050919050565b61117d81611163565b82525050565b5f6020820190506111965f830184611174565b92915050565b5f81519050919050565b5f82825260208201905092915050565b5f819050602082019050919050565b5f82825260208201905092915050565b5f6111df82611021565b6111e981856111c5565b93506111f981856020860161103b565b61120281610e93565b840191505092915050565b61121681611081565b82525050565b5f608083015f8301518482035f86015261123682826111d5565b915050602083015161124b602086018261120d565b50604083015161125e604086018261120d565b506060830151611271606086018261120d565b508091505092915050565b5f611287838361121c565b905092915050565b5f602082019050919050565b5f6112a58261119c565b6112af81856111a6565b9350836020820285016112c1856111b6565b805f5b858110156112fc57848403895281516112dd858261127c565b94506112e88361128f565b925060208a019950506001810190506112c4565b50829750879550505050505092915050565b5f6020820190508181035f830152611326818461129b565b905092915050565b7f4e6f7420617574686f72697a65640000000000000000000000000000000000005f82015250565b5f611362600e8361102b565b915061136d8261132e565b602082019050919050565b5f6020820190508181035f83015261138f81611356565b9050919050565b7f496e76616c6964207265636f726420696e6465780000000000000000000000005f82015250565b5f6113ca60148361102b565b91506113d582611396565b602082019050919050565b5f6020820190508181035f8301526113f7816113be565b9050919050565b7f4e487b71000000000000000000000000000000000000000000000000000000005f52603260045260245ffd5b7f4e487b71000000000000000000000000000000000000000000000000000000005f52602260045260245ffd5b5f600282049050600182168061146f57607f821691505b6020821081036114825761148161142b565b5b50919050565b5f819050815f5260205f209050919050565b5f6020601f8301049050919050565b5f82821b905092915050565b5f600883026114e47fffffffffffffffffffffffffffffffffffffffffffffffffffffffffffffffff826114a9565b6114ee86836114a9565b95508019841693508086168417925050509392505050565b5f819050919050565b5f61152961152461151f84610db9565b611506565b610db9565b9050919050565b5f819050919050565b6115428361150f565b61155661154e82611530565b8484546114b5565b825550505050565b5f90565b61156a61155e565b611575818484611539565b505050565b5b818110156115985761158d5f82611562565b60018101905061157b565b5050565b601f8211156115dd576115ae81611488565b6115b78461149a565b810160208510156115c6578190505b6115da6115d28561149a565b83018261157a565b50505b505050565b5f82821c905092915050565b5f6115fd5f19846008026115e2565b1980831691505092915050565b5f61161583836115ee565b9150826002028217905092915050565b61162e82611021565b67ffffffffffffffff81111561164757611646610ea3565b5b6116518254611458565b61165c82828561159c565b5f60209050601f83116001811461168d575f841561167b578287015190505b611685858261160a565b8655506116ec565b601f19841661169b86611488565b5f5b828110156116c25784890151825560018201915060208501945060208101905061169d565b868310156116df57848901516116db601f8916826115ee565b8355505b6001600288020188555050505b505050505050565b5f6020820190508181035f83015261170c8184611049565b905092915050565b61171d81610db9565b82525050565b5f6020820190506117365f830184611714565b9291505056fea2646970667358221220b0b353849fe273e48cfa710c3a7c15fd824f14965cdbf196d6e688202e094d4464736f6c634300081a0033",
					"opcodes": "PUSH1 0x80 PUSH1 0x40 MSTORE CALLVALUE DUP1 ISZERO PUSH1 0xE JUMPI PUSH0 DUP1 REVERT JUMPDEST POP PUSH2 0x1772 DUP1 PUSH2 0x1C PUSH0 CODECOPY PUSH0 RETURN INVALID PUSH1 0x80 PUSH1 0x40 MSTORE CALLVALUE DUP1 ISZERO PUSH2 0xF JUMPI PUSH0 DUP1 REVERT JUMPDEST POP PUSH1 0x4 CALLDATASIZE LT PUSH2 0x7B JUMPI PUSH0 CALLDATALOAD PUSH1 0xE0 SHR DUP1 PUSH4 0x82A6C0AC GT PUSH2 0x59 JUMPI DUP1 PUSH4 0x82A6C0AC EQ PUSH2 0xD3 JUMPI DUP1 PUSH4 0x99374642 EQ PUSH2 0x106 JUMPI DUP1 PUSH4 0xA0076E84 EQ PUSH2 0x136 JUMPI DUP1 PUSH4 0xEA1020EA EQ PUSH2 0x166 JUMPI PUSH2 0x7B JUMP JUMPDEST DUP1 PUSH4 0x492DE2F2 EQ PUSH2 0x7F JUMPI DUP1 PUSH4 0x630A195B EQ PUSH2 0x9B JUMPI DUP1 PUSH4 0x66858EC8 EQ PUSH2 0xB7 JUMPI JUMPDEST PUSH0 DUP1 REVERT JUMPDEST PUSH2 0x99 PUSH1 0x4 DUP1 CALLDATASIZE SUB DUP2 ADD SWAP1 PUSH2 0x94 SWAP2 SWAP1 PUSH2 0xDEC JUMP JUMPDEST PUSH2 0x182 JUMP JUMPDEST STOP JUMPDEST PUSH2 0xB5 PUSH1 0x4 DUP1 CALLDATASIZE SUB DUP2 ADD SWAP1 PUSH2 0xB0 SWAP2 SWAP1 PUSH2 0xE4D JUMP JUMPDEST PUSH2 0x57F JUMP JUMPDEST STOP JUMPDEST PUSH2 0xD1 PUSH1 0x4 DUP1 CALLDATASIZE SUB DUP2 ADD SWAP1 PUSH2 0xCC SWAP2 SWAP1 PUSH2 0xFC7 JUMP JUMPDEST PUSH2 0x5E6 JUMP JUMPDEST STOP JUMPDEST PUSH2 0xED PUSH1 0x4 DUP1 CALLDATASIZE SUB DUP2 ADD SWAP1 PUSH2 0xE8 SWAP2 SWAP1 PUSH2 0xDEC JUMP JUMPDEST PUSH2 0x7E5 JUMP JUMPDEST PUSH1 0x40 MLOAD PUSH2 0xFD SWAP5 SWAP4 SWAP3 SWAP2 SWAP1 PUSH2 0x109B JUMP JUMPDEST PUSH1 0x40 MLOAD DUP1 SWAP2 SUB SWAP1 RETURN JUMPDEST PUSH2 0x120 PUSH1 0x4 DUP1 CALLDATASIZE SUB DUP2 ADD SWAP1 PUSH2 0x11B SWAP2 SWAP1 PUSH2 0x10E5 JUMP JUMPDEST PUSH2 0x8D7 JUMP JUMPDEST PUSH1 0x40 MLOAD PUSH2 0x12D SWAP2 SWAP1 PUSH2 0x1183 JUMP JUMPDEST PUSH1 0x40 MLOAD DUP1 SWAP2 SUB SWAP1 RETURN JUMPDEST PUSH2 0x150 PUSH1 0x4 DUP1 CALLDATASIZE SUB DUP2 ADD SWAP1 PUSH2 0x14B SWAP2 SWAP1 PUSH2 0x10E5 JUMP JUMPDEST PUSH2 0x8F3 JUMP JUMPDEST PUSH1 0x40 MLOAD PUSH2 0x15D SWAP2 SWAP1 PUSH2 0x130E JUMP JUMPDEST PUSH1 0x40 MLOAD DUP1 SWAP2 SUB SWAP1 RETURN JUMPDEST PUSH2 0x180 PUSH1 0x4 DUP1 CALLDATASIZE SUB DUP2 ADD SWAP1 PUSH2 0x17B SWAP2 SWAP1 PUSH2 0xDEC JUMP JUMPDEST PUSH2 0xA6B JUMP JUMPDEST STOP JUMPDEST PUSH0 PUSH1 0x3 DUP2 GT ISZERO PUSH2 0x195 JUMPI PUSH2 0x194 PUSH2 0x1110 JUMP JUMPDEST JUMPDEST PUSH0 DUP1 CALLER PUSH20 0xFFFFFFFFFFFFFFFFFFFFFFFFFFFFFFFFFFFFFFFF AND PUSH20 0xFFFFFFFFFFFFFFFFFFFFFFFFFFFFFFFFFFFFFFFF AND DUP2 MSTORE PUSH1 0x20 ADD SWAP1 DUP2 MSTORE PUSH1 0x20 ADD PUSH0 KECCAK256 PUSH0 SWAP1 SLOAD SWAP1 PUSH2 0x100 EXP SWAP1 DIV PUSH1 0xFF AND PUSH1 0x3 DUP2 GT ISZERO PUSH2 0x1F0 JUMPI PUSH2 0x1EF PUSH2 0x1110 JUMP JUMPDEST JUMPDEST SUB PUSH2 0x230 JUMPI PUSH1 0x40 MLOAD PUSH32 0x8C379A000000000000000000000000000000000000000000000000000000000 DUP2 MSTORE PUSH1 0x4 ADD PUSH2 0x227 SWAP1 PUSH2 0x1378 JUMP JUMPDEST PUSH1 0x40 MLOAD DUP1 SWAP2 SUB SWAP1 REVERT JUMPDEST PUSH1 0x1 PUSH0 DUP4 PUSH20 0xFFFFFFFFFFFFFFFFFFFFFFFFFFFFFFFFFFFFFFFF AND PUSH20 0xFFFFFFFFFFFFFFFFFFFFFFFFFFFFFFFFFFFFFFFF AND DUP2 MSTORE PUSH1 0x20 ADD SWAP1 DUP2 MSTORE PUSH1 0x20 ADD PUSH0 KECCAK256 DUP1 SLOAD SWAP1 POP DUP2 LT PUSH2 0x2B2 JUMPI PUSH1 0x40 MLOAD PUSH32 0x8C379A000000000000000000000000000000000000000000000000000000000 DUP2 MSTORE PUSH1 0x4 ADD PUSH2 0x2A9 SWAP1 PUSH2 0x13E0 JUMP JUMPDEST PUSH1 0x40 MLOAD DUP1 SWAP2 SUB SWAP1 REVERT JUMPDEST PUSH1 0x2 PUSH1 0x3 DUP2 GT ISZERO PUSH2 0x2C6 JUMPI PUSH2 0x2C5 PUSH2 0x1110 JUMP JUMPDEST JUMPDEST PUSH0 DUP1 CALLER PUSH20 0xFFFFFFFFFFFFFFFFFFFFFFFFFFFFFFFFFFFFFFFF AND PUSH20 0xFFFFFFFFFFFFFFFFFFFFFFFFFFFFFFFFFFFFFFFF AND DUP2 MSTORE PUSH1 0x20 ADD SWAP1 DUP2 MSTORE PUSH1 0x20 ADD PUSH0 KECCAK256 PUSH0 SWAP1 SLOAD SWAP1 PUSH2 0x100 EXP SWAP1 DIV PUSH1 0xFF AND PUSH1 0x3 DUP2 GT ISZERO PUSH2 0x321 JUMPI PUSH2 0x320 PUSH2 0x1110 JUMP JUMPDEST JUMPDEST SUB PUSH2 0x3A1 JUMPI PUSH1 0x1 DUP1 PUSH0 DUP5 PUSH20 0xFFFFFFFFFFFFFFFFFFFFFFFFFFFFFFFFFFFFFFFF AND PUSH20 0xFFFFFFFFFFFFFFFFFFFFFFFFFFFFFFFFFFFFFFFF AND DUP2 MSTORE PUSH1 0x20 ADD SWAP1 DUP2 MSTORE PUSH1 0x20 ADD PUSH0 KECCAK256 DUP3 DUP2 SLOAD DUP2 LT PUSH2 0x376 JUMPI PUSH2 0x375 PUSH2 0x13FE JUMP JUMPDEST JUMPDEST SWAP1 PUSH0 MSTORE PUSH1 0x20 PUSH0 KECCAK256 SWAP1 PUSH1 0x2 MUL ADD PUSH1 0x1 ADD PUSH1 0x1 PUSH2 0x100 EXP DUP2 SLOAD DUP2 PUSH1 0xFF MUL NOT AND SWAP1 DUP4 ISZERO ISZERO MUL OR SWAP1 SSTORE POP PUSH2 0x57B JUMP JUMPDEST PUSH1 0x1 PUSH1 0x3 DUP2 GT ISZERO PUSH2 0x3B5 JUMPI PUSH2 0x3B4 PUSH2 0x1110 JUMP JUMPDEST JUMPDEST PUSH0 DUP1 CALLER PUSH20 0xFFFFFFFFFFFFFFFFFFFFFFFFFFFFFFFFFFFFFFFF AND PUSH20 0xFFFFFFFFFFFFFFFFFFFFFFFFFFFFFFFFFFFFFFFF AND DUP2 MSTORE PUSH1 0x20 ADD SWAP1 DUP2 MSTORE PUSH1 0x20 ADD PUSH0 KECCAK256 PUSH0 SWAP1 SLOAD SWAP1 PUSH2 0x100 EXP SWAP1 DIV PUSH1 0xFF AND PUSH1 0x3 DUP2 GT ISZERO PUSH2 0x410 JUMPI PUSH2 0x40F PUSH2 0x1110 JUMP JUMPDEST JUMPDEST SUB PUSH2 0x48F JUMPI PUSH1 0x1 DUP1 PUSH0 DUP5 PUSH20 0xFFFFFFFFFFFFFFFFFFFFFFFFFFFFFFFFFFFFFFFF AND PUSH20 0xFFFFFFFFFFFFFFFFFFFFFFFFFFFFFFFFFFFFFFFF AND DUP2 MSTORE PUSH1 0x20 ADD SWAP1 DUP2 MSTORE PUSH1 0x20 ADD PUSH0 KECCAK256 DUP3 DUP2 SLOAD DUP2 LT PUSH2 0x465 JUMPI PUSH2 0x464 PUSH2 0x13FE JUMP JUMPDEST JUMPDEST SWAP1 PUSH0 MSTORE PUSH1 0x20 PUSH0 KECCAK256 SWAP1 PUSH1 0x2 MUL ADD PUSH1 0x1 ADD PUSH0 PUSH2 0x100 EXP DUP2 SLOAD DUP2 PUSH1 0xFF MUL NOT AND SWAP1 DUP4 ISZERO ISZERO MUL OR SWAP1 SSTORE POP PUSH2 0x57A JUMP JUMPDEST PUSH1 0x3 DUP1 DUP2 GT ISZERO PUSH2 0x4A2 JUMPI PUSH2 0x4A1 PUSH2 0x1110 JUMP JUMPDEST JUMPDEST PUSH0 DUP1 CALLER PUSH20 0xFFFFFFFFFFFFFFFFFFFFFFFFFFFFFFFFFFFFFFFF AND PUSH20 0xFFFFFFFFFFFFFFFFFFFFFFFFFFFFFFFFFFFFFFFF AND DUP2 MSTORE PUSH1 0x20 ADD SWAP1 DUP2 MSTORE PUSH1 0x20 ADD PUSH0 KECCAK256 PUSH0 SWAP1 SLOAD SWAP1 PUSH2 0x100 EXP SWAP1 DIV PUSH1 0xFF AND PUSH1 0x3 DUP2 GT ISZERO PUSH2 0x4FD JUMPI PUSH2 0x4FC PUSH2 0x1110 JUMP JUMPDEST JUMPDEST SUB PUSH2 0x579 JUMPI PUSH1 0x1 DUP1 PUSH0 DUP5 PUSH20 0xFFFFFFFFFFFFFFFFFFFFFFFFFFFFFFFFFFFFFFFF AND PUSH20 0xFFFFFFFFFFFFFFFFFFFFFFFFFFFFFFFFFFFFFFFF AND DUP2 MSTORE PUSH1 0x20 ADD SWAP1 DUP2 MSTORE PUSH1 0x20 ADD PUSH0 KECCAK256 DUP3 DUP2 SLOAD DUP2 LT PUSH2 0x552 JUMPI PUSH2 0x551 PUSH2 0x13FE JUMP JUMPDEST JUMPDEST SWAP1 PUSH0 MSTORE PUSH1 0x20 PUSH0 KECCAK256 SWAP1 PUSH1 0x2 MUL ADD PUSH1 0x1 ADD PUSH1 0x2 PUSH2 0x100 EXP DUP2 SLOAD DUP2 PUSH1 0xFF MUL NOT AND SWAP1 DUP4 ISZERO ISZERO MUL OR SWAP1 SSTORE POP JUMPDEST JUMPDEST JUMPDEST POP POP JUMP JUMPDEST DUP1 PUSH0 DUP1 DUP5 PUSH20 0xFFFFFFFFFFFFFFFFFFFFFFFFFFFFFFFFFFFFFFFF AND PUSH20 0xFFFFFFFFFFFFFFFFFFFFFFFFFFFFFFFFFFFFFFFF AND DUP2 MSTORE PUSH1 0x20 ADD SWAP1 DUP2 MSTORE PUSH1 0x20 ADD PUSH0 KECCAK256 PUSH0 PUSH2 0x100 EXP DUP2 SLOAD DUP2 PUSH1 0xFF MUL NOT AND SWAP1 DUP4 PUSH1 0x3 DUP2 GT ISZERO PUSH2 0x5DD JUMPI PUSH2 0x5DC PUSH2 0x1110 JUMP JUMPDEST JUMPDEST MUL OR SWAP1 SSTORE POP POP POP JUMP JUMPDEST PUSH0 PUSH1 0x3 DUP2 GT ISZERO PUSH2 0x5F9 JUMPI PUSH2 0x5F8 PUSH2 0x1110 JUMP JUMPDEST JUMPDEST PUSH0 DUP1 CALLER PUSH20 0xFFFFFFFFFFFFFFFFFFFFFFFFFFFFFFFFFFFFFFFF AND PUSH20 0xFFFFFFFFFFFFFFFFFFFFFFFFFFFFFFFFFFFFFFFF AND DUP2 MSTORE PUSH1 0x20 ADD SWAP1 DUP2 MSTORE PUSH1 0x20 ADD PUSH0 KECCAK256 PUSH0 SWAP1 SLOAD SWAP1 PUSH2 0x100 EXP SWAP1 DIV PUSH1 0xFF AND PUSH1 0x3 DUP2 GT ISZERO PUSH2 0x654 JUMPI PUSH2 0x653 PUSH2 0x1110 JUMP JUMPDEST JUMPDEST SUB PUSH2 0x694 JUMPI PUSH1 0x40 MLOAD PUSH32 0x8C379A000000000000000000000000000000000000000000000000000000000 DUP2 MSTORE PUSH1 0x4 ADD PUSH2 0x68B SWAP1 PUSH2 0x1378 JUMP JUMPDEST PUSH1 0x40 MLOAD DUP1 SWAP2 SUB SWAP1 REVERT JUMPDEST PUSH1 0x1 PUSH0 DUP4 PUSH20 0xFFFFFFFFFFFFFFFFFFFFFFFFFFFFFFFFFFFFFFFF AND PUSH20 0xFFFFFFFFFFFFFFFFFFFFFFFFFFFFFFFFFFFFFFFF AND DUP2 MSTORE PUSH1 0x20 ADD SWAP1 DUP2 MSTORE PUSH1 0x20 ADD PUSH0 KECCAK256 PUSH1 0x40 MLOAD DUP1 PUSH1 0x80 ADD PUSH1 0x40 MSTORE DUP1 DUP4 DUP2 MSTORE PUSH1 0x20 ADD PUSH0 ISZERO ISZERO DUP2 MSTORE PUSH1 0x20 ADD PUSH0 ISZERO ISZERO DUP2 MSTORE PUSH1 0x20 ADD PUSH0 ISZERO ISZERO DUP2 MSTORE POP SWAP1 DUP1 PUSH1 0x1 DUP2 SLOAD ADD DUP1 DUP3 SSTORE DUP1 SWAP2 POP POP PUSH1 0x1 SWAP1 SUB SWAP1 PUSH0 MSTORE PUSH1 0x20 PUSH0 KECCAK256 SWAP1 PUSH1 0x2 MUL ADD PUSH0 SWAP1 SWAP2 SWAP1 SWAP2 SWAP1 SWAP2 POP PUSH0 DUP3 ADD MLOAD DUP2 PUSH0 ADD SWAP1 DUP2 PUSH2 0x731 SWAP2 SWAP1 PUSH2 0x1625 JUMP JUMPDEST POP PUSH1 0x20 DUP3 ADD MLOAD DUP2 PUSH1 0x1 ADD PUSH0 PUSH2 0x100 EXP DUP2 SLOAD DUP2 PUSH1 0xFF MUL NOT AND SWAP1 DUP4 ISZERO ISZERO MUL OR SWAP1 SSTORE POP PUSH1 0x40 DUP3 ADD MLOAD DUP2 PUSH1 0x1 ADD PUSH1 0x1 PUSH2 0x100 EXP DUP2 SLOAD DUP2 PUSH1 0xFF MUL NOT AND SWAP1 DUP4 ISZERO ISZERO MUL OR SWAP1 SSTORE POP PUSH1 0x60 DUP3 ADD MLOAD DUP2 PUSH1 0x1 ADD PUSH1 0x2 PUSH2 0x100 EXP DUP2 SLOAD DUP2 PUSH1 0xFF MUL NOT AND SWAP1 DUP4 ISZERO ISZERO MUL OR SWAP1 SSTORE POP POP POP DUP2 PUSH20 0xFFFFFFFFFFFFFFFFFFFFFFFFFFFFFFFFFFFFFFFF AND PUSH32 0x44626CFEC8A165F72396CC5E247C6B96279F8C205A8D07C390DF7AA5806205FA DUP3 PUSH1 0x40 MLOAD PUSH2 0x7D9 SWAP2 SWAP1 PUSH2 0x16F4 JUMP JUMPDEST PUSH1 0x40 MLOAD DUP1 SWAP2 SUB SWAP1 LOG2 POP POP JUMP JUMPDEST PUSH1 0x1 PUSH1 0x20 MSTORE DUP2 PUSH0 MSTORE PUSH1 0x40 PUSH0 KECCAK256 DUP2 DUP2 SLOAD DUP2 LT PUSH2 0x7FE JUMPI PUSH0 DUP1 REVERT JUMPDEST SWAP1 PUSH0 MSTORE PUSH1 0x20 PUSH0 KECCAK256 SWAP1 PUSH1 0x2 MUL ADD PUSH0 SWAP2 POP SWAP2 POP POP DUP1 PUSH0 ADD DUP1 SLOAD PUSH2 0x81E SWAP1 PUSH2 0x1458 JUMP JUMPDEST DUP1 PUSH1 0x1F ADD PUSH1 0x20 DUP1 SWAP2 DIV MUL PUSH1 0x20 ADD PUSH1 0x40 MLOAD SWAP1 DUP2 ADD PUSH1 0x40 MSTORE DUP1 SWAP3 SWAP2 SWAP1 DUP2 DUP2 MSTORE PUSH1 0x20 ADD DUP3 DUP1 SLOAD PUSH2 0x84A SWAP1 PUSH2 0x1458 JUMP JUMPDEST DUP1 ISZERO PUSH2 0x895 JUMPI DUP1 PUSH1 0x1F LT PUSH2 0x86C JUMPI PUSH2 0x100 DUP1 DUP4 SLOAD DIV MUL DUP4 MSTORE SWAP2 PUSH1 0x20 ADD SWAP2 PUSH2 0x895 JUMP JUMPDEST DUP3 ADD SWAP2 SWAP1 PUSH0 MSTORE PUSH1 0x20 PUSH0 KECCAK256 SWAP1 JUMPDEST DUP2 SLOAD DUP2 MSTORE SWAP1 PUSH1 0x1 ADD SWAP1 PUSH1 0x20 ADD DUP1 DUP4 GT PUSH2 0x878 JUMPI DUP3 SWAP1 SUB PUSH1 0x1F AND DUP3 ADD SWAP2 JUMPDEST POP POP POP POP POP SWAP1 DUP1 PUSH1 0x1 ADD PUSH0 SWAP1 SLOAD SWAP1 PUSH2 0x100 EXP SWAP1 DIV PUSH1 0xFF AND SWAP1 DUP1 PUSH1 0x1 ADD PUSH1 0x1 SWAP1 SLOAD SWAP1 PUSH2 0x100 EXP SWAP1 DIV PUSH1 0xFF AND SWAP1 DUP1 PUSH1 0x1 ADD PUSH1 0x2 SWAP1 SLOAD SWAP1 PUSH2 0x100 EXP SWAP1 DIV PUSH1 0xFF AND SWAP1 POP DUP5 JUMP JUMPDEST PUSH0 PUSH1 0x20 MSTORE DUP1 PUSH0 MSTORE PUSH1 0x40 PUSH0 KECCAK256 PUSH0 SWAP2 POP SLOAD SWAP1 PUSH2 0x100 EXP SWAP1 DIV PUSH1 0xFF AND DUP2 JUMP JUMPDEST PUSH1 0x60 PUSH1 0x1 PUSH0 DUP4 PUSH20 0xFFFFFFFFFFFFFFFFFFFFFFFFFFFFFFFFFFFFFFFF AND PUSH20 0xFFFFFFFFFFFFFFFFFFFFFFFFFFFFFFFFFFFFFFFF AND DUP2 MSTORE PUSH1 0x20 ADD SWAP1 DUP2 MSTORE PUSH1 0x20 ADD PUSH0 KECCAK256 DUP1 SLOAD DUP1 PUSH1 0x20 MUL PUSH1 0x20 ADD PUSH1 0x40 MLOAD SWAP1 DUP2 ADD PUSH1 0x40 MSTORE DUP1 SWAP3 SWAP2 SWAP1 DUP2 DUP2 MSTORE PUSH1 0x20 ADD PUSH0 SWAP1 JUMPDEST DUP3 DUP3 LT ISZERO PUSH2 0xA60 JUMPI DUP4 DUP3 SWAP1 PUSH0 MSTORE PUSH1 0x20 PUSH0 KECCAK256 SWAP1 PUSH1 0x2 MUL ADD PUSH1 0x40 MLOAD DUP1 PUSH1 0x80 ADD PUSH1 0x40 MSTORE SWAP1 DUP2 PUSH0 DUP3 ADD DUP1 SLOAD PUSH2 0x981 SWAP1 PUSH2 0x1458 JUMP JUMPDEST DUP1 PUSH1 0x1F ADD PUSH1 0x20 DUP1 SWAP2 DIV MUL PUSH1 0x20 ADD PUSH1 0x40 MLOAD SWAP1 DUP2 ADD PUSH1 0x40 MSTORE DUP1 SWAP3 SWAP2 SWAP1 DUP2 DUP2 MSTORE PUSH1 0x20 ADD DUP3 DUP1 SLOAD PUSH2 0x9AD SWAP1 PUSH2 0x1458 JUMP JUMPDEST DUP1 ISZERO PUSH2 0x9F8 JUMPI DUP1 PUSH1 0x1F LT PUSH2 0x9CF JUMPI PUSH2 0x100 DUP1 DUP4 SLOAD DIV MUL DUP4 MSTORE SWAP2 PUSH1 0x20 ADD SWAP2 PUSH2 0x9F8 JUMP JUMPDEST DUP3 ADD SWAP2 SWAP1 PUSH0 MSTORE PUSH1 0x20 PUSH0 KECCAK256 SWAP1 JUMPDEST DUP2 SLOAD DUP2 MSTORE SWAP1 PUSH1 0x1 ADD SWAP1 PUSH1 0x20 ADD DUP1 DUP4 GT PUSH2 0x9DB JUMPI DUP3 SWAP1 SUB PUSH1 0x1F AND DUP3 ADD SWAP2 JUMPDEST POP POP POP POP POP DUP2 MSTORE PUSH1 0x20 ADD PUSH1 0x1 DUP3 ADD PUSH0 SWAP1 SLOAD SWAP1 PUSH2 0x100 EXP SWAP1 DIV PUSH1 0xFF AND ISZERO ISZERO ISZERO ISZERO DUP2 MSTORE PUSH1 0x20 ADD PUSH1 0x1 DUP3 ADD PUSH1 0x1 SWAP1 SLOAD SWAP1 PUSH2 0x100 EXP SWAP1 DIV PUSH1 0xFF AND ISZERO ISZERO ISZERO ISZERO DUP2 MSTORE PUSH1 0x20 ADD PUSH1 0x1 DUP3 ADD PUSH1 0x2 SWAP1 SLOAD SWAP1 PUSH2 0x100 EXP SWAP1 DIV PUSH1 0xFF AND ISZERO ISZERO ISZERO ISZERO DUP2 MSTORE POP POP DUP2 MSTORE PUSH1 0x20 ADD SWAP1 PUSH1 0x1 ADD SWAP1 PUSH2 0x951 JUMP JUMPDEST POP POP POP POP SWAP1 POP SWAP2 SWAP1 POP JUMP JUMPDEST PUSH0 PUSH1 0x3 DUP2 GT ISZERO PUSH2 0xA7E JUMPI PUSH2 0xA7D PUSH2 0x1110 JUMP JUMPDEST JUMPDEST PUSH0 DUP1 CALLER PUSH20 0xFFFFFFFFFFFFFFFFFFFFFFFFFFFFFFFFFFFFFFFF AND PUSH20 0xFFFFFFFFFFFFFFFFFFFFFFFFFFFFFFFFFFFFFFFF AND DUP2 MSTORE PUSH1 0x20 ADD SWAP1 DUP2 MSTORE PUSH1 0x20 ADD PUSH0 KECCAK256 PUSH0 SWAP1 SLOAD SWAP1 PUSH2 0x100 EXP SWAP1 DIV PUSH1 0xFF AND PUSH1 0x3 DUP2 GT ISZERO PUSH2 0xAD9 JUMPI PUSH2 0xAD8 PUSH2 0x1110 JUMP JUMPDEST JUMPDEST SUB PUSH2 0xB19 JUMPI PUSH1 0x40 MLOAD PUSH32 0x8C379A000000000000000000000000000000000000000000000000000000000 DUP2 MSTORE PUSH1 0x4 ADD PUSH2 0xB10 SWAP1 PUSH2 0x1378 JUMP JUMPDEST PUSH1 0x40 MLOAD DUP1 SWAP2 SUB SWAP1 REVERT JUMPDEST PUSH1 0x1 PUSH0 DUP4 PUSH20 0xFFFFFFFFFFFFFFFFFFFFFFFFFFFFFFFFFFFFFFFF AND PUSH20 0xFFFFFFFFFFFFFFFFFFFFFFFFFFFFFFFFFFFFFFFF AND DUP2 MSTORE PUSH1 0x20 ADD SWAP1 DUP2 MSTORE PUSH1 0x20 ADD PUSH0 KECCAK256 DUP1 SLOAD SWAP1 POP DUP2 LT PUSH2 0xB9B JUMPI PUSH1 0x40 MLOAD PUSH32 0x8C379A000000000000000000000000000000000000000000000000000000000 DUP2 MSTORE PUSH1 0x4 ADD PUSH2 0xB92 SWAP1 PUSH2 0x13E0 JUMP JUMPDEST PUSH1 0x40 MLOAD DUP1 SWAP2 SUB SWAP1 REVERT JUMPDEST PUSH0 PUSH1 0x1 PUSH0 DUP5 PUSH20 0xFFFFFFFFFFFFFFFFFFFFFFFFFFFFFFFFFFFFFFFF AND PUSH20 0xFFFFFFFFFFFFFFFFFFFFFFFFFFFFFFFFFFFFFFFF AND DUP2 MSTORE PUSH1 0x20 ADD SWAP1 DUP2 MSTORE PUSH1 0x20 ADD PUSH0 KECCAK256 DUP3 DUP2 SLOAD DUP2 LT PUSH2 0xBEB JUMPI PUSH2 0xBEA PUSH2 0x13FE JUMP JUMPDEST JUMPDEST SWAP1 PUSH0 MSTORE PUSH1 0x20 PUSH0 KECCAK256 SWAP1 PUSH1 0x2 MUL ADD PUSH1 0x1 ADD PUSH0 PUSH2 0x100 EXP DUP2 SLOAD DUP2 PUSH1 0xFF MUL NOT AND SWAP1 DUP4 ISZERO ISZERO MUL OR SWAP1 SSTORE POP PUSH0 PUSH1 0x1 PUSH0 DUP5 PUSH20 0xFFFFFFFFFFFFFFFFFFFFFFFFFFFFFFFFFFFFFFFF AND PUSH20 0xFFFFFFFFFFFFFFFFFFFFFFFFFFFFFFFFFFFFFFFF AND DUP2 MSTORE PUSH1 0x20 ADD SWAP1 DUP2 MSTORE PUSH1 0x20 ADD PUSH0 KECCAK256 DUP3 DUP2 SLOAD DUP2 LT PUSH2 0xC60 JUMPI PUSH2 0xC5F PUSH2 0x13FE JUMP JUMPDEST JUMPDEST SWAP1 PUSH0 MSTORE PUSH1 0x20 PUSH0 KECCAK256 SWAP1 PUSH1 0x2 MUL ADD PUSH1 0x1 ADD PUSH1 0x1 PUSH2 0x100 EXP DUP2 SLOAD DUP2 PUSH1 0xFF MUL NOT AND SWAP1 DUP4 ISZERO ISZERO MUL OR SWAP1 SSTORE POP PUSH0 PUSH1 0x1 PUSH0 DUP5 PUSH20 0xFFFFFFFFFFFFFFFFFFFFFFFFFFFFFFFFFFFFFFFF AND PUSH20 0xFFFFFFFFFFFFFFFFFFFFFFFFFFFFFFFFFFFFFFFF AND DUP2 MSTORE PUSH1 0x20 ADD SWAP1 DUP2 MSTORE PUSH1 0x20 ADD PUSH0 KECCAK256 DUP3 DUP2 SLOAD DUP2 LT PUSH2 0xCD6 JUMPI PUSH2 0xCD5 PUSH2 0x13FE JUMP JUMPDEST JUMPDEST SWAP1 PUSH0 MSTORE PUSH1 0x20 PUSH0 KECCAK256 SWAP1 PUSH1 0x2 MUL ADD PUSH1 0x1 ADD PUSH1 0x2 PUSH2 0x100 EXP DUP2 SLOAD DUP2 PUSH1 0xFF MUL NOT AND SWAP1 DUP4 ISZERO ISZERO MUL OR SWAP1 SSTORE POP DUP2 PUSH20 0xFFFFFFFFFFFFFFFFFFFFFFFFFFFFFFFFFFFFFFFF AND PUSH32 0x867EE34E7B32B226F87F4418C683B900D2C5B5CA18AFD3012ED61824B530662A DUP3 PUSH1 0x40 MLOAD PUSH2 0xD42 SWAP2 SWAP1 PUSH2 0x1723 JUMP JUMPDEST PUSH1 0x40 MLOAD DUP1 SWAP2 SUB SWAP1 LOG2 POP POP JUMP JUMPDEST PUSH0 PUSH1 0x40 MLOAD SWAP1 POP SWAP1 JUMP JUMPDEST PUSH0 DUP1 REVERT JUMPDEST PUSH0 DUP1 REVERT JUMPDEST PUSH0 PUSH20 0xFFFFFFFFFFFFFFFFFFFFFFFFFFFFFFFFFFFFFFFF DUP3 AND SWAP1 POP SWAP2 SWAP1 POP JUMP JUMPDEST PUSH0 PUSH2 0xD88 DUP3 PUSH2 0xD5F JUMP JUMPDEST SWAP1 POP SWAP2 SWAP1 POP JUMP JUMPDEST PUSH2 0xD98 DUP2 PUSH2 0xD7E JUMP JUMPDEST DUP2 EQ PUSH2 0xDA2 JUMPI PUSH0 DUP1 REVERT JUMPDEST POP JUMP JUMPDEST PUSH0 DUP2 CALLDATALOAD SWAP1 POP PUSH2 0xDB3 DUP2 PUSH2 0xD8F JUMP JUMPDEST SWAP3 SWAP2 POP POP JUMP JUMPDEST PUSH0 DUP2 SWAP1 POP SWAP2 SWAP1 POP JUMP JUMPDEST PUSH2 0xDCB DUP2 PUSH2 0xDB9 JUMP JUMPDEST DUP2 EQ PUSH2 0xDD5 JUMPI PUSH0 DUP1 REVERT JUMPDEST POP JUMP JUMPDEST PUSH0 DUP2 CALLDATALOAD SWAP1 POP PUSH2 0xDE6 DUP2 PUSH2 0xDC2 JUMP JUMPDEST SWAP3 SWAP2 POP POP JUMP JUMPDEST PUSH0 DUP1 PUSH1 0x40 DUP4 DUP6 SUB SLT ISZERO PUSH2 0xE02 JUMPI PUSH2 0xE01 PUSH2 0xD57 JUMP JUMPDEST JUMPDEST PUSH0 PUSH2 0xE0F DUP6 DUP3 DUP7 ADD PUSH2 0xDA5 JUMP JUMPDEST SWAP3 POP POP PUSH1 0x20 PUSH2 0xE20 DUP6 DUP3 DUP7 ADD PUSH2 0xDD8 JUMP JUMPDEST SWAP2 POP POP SWAP3 POP SWAP3 SWAP1 POP JUMP JUMPDEST PUSH1 0x4 DUP2 LT PUSH2 0xE36 JUMPI PUSH0 DUP1 REVERT JUMPDEST POP JUMP JUMPDEST PUSH0 DUP2 CALLDATALOAD SWAP1 POP PUSH2 0xE47 DUP2 PUSH2 0xE2A JUMP JUMPDEST SWAP3 SWAP2 POP POP JUMP JUMPDEST PUSH0 DUP1 PUSH1 0x40 DUP4 DUP6 SUB SLT ISZERO PUSH2 0xE63 JUMPI PUSH2 0xE62 PUSH2 0xD57 JUMP JUMPDEST JUMPDEST PUSH0 PUSH2 0xE70 DUP6 DUP3 DUP7 ADD PUSH2 0xDA5 JUMP JUMPDEST SWAP3 POP POP PUSH1 0x20 PUSH2 0xE81 DUP6 DUP3 DUP7 ADD PUSH2 0xE39 JUMP JUMPDEST SWAP2 POP POP SWAP3 POP SWAP3 SWAP1 POP JUMP JUMPDEST PUSH0 DUP1 REVERT JUMPDEST PUSH0 DUP1 REVERT JUMPDEST PUSH0 PUSH1 0x1F NOT PUSH1 0x1F DUP4 ADD AND SWAP1 POP SWAP2 SWAP1 POP JUMP JUMPDEST PUSH32 0x4E487B7100000000000000000000000000000000000000000000000000000000 PUSH0 MSTORE PUSH1 0x41 PUSH1 0x4 MSTORE PUSH1 0x24 PUSH0 REVERT JUMPDEST PUSH2 0xED9 DUP3 PUSH2 0xE93 JUMP JUMPDEST DUP2 ADD DUP2 DUP2 LT PUSH8 0xFFFFFFFFFFFFFFFF DUP3 GT OR ISZERO PUSH2 0xEF8 JUMPI PUSH2 0xEF7 PUSH2 0xEA3 JUMP JUMPDEST JUMPDEST DUP1 PUSH1 0x40 MSTORE POP POP POP JUMP JUMPDEST PUSH0 PUSH2 0xF0A PUSH2 0xD4E JUMP JUMPDEST SWAP1 POP PUSH2 0xF16 DUP3 DUP3 PUSH2 0xED0 JUMP JUMPDEST SWAP2 SWAP1 POP JUMP JUMPDEST PUSH0 PUSH8 0xFFFFFFFFFFFFFFFF DUP3 GT ISZERO PUSH2 0xF35 JUMPI PUSH2 0xF34 PUSH2 0xEA3 JUMP JUMPDEST JUMPDEST PUSH2 0xF3E DUP3 PUSH2 0xE93 JUMP JUMPDEST SWAP1 POP PUSH1 0x20 DUP2 ADD SWAP1 POP SWAP2 SWAP1 POP JUMP JUMPDEST DUP3 DUP2 DUP4 CALLDATACOPY PUSH0 DUP4 DUP4 ADD MSTORE POP POP POP JUMP JUMPDEST PUSH0 PUSH2 0xF6B PUSH2 0xF66 DUP5 PUSH2 0xF1B JUMP JUMPDEST PUSH2 0xF01 JUMP JUMPDEST SWAP1 POP DUP3 DUP2 MSTORE PUSH1 0x20 DUP2 ADD DUP5 DUP5 DUP5 ADD GT ISZERO PUSH2 0xF87 JUMPI PUSH2 0xF86 PUSH2 0xE8F JUMP JUMPDEST JUMPDEST PUSH2 0xF92 DUP5 DUP3 DUP6 PUSH2 0xF4B JUMP JUMPDEST POP SWAP4 SWAP3 POP POP POP JUMP JUMPDEST PUSH0 DUP3 PUSH1 0x1F DUP4 ADD SLT PUSH2 0xFAE JUMPI PUSH2 0xFAD PUSH2 0xE8B JUMP JUMPDEST JUMPDEST DUP2 CALLDATALOAD PUSH2 0xFBE DUP5 DUP3 PUSH1 0x20 DUP7 ADD PUSH2 0xF59 JUMP JUMPDEST SWAP2 POP POP SWAP3 SWAP2 POP POP JUMP JUMPDEST PUSH0 DUP1 PUSH1 0x40 DUP4 DUP6 SUB SLT ISZERO PUSH2 0xFDD JUMPI PUSH2 0xFDC PUSH2 0xD57 JUMP JUMPDEST JUMPDEST PUSH0 PUSH2 0xFEA DUP6 DUP3 DUP7 ADD PUSH2 0xDA5 JUMP JUMPDEST SWAP3 POP POP PUSH1 0x20 DUP4 ADD CALLDATALOAD PUSH8 0xFFFFFFFFFFFFFFFF DUP2 GT ISZERO PUSH2 0x100B JUMPI PUSH2 0x100A PUSH2 0xD5B JUMP JUMPDEST JUMPDEST PUSH2 0x1017 DUP6 DUP3 DUP7 ADD PUSH2 0xF9A JUMP JUMPDEST SWAP2 POP POP SWAP3 POP SWAP3 SWAP1 POP JUMP JUMPDEST PUSH0 DUP2 MLOAD SWAP1 POP SWAP2 SWAP1 POP JUMP JUMPDEST PUSH0 DUP3 DUP3 MSTORE PUSH1 0x20 DUP3 ADD SWAP1 POP SWAP3 SWAP2 POP POP JUMP JUMPDEST DUP3 DUP2 DUP4 MCOPY PUSH0 DUP4 DUP4 ADD MSTORE POP POP POP JUMP JUMPDEST PUSH0 PUSH2 0x1053 DUP3 PUSH2 0x1021 JUMP JUMPDEST PUSH2 0x105D DUP2 DUP6 PUSH2 0x102B JUMP JUMPDEST SWAP4 POP PUSH2 0x106D DUP2 DUP6 PUSH1 0x20 DUP7 ADD PUSH2 0x103B JUMP JUMPDEST PUSH2 0x1076 DUP2 PUSH2 0xE93 JUMP JUMPDEST DUP5 ADD SWAP2 POP POP SWAP3 SWAP2 POP POP JUMP JUMPDEST PUSH0 DUP2 ISZERO ISZERO SWAP1 POP SWAP2 SWAP1 POP JUMP JUMPDEST PUSH2 0x1095 DUP2 PUSH2 0x1081 JUMP JUMPDEST DUP3 MSTORE POP POP JUMP JUMPDEST PUSH0 PUSH1 0x80 DUP3 ADD SWAP1 POP DUP2 DUP2 SUB PUSH0 DUP4 ADD MSTORE PUSH2 0x10B3 DUP2 DUP8 PUSH2 0x1049 JUMP JUMPDEST SWAP1 POP PUSH2 0x10C2 PUSH1 0x20 DUP4 ADD DUP7 PUSH2 0x108C JUMP JUMPDEST PUSH2 0x10CF PUSH1 0x40 DUP4 ADD DUP6 PUSH2 0x108C JUMP JUMPDEST PUSH2 0x10DC PUSH1 0x60 DUP4 ADD DUP5 PUSH2 0x108C JUMP JUMPDEST SWAP6 SWAP5 POP POP POP POP POP JUMP JUMPDEST PUSH0 PUSH1 0x20 DUP3 DUP5 SUB SLT ISZERO PUSH2 0x10FA JUMPI PUSH2 0x10F9 PUSH2 0xD57 JUMP JUMPDEST JUMPDEST PUSH0 PUSH2 0x1107 DUP5 DUP3 DUP6 ADD PUSH2 0xDA5 JUMP JUMPDEST SWAP2 POP POP SWAP3 SWAP2 POP POP JUMP JUMPDEST PUSH32 0x4E487B7100000000000000000000000000000000000000000000000000000000 PUSH0 MSTORE PUSH1 0x21 PUSH1 0x4 MSTORE PUSH1 0x24 PUSH0 REVERT JUMPDEST PUSH1 0x4 DUP2 LT PUSH2 0x114E JUMPI PUSH2 0x114D PUSH2 0x1110 JUMP JUMPDEST JUMPDEST POP JUMP JUMPDEST PUSH0 DUP2 SWAP1 POP PUSH2 0x115E DUP3 PUSH2 0x113D JUMP JUMPDEST SWAP2 SWAP1 POP JUMP JUMPDEST PUSH0 PUSH2 0x116D DUP3 PUSH2 0x1151 JUMP JUMPDEST SWAP1 POP SWAP2 SWAP1 POP JUMP JUMPDEST PUSH2 0x117D DUP2 PUSH2 0x1163 JUMP JUMPDEST DUP3 MSTORE POP POP JUMP JUMPDEST PUSH0 PUSH1 0x20 DUP3 ADD SWAP1 POP PUSH2 0x1196 PUSH0 DUP4 ADD DUP5 PUSH2 0x1174 JUMP JUMPDEST SWAP3 SWAP2 POP POP JUMP JUMPDEST PUSH0 DUP2 MLOAD SWAP1 POP SWAP2 SWAP1 POP JUMP JUMPDEST PUSH0 DUP3 DUP3 MSTORE PUSH1 0x20 DUP3 ADD SWAP1 POP SWAP3 SWAP2 POP POP JUMP JUMPDEST PUSH0 DUP2 SWAP1 POP PUSH1 0x20 DUP3 ADD SWAP1 POP SWAP2 SWAP1 POP JUMP JUMPDEST PUSH0 DUP3 DUP3 MSTORE PUSH1 0x20 DUP3 ADD SWAP1 POP SWAP3 SWAP2 POP POP JUMP JUMPDEST PUSH0 PUSH2 0x11DF DUP3 PUSH2 0x1021 JUMP JUMPDEST PUSH2 0x11E9 DUP2 DUP6 PUSH2 0x11C5 JUMP JUMPDEST SWAP4 POP PUSH2 0x11F9 DUP2 DUP6 PUSH1 0x20 DUP7 ADD PUSH2 0x103B JUMP JUMPDEST PUSH2 0x1202 DUP2 PUSH2 0xE93 JUMP JUMPDEST DUP5 ADD SWAP2 POP POP SWAP3 SWAP2 POP POP JUMP JUMPDEST PUSH2 0x1216 DUP2 PUSH2 0x1081 JUMP JUMPDEST DUP3 MSTORE POP POP JUMP JUMPDEST PUSH0 PUSH1 0x80 DUP4 ADD PUSH0 DUP4 ADD MLOAD DUP5 DUP3 SUB PUSH0 DUP7 ADD MSTORE PUSH2 0x1236 DUP3 DUP3 PUSH2 0x11D5 JUMP JUMPDEST SWAP2 POP POP PUSH1 0x20 DUP4 ADD MLOAD PUSH2 0x124B PUSH1 0x20 DUP7 ADD DUP3 PUSH2 0x120D JUMP JUMPDEST POP PUSH1 0x40 DUP4 ADD MLOAD PUSH2 0x125E PUSH1 0x40 DUP7 ADD DUP3 PUSH2 0x120D JUMP JUMPDEST POP PUSH1 0x60 DUP4 ADD MLOAD PUSH2 0x1271 PUSH1 0x60 DUP7 ADD DUP3 PUSH2 0x120D JUMP JUMPDEST POP DUP1 SWAP2 POP POP SWAP3 SWAP2 POP POP JUMP JUMPDEST PUSH0 PUSH2 0x1287 DUP4 DUP4 PUSH2 0x121C JUMP JUMPDEST SWAP1 POP SWAP3 SWAP2 POP POP JUMP JUMPDEST PUSH0 PUSH1 0x20 DUP3 ADD SWAP1 POP SWAP2 SWAP1 POP JUMP JUMPDEST PUSH0 PUSH2 0x12A5 DUP3 PUSH2 0x119C JUMP JUMPDEST PUSH2 0x12AF DUP2 DUP6 PUSH2 0x11A6 JUMP JUMPDEST SWAP4 POP DUP4 PUSH1 0x20 DUP3 MUL DUP6 ADD PUSH2 0x12C1 DUP6 PUSH2 0x11B6 JUMP JUMPDEST DUP1 PUSH0 JUMPDEST DUP6 DUP2 LT ISZERO PUSH2 0x12FC JUMPI DUP5 DUP5 SUB DUP10 MSTORE DUP2 MLOAD PUSH2 0x12DD DUP6 DUP3 PUSH2 0x127C JUMP JUMPDEST SWAP5 POP PUSH2 0x12E8 DUP4 PUSH2 0x128F JUMP JUMPDEST SWAP3 POP PUSH1 0x20 DUP11 ADD SWAP10 POP POP PUSH1 0x1 DUP2 ADD SWAP1 POP PUSH2 0x12C4 JUMP JUMPDEST POP DUP3 SWAP8 POP DUP8 SWAP6 POP POP POP POP POP POP SWAP3 SWAP2 POP POP JUMP JUMPDEST PUSH0 PUSH1 0x20 DUP3 ADD SWAP1 POP DUP2 DUP2 SUB PUSH0 DUP4 ADD MSTORE PUSH2 0x1326 DUP2 DUP5 PUSH2 0x129B JUMP JUMPDEST SWAP1 POP SWAP3 SWAP2 POP POP JUMP JUMPDEST PUSH32 0x4E6F7420617574686F72697A6564000000000000000000000000000000000000 PUSH0 DUP3 ADD MSTORE POP JUMP JUMPDEST PUSH0 PUSH2 0x1362 PUSH1 0xE DUP4 PUSH2 0x102B JUMP JUMPDEST SWAP2 POP PUSH2 0x136D DUP3 PUSH2 0x132E JUMP JUMPDEST PUSH1 0x20 DUP3 ADD SWAP1 POP SWAP2 SWAP1 POP JUMP JUMPDEST PUSH0 PUSH1 0x20 DUP3 ADD SWAP1 POP DUP2 DUP2 SUB PUSH0 DUP4 ADD MSTORE PUSH2 0x138F DUP2 PUSH2 0x1356 JUMP JUMPDEST SWAP1 POP SWAP2 SWAP1 POP JUMP JUMPDEST PUSH32 0x496E76616C6964207265636F726420696E646578000000000000000000000000 PUSH0 DUP3 ADD MSTORE POP JUMP JUMPDEST PUSH0 PUSH2 0x13CA PUSH1 0x14 DUP4 PUSH2 0x102B JUMP JUMPDEST SWAP2 POP PUSH2 0x13D5 DUP3 PUSH2 0x1396 JUMP JUMPDEST PUSH1 0x20 DUP3 ADD SWAP1 POP SWAP2 SWAP1 POP JUMP JUMPDEST PUSH0 PUSH1 0x20 DUP3 ADD SWAP1 POP DUP2 DUP2 SUB PUSH0 DUP4 ADD MSTORE PUSH2 0x13F7 DUP2 PUSH2 0x13BE JUMP JUMPDEST SWAP1 POP SWAP2 SWAP1 POP JUMP JUMPDEST PUSH32 0x4E487B7100000000000000000000000000000000000000000000000000000000 PUSH0 MSTORE PUSH1 0x32 PUSH1 0x4 MSTORE PUSH1 0x24 PUSH0 REVERT JUMPDEST PUSH32 0x4E487B7100000000000000000000000000000000000000000000000000000000 PUSH0 MSTORE PUSH1 0x22 PUSH1 0x4 MSTORE PUSH1 0x24 PUSH0 REVERT JUMPDEST PUSH0 PUSH1 0x2 DUP3 DIV SWAP1 POP PUSH1 0x1 DUP3 AND DUP1 PUSH2 0x146F JUMPI PUSH1 0x7F DUP3 AND SWAP2 POP JUMPDEST PUSH1 0x20 DUP3 LT DUP2 SUB PUSH2 0x1482 JUMPI PUSH2 0x1481 PUSH2 0x142B JUMP JUMPDEST JUMPDEST POP SWAP2 SWAP1 POP JUMP JUMPDEST PUSH0 DUP2 SWAP1 POP DUP2 PUSH0 MSTORE PUSH1 0x20 PUSH0 KECCAK256 SWAP1 POP SWAP2 SWAP1 POP JUMP JUMPDEST PUSH0 PUSH1 0x20 PUSH1 0x1F DUP4 ADD DIV SWAP1 POP SWAP2 SWAP1 POP JUMP JUMPDEST PUSH0 DUP3 DUP3 SHL SWAP1 POP SWAP3 SWAP2 POP POP JUMP JUMPDEST PUSH0 PUSH1 0x8 DUP4 MUL PUSH2 0x14E4 PUSH32 0xFFFFFFFFFFFFFFFFFFFFFFFFFFFFFFFFFFFFFFFFFFFFFFFFFFFFFFFFFFFFFFFF DUP3 PUSH2 0x14A9 JUMP JUMPDEST PUSH2 0x14EE DUP7 DUP4 PUSH2 0x14A9 JUMP JUMPDEST SWAP6 POP DUP1 NOT DUP5 AND SWAP4 POP DUP1 DUP7 AND DUP5 OR SWAP3 POP POP POP SWAP4 SWAP3 POP POP POP JUMP JUMPDEST PUSH0 DUP2 SWAP1 POP SWAP2 SWAP1 POP JUMP JUMPDEST PUSH0 PUSH2 0x1529 PUSH2 0x1524 PUSH2 0x151F DUP5 PUSH2 0xDB9 JUMP JUMPDEST PUSH2 0x1506 JUMP JUMPDEST PUSH2 0xDB9 JUMP JUMPDEST SWAP1 POP SWAP2 SWAP1 POP JUMP JUMPDEST PUSH0 DUP2 SWAP1 POP SWAP2 SWAP1 POP JUMP JUMPDEST PUSH2 0x1542 DUP4 PUSH2 0x150F JUMP JUMPDEST PUSH2 0x1556 PUSH2 0x154E DUP3 PUSH2 0x1530 JUMP JUMPDEST DUP5 DUP5 SLOAD PUSH2 0x14B5 JUMP JUMPDEST DUP3 SSTORE POP POP POP POP JUMP JUMPDEST PUSH0 SWAP1 JUMP JUMPDEST PUSH2 0x156A PUSH2 0x155E JUMP JUMPDEST PUSH2 0x1575 DUP2 DUP5 DUP5 PUSH2 0x1539 JUMP JUMPDEST POP POP POP JUMP JUMPDEST JUMPDEST DUP2 DUP2 LT ISZERO PUSH2 0x1598 JUMPI PUSH2 0x158D PUSH0 DUP3 PUSH2 0x1562 JUMP JUMPDEST PUSH1 0x1 DUP2 ADD SWAP1 POP PUSH2 0x157B JUMP JUMPDEST POP POP JUMP JUMPDEST PUSH1 0x1F DUP3 GT ISZERO PUSH2 0x15DD JUMPI PUSH2 0x15AE DUP2 PUSH2 0x1488 JUMP JUMPDEST PUSH2 0x15B7 DUP5 PUSH2 0x149A JUMP JUMPDEST DUP2 ADD PUSH1 0x20 DUP6 LT ISZERO PUSH2 0x15C6 JUMPI DUP2 SWAP1 POP JUMPDEST PUSH2 0x15DA PUSH2 0x15D2 DUP6 PUSH2 0x149A JUMP JUMPDEST DUP4 ADD DUP3 PUSH2 0x157A JUMP JUMPDEST POP POP JUMPDEST POP POP POP JUMP JUMPDEST PUSH0 DUP3 DUP3 SHR SWAP1 POP SWAP3 SWAP2 POP POP JUMP JUMPDEST PUSH0 PUSH2 0x15FD PUSH0 NOT DUP5 PUSH1 0x8 MUL PUSH2 0x15E2 JUMP JUMPDEST NOT DUP1 DUP4 AND SWAP2 POP POP SWAP3 SWAP2 POP POP JUMP JUMPDEST PUSH0 PUSH2 0x1615 DUP4 DUP4 PUSH2 0x15EE JUMP JUMPDEST SWAP2 POP DUP3 PUSH1 0x2 MUL DUP3 OR SWAP1 POP SWAP3 SWAP2 POP POP JUMP JUMPDEST PUSH2 0x162E DUP3 PUSH2 0x1021 JUMP JUMPDEST PUSH8 0xFFFFFFFFFFFFFFFF DUP2 GT ISZERO PUSH2 0x1647 JUMPI PUSH2 0x1646 PUSH2 0xEA3 JUMP JUMPDEST JUMPDEST PUSH2 0x1651 DUP3 SLOAD PUSH2 0x1458 JUMP JUMPDEST PUSH2 0x165C DUP3 DUP3 DUP6 PUSH2 0x159C JUMP JUMPDEST PUSH0 PUSH1 0x20 SWAP1 POP PUSH1 0x1F DUP4 GT PUSH1 0x1 DUP2 EQ PUSH2 0x168D JUMPI PUSH0 DUP5 ISZERO PUSH2 0x167B JUMPI DUP3 DUP8 ADD MLOAD SWAP1 POP JUMPDEST PUSH2 0x1685 DUP6 DUP3 PUSH2 0x160A JUMP JUMPDEST DUP7 SSTORE POP PUSH2 0x16EC JUMP JUMPDEST PUSH1 0x1F NOT DUP5 AND PUSH2 0x169B DUP7 PUSH2 0x1488 JUMP JUMPDEST PUSH0 JUMPDEST DUP3 DUP2 LT ISZERO PUSH2 0x16C2 JUMPI DUP5 DUP10 ADD MLOAD DUP3 SSTORE PUSH1 0x1 DUP3 ADD SWAP2 POP PUSH1 0x20 DUP6 ADD SWAP5 POP PUSH1 0x20 DUP2 ADD SWAP1 POP PUSH2 0x169D JUMP JUMPDEST DUP7 DUP4 LT ISZERO PUSH2 0x16DF JUMPI DUP5 DUP10 ADD MLOAD PUSH2 0x16DB PUSH1 0x1F DUP10 AND DUP3 PUSH2 0x15EE JUMP JUMPDEST DUP4 SSTORE POP JUMPDEST PUSH1 0x1 PUSH1 0x2 DUP9 MUL ADD DUP9 SSTORE POP POP POP JUMPDEST POP POP POP POP POP POP JUMP JUMPDEST PUSH0 PUSH1 0x20 DUP3 ADD SWAP1 POP DUP2 DUP2 SUB PUSH0 DUP4 ADD MSTORE PUSH2 0x170C DUP2 DUP5 PUSH2 0x1049 JUMP JUMPDEST SWAP1 POP SWAP3 SWAP2 POP POP JUMP JUMPDEST PUSH2 0x171D DUP2 PUSH2 0xDB9 JUMP JUMPDEST DUP3 MSTORE POP POP JUMP JUMPDEST PUSH0 PUSH1 0x20 DUP3 ADD SWAP1 POP PUSH2 0x1736 PUSH0 DUP4 ADD DUP5 PUSH2 0x1714 JUMP JUMPDEST SWAP3 SWAP2 POP POP JUMP INVALID LOG2 PUSH5 0x6970667358 0x22 SLT KECCAK256 0xB0 0xB3 MSTORE8 DUP5 SWAP16 0xE2 PUSH20 0xE48CFA710C3A7C15FD824F14965CDBF196D6E688 KECCAK256 0x2E MULMOD 0x4D PREVRANDAO PUSH5 0x736F6C6343 STOP ADDMOD BYTE STOP CALLER "
				},
				"gasEstimates": {
					"creation": {
						"codeDepositCost": "1200400",
						"executionCost": "1246",
						"totalCost": "1201646"
					},
					"external": {
						"addRecord(address,string)": "infinite",
						"approveRecord(address,uint256)": "38629",
						"assignRole(address,uint8)": "24975",
						"getRecords(address)": "infinite",
						"records(address,uint256)": "infinite",
						"revokeRecord(address,uint256)": "infinite",
						"roles(address)": "2942"
					}
				},
				"methodIdentifiers": {
					"addRecord(address,string)": "66858ec8",
					"approveRecord(address,uint256)": "492de2f2",
					"assignRole(address,uint8)": "630a195b",
					"getRecords(address)": "a0076e84",
					"records(address,uint256)": "82a6c0ac",
					"revokeRecord(address,uint256)": "ea1020ea",
					"roles(address)": "99374642"
				}
			},
			"storageLayout": {
				"storage": [
					{
						"astId": 20,
						"contract": "scripts/medical_ledger.sol:MedicalRecords",
						"label": "roles",
						"offset": 0,
						"slot": "0",
						"type": "t_mapping(t_address,t_enum(Role)6)"
					},
					{
						"astId": 26,
						"contract": "scripts/medical_ledger.sol:MedicalRecords",
						"label": "records",
						"offset": 0,
						"slot": "1",
						"type": "t_mapping(t_address,t_array(t_struct(Record)15_storage)dyn_storage)"
					}
				],
				"types": {
					"t_address": {
						"encoding": "inplace",
						"label": "address",
						"numberOfBytes": "20"
					},
					"t_array(t_struct(Record)15_storage)dyn_storage": {
						"base": "t_struct(Record)15_storage",
						"encoding": "dynamic_array",
						"label": "struct MedicalRecords.Record[]",
						"numberOfBytes": "32"
					},
					"t_bool": {
						"encoding": "inplace",
						"label": "bool",
						"numberOfBytes": "1"
					},
					"t_enum(Role)6": {
						"encoding": "inplace",
						"label": "enum MedicalRecords.Role",
						"numberOfBytes": "1"
					},
					"t_mapping(t_address,t_array(t_struct(Record)15_storage)dyn_storage)": {
						"encoding": "mapping",
						"key": "t_address",
						"label": "mapping(address => struct MedicalRecords.Record[])",
						"numberOfBytes": "32",
						"value": "t_array(t_struct(Record)15_storage)dyn_storage"
					},
					"t_mapping(t_address,t_enum(Role)6)": {
						"encoding": "mapping",
						"key": "t_address",
						"label": "mapping(address => enum MedicalRecords.Role)",
						"numberOfBytes": "32",
						"value": "t_enum(Role)6"
					},
					"t_string_storage": {
						"encoding": "bytes",
						"label": "string",
						"numberOfBytes": "32"
					},
					"t_struct(Record)15_storage": {
						"encoding": "inplace",
						"label": "struct MedicalRecords.Record",
						"members": [
							{
								"astId": 8,
								"contract": "scripts/medical_ledger.sol:MedicalRecords",
								"label": "data",
								"offset": 0,
								"slot": "0",
								"type": "t_string_storage"
							},
							{
								"astId": 10,
								"contract": "scripts/medical_ledger.sol:MedicalRecords",
								"label": "doctorApproval",
								"offset": 0,
								"slot": "1",
								"type": "t_bool"
							},
							{
								"astId": 12,
								"contract": "scripts/medical_ledger.sol:MedicalRecords",
								"label": "patientApproval",
								"offset": 1,
								"slot": "1",
								"type": "t_bool"
							},
							{
								"astId": 14,
								"contract": "scripts/medical_ledger.sol:MedicalRecords",
								"label": "insuranceApproval",
								"offset": 2,
								"slot": "1",
								"type": "t_bool"
							}
						],
						"numberOfBytes": "64"
					}
				}
			},
			"userdoc": {
				"kind": "user",
				"methods": {},
				"version": 1
			}
		}
	}
}